{
	"src/SyncEmitter.sol": {
		"SyncEventEmitter": {
			"abi": [
				{
					"anonymous": false,
					"inputs": [
						{
							"indexed": false,
							"internalType": "uint112",
							"name": "reserve0",
							"type": "uint112"
						},
						{
							"indexed": false,
							"internalType": "uint112",
							"name": "reserve1",
							"type": "uint112"
						}
					],
					"name": "Sync",
					"type": "event"
				},
				{
					"inputs": [
						{
							"internalType": "uint112",
							"name": "reserve0",
							"type": "uint112"
						},
						{
							"internalType": "uint112",
							"name": "reserve1",
							"type": "uint112"
						}
					],
					"name": "emitSyncEvent",
					"outputs": [
						{
							"internalType": "bool",
							"name": "",
							"type": "bool"
						}
					],
					"stateMutability": "nonpayable",
					"type": "function"
				}
			],
			"devdoc": {
				"details": "A simple contract that emits a Sync event with the same signature as Uniswap V2 pairs",
				"kind": "dev",
				"methods": {
					"emitSyncEvent(uint112,uint112)": {
						"details": "Emits a Sync event with the provided reserve values",
						"params": {
							"reserve0": "The first token reserve amount",
							"reserve1": "The second token reserve amount"
						},
						"returns": {
							"_0": "bool True if the event was successfully emitted"
						}
					}
				},
				"title": "SyncEventEmitter",
				"version": 1
			},
			"evm": {
				"assembly": "    /* \"src/SyncEmitter.sol\":186:819  contract SyncEventEmitter {... */\n  mstore(0x40, 0x80)\n  callvalue\n  dup1\n  iszero\n  tag_1\n  jumpi\n  0x00\n  dup1\n  revert\ntag_1:\n  pop\n  dataSize(sub_0)\n  dup1\n  dataOffset(sub_0)\n  0x00\n  codecopy\n  0x00\n  return\nstop\n\nsub_0: assembly {\n        /* \"src/SyncEmitter.sol\":186:819  contract SyncEventEmitter {... */\n      mstore(0x40, 0x80)\n      callvalue\n      dup1\n      iszero\n      tag_1\n      jumpi\n      0x00\n      dup1\n      revert\n    tag_1:\n      pop\n      jumpi(tag_2, lt(calldatasize, 0x04))\n      shr(0xe0, calldataload(0x00))\n      dup1\n      0xdf79d584\n      eq\n      tag_3\n      jumpi\n    tag_2:\n      0x00\n      dup1\n      revert\n        /* \"src/SyncEmitter.sol\":667:817  function emitSyncEvent(uint112 reserve0, uint112 reserve1) external returns (bool) {... */\n    tag_3:\n      tag_4\n      0x04\n      dup1\n      calldatasize\n      sub\n      dup2\n      add\n      swap1\n      tag_5\n      swap2\n      swap1\n      tag_6\n      jump\t// in\n    tag_5:\n      tag_7\n      jump\t// in\n    tag_4:\n      mload(0x40)\n      tag_8\n      swap2\n      swap1\n      tag_9\n      jump\t// in\n    tag_8:\n      mload(0x40)\n      dup1\n      swap2\n      sub\n      swap1\n      return\n    tag_7:\n        /* \"src/SyncEmitter.sol\":744:748  bool */\n      0x00\n        /* \"src/SyncEmitter.sol\":765:789  Sync(reserve0, reserve1) */\n      0x1c411e9a96e071241c2f21f7726b17ae89e3cab4c78be50e062b03a9fffbbad1\n        /* \"src/SyncEmitter.sol\":770:778  reserve0 */\n      dup4\n        /* \"src/SyncEmitter.sol\":780:788  reserve1 */\n      dup4\n        /* \"src/SyncEmitter.sol\":765:789  Sync(reserve0, reserve1) */\n      mload(0x40)\n      tag_11\n      swap3\n      swap2\n      swap1\n      tag_12\n      jump\t// in\n    tag_11:\n      mload(0x40)\n      dup1\n      swap2\n      sub\n      swap1\n      log1\n        /* \"src/SyncEmitter.sol\":806:810  true */\n      0x01\n        /* \"src/SyncEmitter.sol\":799:810  return true */\n      swap1\n      pop\n        /* \"src/SyncEmitter.sol\":667:817  function emitSyncEvent(uint112 reserve0, uint112 reserve1) external returns (bool) {... */\n      swap3\n      swap2\n      pop\n      pop\n      jump\t// out\n        /* \"#utility.yul\":88:205   */\n    tag_14:\n        /* \"#utility.yul\":197:198   */\n      0x00\n        /* \"#utility.yul\":194:195   */\n      dup1\n        /* \"#utility.yul\":187:199   */\n      revert\n        /* \"#utility.yul\":334:448   */\n    tag_16:\n        /* \"#utility.yul\":371:378   */\n      0x00\n        /* \"#utility.yul\":411:441   */\n      0xffffffffffffffffffffffffffff\n        /* \"#utility.yul\":404:409   */\n      dup3\n        /* \"#utility.yul\":400:442   */\n      and\n        /* \"#utility.yul\":389:442   */\n      swap1\n      pop\n        /* \"#utility.yul\":334:448   */\n      swap2\n      swap1\n      pop\n      jump\t// out\n        /* \"#utility.yul\":454:576   */\n    tag_17:\n        /* \"#utility.yul\":527:551   */\n      tag_28\n        /* \"#utility.yul\":545:550   */\n      dup2\n        /* \"#utility.yul\":527:551   */\n      tag_16\n      jump\t// in\n    tag_28:\n        /* \"#utility.yul\":520:525   */\n      dup2\n        /* \"#utility.yul\":517:552   */\n      eq\n        /* \"#utility.yul\":507:570   */\n      tag_29\n      jumpi\n        /* \"#utility.yul\":566:567   */\n      0x00\n        /* \"#utility.yul\":563:564   */\n      dup1\n        /* \"#utility.yul\":556:568   */\n      revert\n        /* \"#utility.yul\":507:570   */\n    tag_29:\n        /* \"#utility.yul\":454:576   */\n      pop\n      jump\t// out\n        /* \"#utility.yul\":582:721   */\n    tag_18:\n        /* \"#utility.yul\":628:633   */\n      0x00\n        /* \"#utility.yul\":666:672   */\n      dup2\n        /* \"#utility.yul\":653:673   */\n      calldataload\n        /* \"#utility.yul\":644:673   */\n      swap1\n      pop\n        /* \"#utility.yul\":682:715   */\n      tag_31\n        /* \"#utility.yul\":709:714   */\n      dup2\n        /* \"#utility.yul\":682:715   */\n      tag_17\n      jump\t// in\n    tag_31:\n        /* \"#utility.yul\":582:721   */\n      swap3\n      swap2\n      pop\n      pop\n      jump\t// out\n        /* \"#utility.yul\":727:1201   */\n    tag_6:\n        /* \"#utility.yul\":795:801   */\n      0x00\n        /* \"#utility.yul\":803:809   */\n      dup1\n        /* \"#utility.yul\":852:854   */\n      0x40\n        /* \"#utility.yul\":840:849   */\n      dup4\n        /* \"#utility.yul\":831:838   */\n      dup6\n        /* \"#utility.yul\":827:850   */\n      sub\n        /* \"#utility.yul\":823:855   */\n      slt\n        /* \"#utility.yul\":820:939   */\n      iszero\n      tag_33\n      jumpi\n        /* \"#utility.yul\":858:937   */\n      tag_34\n      tag_14\n      jump\t// in\n    tag_34:\n        /* \"#utility.yul\":820:939   */\n    tag_33:\n        /* \"#utility.yul\":978:979   */\n      0x00\n        /* \"#utility.yul\":1003:1056   */\n      tag_35\n        /* \"#utility.yul\":1048:1055   */\n      dup6\n        /* \"#utility.yul\":1039:1045   */\n      dup3\n        /* \"#utility.yul\":1028:1037   */\n      dup7\n        /* \"#utility.yul\":1024:1046   */\n      add\n        /* \"#utility.yul\":1003:1056   */\n      tag_18\n      jump\t// in\n    tag_35:\n        /* \"#utility.yul\":993:1056   */\n      swap3\n      pop\n        /* \"#utility.yul\":949:1066   */\n      pop\n        /* \"#utility.yul\":1105:1107   */\n      0x20\n        /* \"#utility.yul\":1131:1184   */\n      tag_36\n        /* \"#utility.yul\":1176:1183   */\n      dup6\n        /* \"#utility.yul\":1167:1173   */\n      dup3\n        /* \"#utility.yul\":1156:1165   */\n      dup7\n        /* \"#utility.yul\":1152:1174   */\n      add\n        /* \"#utility.yul\":1131:1184   */\n      tag_18\n      jump\t// in\n    tag_36:\n        /* \"#utility.yul\":1121:1184   */\n      swap2\n      pop\n        /* \"#utility.yul\":1076:1194   */\n      pop\n        /* \"#utility.yul\":727:1201   */\n      swap3\n      pop\n      swap3\n      swap1\n      pop\n      jump\t// out\n        /* \"#utility.yul\":1207:1297   */\n    tag_19:\n        /* \"#utility.yul\":1241:1248   */\n      0x00\n        /* \"#utility.yul\":1284:1289   */\n      dup2\n        /* \"#utility.yul\":1277:1290   */\n      iszero\n        /* \"#utility.yul\":1270:1291   */\n      iszero\n        /* \"#utility.yul\":1259:1291   */\n      swap1\n      pop\n        /* \"#utility.yul\":1207:1297   */\n      swap2\n      swap1\n      pop\n      jump\t// out\n        /* \"#utility.yul\":1303:1412   */\n    tag_20:\n        /* \"#utility.yul\":1384:1405   */\n      tag_39\n        /* \"#utility.yul\":1399:1404   */\n      dup2\n        /* \"#utility.yul\":1384:1405   */\n      tag_19\n      jump\t// in\n    tag_39:\n        /* \"#utility.yul\":1379:1382   */\n      dup3\n        /* \"#utility.yul\":1372:1406   */\n      mstore\n        /* \"#utility.yul\":1303:1412   */\n      pop\n      pop\n      jump\t// out\n        /* \"#utility.yul\":1418:1628   */\n    tag_9:\n        /* \"#utility.yul\":1505:1509   */\n      0x00\n        /* \"#utility.yul\":1543:1545   */\n      0x20\n        /* \"#utility.yul\":1532:1541   */\n      dup3\n        /* \"#utility.yul\":1528:1546   */\n      add\n        /* \"#utility.yul\":1520:1546   */\n      swap1\n      pop\n        /* \"#utility.yul\":1556:1621   */\n      tag_41\n        /* \"#utility.yul\":1618:1619   */\n      0x00\n        /* \"#utility.yul\":1607:1616   */\n      dup4\n        /* \"#utility.yul\":1603:1620   */\n      add\n        /* \"#utility.yul\":1594:1600   */\n      dup5\n        /* \"#utility.yul\":1556:1621   */\n      tag_20\n      jump\t// in\n    tag_41:\n        /* \"#utility.yul\":1418:1628   */\n      swap3\n      swap2\n      pop\n      pop\n      jump\t// out\n        /* \"#utility.yul\":1634:1752   */\n    tag_21:\n        /* \"#utility.yul\":1721:1745   */\n      tag_43\n        /* \"#utility.yul\":1739:1744   */\n      dup2\n        /* \"#utility.yul\":1721:1745   */\n      tag_16\n      jump\t// in\n    tag_43:\n        /* \"#utility.yul\":1716:1719   */\n      dup3\n        /* \"#utility.yul\":1709:1746   */\n      mstore\n        /* \"#utility.yul\":1634:1752   */\n      pop\n      pop\n      jump\t// out\n        /* \"#utility.yul\":1758:2090   */\n    tag_12:\n        /* \"#utility.yul\":1879:1883   */\n      0x00\n        /* \"#utility.yul\":1917:1919   */\n      0x40\n        /* \"#utility.yul\":1906:1915   */\n      dup3\n        /* \"#utility.yul\":1902:1920   */\n      add\n        /* \"#utility.yul\":1894:1920   */\n      swap1\n      pop\n        /* \"#utility.yul\":1930:2001   */\n      tag_45\n        /* \"#utility.yul\":1998:1999   */\n      0x00\n        /* \"#utility.yul\":1987:1996   */\n      dup4\n        /* \"#utility.yul\":1983:2000   */\n      add\n        /* \"#utility.yul\":1974:1980   */\n      dup6\n        /* \"#utility.yul\":1930:2001   */\n      tag_21\n      jump\t// in\n    tag_45:\n        /* \"#utility.yul\":2011:2083   */\n      tag_46\n        /* \"#utility.yul\":2079:2081   */\n      0x20\n        /* \"#utility.yul\":2068:2077   */\n      dup4\n        /* \"#utility.yul\":2064:2082   */\n      add\n        /* \"#utility.yul\":2055:2061   */\n      dup5\n        /* \"#utility.yul\":2011:2083   */\n      tag_21\n      jump\t// in\n    tag_46:\n        /* \"#utility.yul\":1758:2090   */\n      swap4\n      swap3\n      pop\n      pop\n      pop\n      jump\t// out\n\n    auxdata: 0xa2646970667358221220ffea0f831713e4ad150449d17b0975bfc25b3f5d26cb301a87e078a2167d39e364736f6c634300081a0033\n}\n",
				"bytecode": {
					"linkReferences": {},
					"object": "6080604052348015600e575f80fd5b506101c58061001c5f395ff3fe608060405234801561000f575f80fd5b5060043610610029575f3560e01c8063df79d5841461002d575b5f80fd5b610047600480360381019061004291906100e8565b61005d565b6040516100549190610140565b60405180910390f35b5f7f1c411e9a96e071241c2f21f7726b17ae89e3cab4c78be50e062b03a9fffbbad1838360405161008f929190610168565b60405180910390a16001905092915050565b5f80fd5b5f6dffffffffffffffffffffffffffff82169050919050565b6100c7816100a5565b81146100d1575f80fd5b50565b5f813590506100e2816100be565b92915050565b5f80604083850312156100fe576100fd6100a1565b5b5f61010b858286016100d4565b925050602061011c858286016100d4565b9150509250929050565b5f8115159050919050565b61013a81610126565b82525050565b5f6020820190506101535f830184610131565b92915050565b610162816100a5565b82525050565b5f60408201905061017b5f830185610159565b6101886020830184610159565b939250505056fea2646970667358221220ffea0f831713e4ad150449d17b0975bfc25b3f5d26cb301a87e078a2167d39e364736f6c634300081a0033",
					"opcodes": "PUSH1 0x80 PUSH1 0x40 MSTORE CALLVALUE DUP1 ISZERO PUSH1 0xE JUMPI PUSH0 DUP1 REVERT JUMPDEST POP PUSH2 0x1C5 DUP1 PUSH2 0x1C PUSH0 CODECOPY PUSH0 RETURN INVALID PUSH1 0x80 PUSH1 0x40 MSTORE CALLVALUE DUP1 ISZERO PUSH2 0xF JUMPI PUSH0 DUP1 REVERT JUMPDEST POP PUSH1 0x4 CALLDATASIZE LT PUSH2 0x29 JUMPI PUSH0 CALLDATALOAD PUSH1 0xE0 SHR DUP1 PUSH4 0xDF79D584 EQ PUSH2 0x2D JUMPI JUMPDEST PUSH0 DUP1 REVERT JUMPDEST PUSH2 0x47 PUSH1 0x4 DUP1 CALLDATASIZE SUB DUP2 ADD SWAP1 PUSH2 0x42 SWAP2 SWAP1 PUSH2 0xE8 JUMP JUMPDEST PUSH2 0x5D JUMP JUMPDEST PUSH1 0x40 MLOAD PUSH2 0x54 SWAP2 SWAP1 PUSH2 0x140 JUMP JUMPDEST PUSH1 0x40 MLOAD DUP1 SWAP2 SUB SWAP1 RETURN JUMPDEST PUSH0 PUSH32 0x1C411E9A96E071241C2F21F7726B17AE89E3CAB4C78BE50E062B03A9FFFBBAD1 DUP4 DUP4 PUSH1 0x40 MLOAD PUSH2 0x8F SWAP3 SWAP2 SWAP1 PUSH2 0x168 JUMP JUMPDEST PUSH1 0x40 MLOAD DUP1 SWAP2 SUB SWAP1 LOG1 PUSH1 0x1 SWAP1 POP SWAP3 SWAP2 POP POP JUMP JUMPDEST PUSH0 DUP1 REVERT JUMPDEST PUSH0 PUSH14 0xFFFFFFFFFFFFFFFFFFFFFFFFFFFF DUP3 AND SWAP1 POP SWAP2 SWAP1 POP JUMP JUMPDEST PUSH2 0xC7 DUP2 PUSH2 0xA5 JUMP JUMPDEST DUP2 EQ PUSH2 0xD1 JUMPI PUSH0 DUP1 REVERT JUMPDEST POP JUMP JUMPDEST PUSH0 DUP2 CALLDATALOAD SWAP1 POP PUSH2 0xE2 DUP2 PUSH2 0xBE JUMP JUMPDEST SWAP3 SWAP2 POP POP JUMP JUMPDEST PUSH0 DUP1 PUSH1 0x40 DUP4 DUP6 SUB SLT ISZERO PUSH2 0xFE JUMPI PUSH2 0xFD PUSH2 0xA1 JUMP JUMPDEST JUMPDEST PUSH0 PUSH2 0x10B DUP6 DUP3 DUP7 ADD PUSH2 0xD4 JUMP JUMPDEST SWAP3 POP POP PUSH1 0x20 PUSH2 0x11C DUP6 DUP3 DUP7 ADD PUSH2 0xD4 JUMP JUMPDEST SWAP2 POP POP SWAP3 POP SWAP3 SWAP1 POP JUMP JUMPDEST PUSH0 DUP2 ISZERO ISZERO SWAP1 POP SWAP2 SWAP1 POP JUMP JUMPDEST PUSH2 0x13A DUP2 PUSH2 0x126 JUMP JUMPDEST DUP3 MSTORE POP POP JUMP JUMPDEST PUSH0 PUSH1 0x20 DUP3 ADD SWAP1 POP PUSH2 0x153 PUSH0 DUP4 ADD DUP5 PUSH2 0x131 JUMP JUMPDEST SWAP3 SWAP2 POP POP JUMP JUMPDEST PUSH2 0x162 DUP2 PUSH2 0xA5 JUMP JUMPDEST DUP3 MSTORE POP POP JUMP JUMPDEST PUSH0 PUSH1 0x40 DUP3 ADD SWAP1 POP PUSH2 0x17B PUSH0 DUP4 ADD DUP6 PUSH2 0x159 JUMP JUMPDEST PUSH2 0x188 PUSH1 0x20 DUP4 ADD DUP5 PUSH2 0x159 JUMP JUMPDEST SWAP4 SWAP3 POP POP POP JUMP INVALID LOG2 PUSH5 0x6970667358 0x22 SLT KECCAK256 SELFDESTRUCT 0xEA 0xF DUP4 OR SGT 0xE4 0xAD ISZERO DIV BLOBHASH 0xD1 PUSH28 0x975BFC25B3F5D26CB301A87E078A2167D39E364736F6C634300081A STOP CALLER "
				},
				"gasEstimates": {
					"creation": {
						"codeDepositCost": "90600",
						"executionCost": "139",
						"totalCost": "90739"
					},
					"external": {
						"emitSyncEvent(uint112,uint112)": "infinite"
					}
				},
				"methodIdentifiers": {
					"emitSyncEvent(uint112,uint112)": "df79d584"
				}
			},
			"storageLayout": {
				"storage": [],
				"types": null
			},
			"userdoc": {
				"kind": "user",
				"methods": {},
				"version": 1
			}
		}
	}
}