{
	"src/AaveLiquidationProtectionCallback.sol": {
		"AaveLiquidationProtectionCallback": {
			"abi": [
				{
					"inputs": [
						{
							"internalType": "address",
							"name": "_callback_sender",
							"type": "address"
						},
						{
							"internalType": "address",
							"name": "_collateralToken",
							"type": "address"
						},
						{
							"internalType": "address",
							"name": "_collateralTokenPriceFeed",
							"type": "address"
						}
					],
					"stateMutability": "payable",
					"type": "constructor"
				},
				{
					"anonymous": false,
					"inputs": [
						{
							"indexed": true,
							"internalType": "address",
							"name": "user",
							"type": "address"
						},
						{
							"indexed": true,
							"internalType": "address",
							"name": "lendingPool",
							"type": "address"
						},
						{
							"indexed": false,
							"internalType": "uint256",
							"name": "newHealthFactor",
							"type": "uint256"
						},
						{
							"indexed": false,
							"internalType": "uint256",
							"name": "collateralAdded",
							"type": "uint256"
						}
					],
					"name": "PositionProtected",
					"type": "event"
				},
				{
					"inputs": [],
					"name": "coverDebt",
					"outputs": [],
					"stateMutability": "nonpayable",
					"type": "function"
				},
				{
					"inputs": [
						{
							"internalType": "uint256",
							"name": "amount",
							"type": "uint256"
						}
					],
					"name": "pay",
					"outputs": [],
					"stateMutability": "nonpayable",
					"type": "function"
				},
				{
					"inputs": [
						{
							"internalType": "address",
							"name": "",
							"type": "address"
						},
						{
							"internalType": "address",
							"name": "user",
							"type": "address"
						},
						{
							"internalType": "address",
							"name": "lendingPool",
							"type": "address"
						},
						{
							"internalType": "uint256",
							"name": "targetHealthFactor",
							"type": "uint256"
						}
					],
					"name": "protectPosition",
					"outputs": [],
					"stateMutability": "nonpayable",
					"type": "function"
				},
				{
					"inputs": [
						{
							"internalType": "address",
							"name": "newCollateralToken",
							"type": "address"
						}
					],
					"name": "setCollateralToken",
					"outputs": [],
					"stateMutability": "nonpayable",
					"type": "function"
				},
				{
					"stateMutability": "payable",
					"type": "receive"
				}
			],
			"devdoc": {
				"kind": "dev",
				"methods": {},
				"version": 1
			},
			"evm": {
				"assembly": "    /* \"src/AaveLiquidationProtectionCallback.sol\":932:6716  contract AaveLiquidationProtectionCallback is AbstractCallback {... */\n  mstore(0x40, 0x80)\n    /* \"src/AaveLiquidationProtectionCallback.sol\":1443:1485  0x694AA1769357215DE4FAC081bf1f309aDC325306 */\n  0x694aa1769357215de4fac081bf1f309adc325306\n    /* \"src/AaveLiquidationProtectionCallback.sol\":1375:1486  AggregatorV3Interface internal ETHPriceFeed = AggregatorV3Interface(0x694AA1769357215DE4FAC081bf1f309aDC325306) */\n  0x06\n  exp(0x0100, 0x00)\n  dup2\n  sload\n  dup2\n  0xffffffffffffffffffffffffffffffffffffffff\n  mul\n  not\n  and\n  swap1\n  dup4\n  0xffffffffffffffffffffffffffffffffffffffff\n  and\n  mul\n  or\n  swap1\n  sstore\n  pop\n    /* \"src/AaveLiquidationProtectionCallback.sol\":1497:1833  constructor(... */\n  mload(0x40)\n  sub(codesize, bytecodeSize)\n  dup1\n  bytecodeSize\n  dup4\n  codecopy\n  dup2\n  dup2\n  add\n  0x40\n  mstore\n  dup2\n  add\n  swap1\n  tag_1\n  swap2\n  swap1\n  tag_2\n  jump\t// in\ntag_1:\n    /* \"src/AaveLiquidationProtectionCallback.sol\":1643:1659  _callback_sender */\n  dup3\n    /* \"lib/reactive-lib/src/abstract-base/AbstractCallback.sol\":279:289  msg.sender */\n  caller\n    /* \"lib/reactive-lib/src/abstract-base/AbstractCallback.sol\":270:276  rvm_id */\n  0x02\n  0x00\n    /* \"lib/reactive-lib/src/abstract-base/AbstractCallback.sol\":270:289  rvm_id = msg.sender */\n  0x0100\n  exp\n  dup2\n  sload\n  dup2\n  0xffffffffffffffffffffffffffffffffffffffff\n  mul\n  not\n  and\n  swap1\n  dup4\n  0xffffffffffffffffffffffffffffffffffffffff\n  and\n  mul\n  or\n  swap1\n  sstore\n  pop\n    /* \"lib/reactive-lib/src/abstract-base/AbstractCallback.sol\":325:341  _callback_sender */\n  dup1\n    /* \"lib/reactive-lib/src/abstract-base/AbstractCallback.sol\":299:305  vendor */\n  0x00\n  dup1\n    /* \"lib/reactive-lib/src/abstract-base/AbstractCallback.sol\":299:343  vendor = IPayable(payable(_callback_sender)) */\n  0x0100\n  exp\n  dup2\n  sload\n  dup2\n  0xffffffffffffffffffffffffffffffffffffffff\n  mul\n  not\n  and\n  swap1\n  dup4\n  0xffffffffffffffffffffffffffffffffffffffff\n  and\n  mul\n  or\n  swap1\n  sstore\n  pop\n    /* \"lib/reactive-lib/src/abstract-base/AbstractCallback.sol\":353:390  addAuthorizedSender(_callback_sender) */\n  tag_8\n    /* \"lib/reactive-lib/src/abstract-base/AbstractCallback.sol\":373:389  _callback_sender */\n  dup2\n    /* \"lib/reactive-lib/src/abstract-base/AbstractCallback.sol\":353:372  addAuthorizedSender */\n  shl(0x20, tag_9)\n    /* \"lib/reactive-lib/src/abstract-base/AbstractCallback.sol\":353:390  addAuthorizedSender(_callback_sender) */\n  0x20\n  shr\n  jump\t// in\ntag_8:\n    /* \"lib/reactive-lib/src/abstract-base/AbstractCallback.sol\":222:397  constructor(address _callback_sender) {... */\n  pop\n    /* \"src/AaveLiquidationProtectionCallback.sol\":1697:1713  _collateralToken */\n  dup2\n    /* \"src/AaveLiquidationProtectionCallback.sol\":1679:1694  collateralToken */\n  0x03\n  0x00\n    /* \"src/AaveLiquidationProtectionCallback.sol\":1679:1713  collateralToken = _collateralToken */\n  0x0100\n  exp\n  dup2\n  sload\n  dup2\n  0xffffffffffffffffffffffffffffffffffffffff\n  mul\n  not\n  and\n  swap1\n  dup4\n  0xffffffffffffffffffffffffffffffffffffffff\n  and\n  mul\n  or\n  swap1\n  sstore\n  pop\n    /* \"src/AaveLiquidationProtectionCallback.sol\":1772:1797  _collateralTokenPriceFeed */\n  dup1\n    /* \"src/AaveLiquidationProtectionCallback.sol\":1723:1747  collateralTokenPriceFeed */\n  0x05\n  0x00\n    /* \"src/AaveLiquidationProtectionCallback.sol\":1723:1798  collateralTokenPriceFeed = AggregatorV3Interface(_collateralTokenPriceFeed) */\n  0x0100\n  exp\n  dup2\n  sload\n  dup2\n  0xffffffffffffffffffffffffffffffffffffffff\n  mul\n  not\n  and\n  swap1\n  dup4\n  0xffffffffffffffffffffffffffffffffffffffff\n  and\n  mul\n  or\n  swap1\n  sstore\n  pop\n    /* \"src/AaveLiquidationProtectionCallback.sol\":1816:1826  msg.sender */\n  caller\n    /* \"src/AaveLiquidationProtectionCallback.sol\":1808:1813  owner */\n  0x04\n  0x00\n    /* \"src/AaveLiquidationProtectionCallback.sol\":1808:1826  owner = msg.sender */\n  0x0100\n  exp\n  dup2\n  sload\n  dup2\n  0xffffffffffffffffffffffffffffffffffffffff\n  mul\n  not\n  and\n  swap1\n  dup4\n  0xffffffffffffffffffffffffffffffffffffffff\n  and\n  mul\n  or\n  swap1\n  sstore\n  pop\n    /* \"src/AaveLiquidationProtectionCallback.sol\":1497:1833  constructor(... */\n  pop\n  pop\n  pop\n    /* \"src/AaveLiquidationProtectionCallback.sol\":932:6716  contract AaveLiquidationProtectionCallback is AbstractCallback {... */\n  jump(tag_11)\n    /* \"lib/reactive-lib/src/abstract-base/AbstractPayer.sol\":1022:1115  function addAuthorizedSender(address sender) internal {... */\ntag_9:\n    /* \"lib/reactive-lib/src/abstract-base/AbstractPayer.sol\":1104:1108  true */\n  0x01\n    /* \"lib/reactive-lib/src/abstract-base/AbstractPayer.sol\":1086:1093  senders */\n  dup1\n    /* \"lib/reactive-lib/src/abstract-base/AbstractPayer.sol\":1086:1101  senders[sender] */\n  0x00\n    /* \"lib/reactive-lib/src/abstract-base/AbstractPayer.sol\":1094:1100  sender */\n  dup4\n    /* \"lib/reactive-lib/src/abstract-base/AbstractPayer.sol\":1086:1101  senders[sender] */\n  0xffffffffffffffffffffffffffffffffffffffff\n  and\n  0xffffffffffffffffffffffffffffffffffffffff\n  and\n  dup2\n  mstore\n  0x20\n  add\n  swap1\n  dup2\n  mstore\n  0x20\n  add\n  0x00\n  keccak256\n  0x00\n    /* \"lib/reactive-lib/src/abstract-base/AbstractPayer.sol\":1086:1108  senders[sender] = true */\n  0x0100\n  exp\n  dup2\n  sload\n  dup2\n  0xff\n  mul\n  not\n  and\n  swap1\n  dup4\n  iszero\n  iszero\n  mul\n  or\n  swap1\n  sstore\n  pop\n    /* \"lib/reactive-lib/src/abstract-base/AbstractPayer.sol\":1022:1115  function addAuthorizedSender(address sender) internal {... */\n  pop\n  jump\t// out\n    /* \"#utility.yul\":88:205   */\ntag_14:\n    /* \"#utility.yul\":197:198   */\n  0x00\n    /* \"#utility.yul\":194:195   */\n  dup1\n    /* \"#utility.yul\":187:199   */\n  revert\n    /* \"#utility.yul\":334:460   */\ntag_16:\n    /* \"#utility.yul\":371:378   */\n  0x00\n    /* \"#utility.yul\":411:453   */\n  0xffffffffffffffffffffffffffffffffffffffff\n    /* \"#utility.yul\":404:409   */\n  dup3\n    /* \"#utility.yul\":400:454   */\n  and\n    /* \"#utility.yul\":389:454   */\n  swap1\n  pop\n    /* \"#utility.yul\":334:460   */\n  swap2\n  swap1\n  pop\n  jump\t// out\n    /* \"#utility.yul\":466:562   */\ntag_17:\n    /* \"#utility.yul\":503:510   */\n  0x00\n    /* \"#utility.yul\":532:556   */\n  tag_26\n    /* \"#utility.yul\":550:555   */\n  dup3\n    /* \"#utility.yul\":532:556   */\n  tag_16\n  jump\t// in\ntag_26:\n    /* \"#utility.yul\":521:556   */\n  swap1\n  pop\n    /* \"#utility.yul\":466:562   */\n  swap2\n  swap1\n  pop\n  jump\t// out\n    /* \"#utility.yul\":568:690   */\ntag_18:\n    /* \"#utility.yul\":641:665   */\n  tag_28\n    /* \"#utility.yul\":659:664   */\n  dup2\n    /* \"#utility.yul\":641:665   */\n  tag_17\n  jump\t// in\ntag_28:\n    /* \"#utility.yul\":634:639   */\n  dup2\n    /* \"#utility.yul\":631:666   */\n  eq\n    /* \"#utility.yul\":621:684   */\n  tag_29\n  jumpi\n    /* \"#utility.yul\":680:681   */\n  0x00\n    /* \"#utility.yul\":677:678   */\n  dup1\n    /* \"#utility.yul\":670:682   */\n  revert\n    /* \"#utility.yul\":621:684   */\ntag_29:\n    /* \"#utility.yul\":568:690   */\n  pop\n  jump\t// out\n    /* \"#utility.yul\":696:839   */\ntag_19:\n    /* \"#utility.yul\":753:758   */\n  0x00\n    /* \"#utility.yul\":784:790   */\n  dup2\n    /* \"#utility.yul\":778:791   */\n  mload\n    /* \"#utility.yul\":769:791   */\n  swap1\n  pop\n    /* \"#utility.yul\":800:833   */\n  tag_31\n    /* \"#utility.yul\":827:832   */\n  dup2\n    /* \"#utility.yul\":800:833   */\n  tag_18\n  jump\t// in\ntag_31:\n    /* \"#utility.yul\":696:839   */\n  swap3\n  swap2\n  pop\n  pop\n  jump\t// out\n    /* \"#utility.yul\":845:1508   */\ntag_2:\n    /* \"#utility.yul\":933:939   */\n  0x00\n    /* \"#utility.yul\":941:947   */\n  dup1\n    /* \"#utility.yul\":949:955   */\n  0x00\n    /* \"#utility.yul\":998:1000   */\n  0x60\n    /* \"#utility.yul\":986:995   */\n  dup5\n    /* \"#utility.yul\":977:984   */\n  dup7\n    /* \"#utility.yul\":973:996   */\n  sub\n    /* \"#utility.yul\":969:1001   */\n  slt\n    /* \"#utility.yul\":966:1085   */\n  iszero\n  tag_33\n  jumpi\n    /* \"#utility.yul\":1004:1083   */\n  tag_34\n  tag_14\n  jump\t// in\ntag_34:\n    /* \"#utility.yul\":966:1085   */\ntag_33:\n    /* \"#utility.yul\":1124:1125   */\n  0x00\n    /* \"#utility.yul\":1149:1213   */\n  tag_35\n    /* \"#utility.yul\":1205:1212   */\n  dup7\n    /* \"#utility.yul\":1196:1202   */\n  dup3\n    /* \"#utility.yul\":1185:1194   */\n  dup8\n    /* \"#utility.yul\":1181:1203   */\n  add\n    /* \"#utility.yul\":1149:1213   */\n  tag_19\n  jump\t// in\ntag_35:\n    /* \"#utility.yul\":1139:1213   */\n  swap4\n  pop\n    /* \"#utility.yul\":1095:1223   */\n  pop\n    /* \"#utility.yul\":1262:1264   */\n  0x20\n    /* \"#utility.yul\":1288:1352   */\n  tag_36\n    /* \"#utility.yul\":1344:1351   */\n  dup7\n    /* \"#utility.yul\":1335:1341   */\n  dup3\n    /* \"#utility.yul\":1324:1333   */\n  dup8\n    /* \"#utility.yul\":1320:1342   */\n  add\n    /* \"#utility.yul\":1288:1352   */\n  tag_19\n  jump\t// in\ntag_36:\n    /* \"#utility.yul\":1278:1352   */\n  swap3\n  pop\n    /* \"#utility.yul\":1233:1362   */\n  pop\n    /* \"#utility.yul\":1401:1403   */\n  0x40\n    /* \"#utility.yul\":1427:1491   */\n  tag_37\n    /* \"#utility.yul\":1483:1490   */\n  dup7\n    /* \"#utility.yul\":1474:1480   */\n  dup3\n    /* \"#utility.yul\":1463:1472   */\n  dup8\n    /* \"#utility.yul\":1459:1481   */\n  add\n    /* \"#utility.yul\":1427:1491   */\n  tag_19\n  jump\t// in\ntag_37:\n    /* \"#utility.yul\":1417:1491   */\n  swap2\n  pop\n    /* \"#utility.yul\":1372:1501   */\n  pop\n    /* \"#utility.yul\":845:1508   */\n  swap3\n  pop\n  swap3\n  pop\n  swap3\n  jump\t// out\n    /* \"src/AaveLiquidationProtectionCallback.sol\":932:6716  contract AaveLiquidationProtectionCallback is AbstractCallback {... */\ntag_11:\n  dataSize(sub_0)\n  dup1\n  dataOffset(sub_0)\n  0x00\n  codecopy\n  0x00\n  return\nstop\n\nsub_0: assembly {\n        /* \"src/AaveLiquidationProtectionCallback.sol\":932:6716  contract AaveLiquidationProtectionCallback is AbstractCallback {... */\n      mstore(0x40, 0x80)\n      jumpi(tag_1, lt(calldatasize, 0x04))\n      shr(0xe0, calldataload(0x00))\n      dup1\n      0x666181a9\n      eq\n      tag_3\n      jumpi\n      dup1\n      0x7a90b990\n      eq\n      tag_4\n      jumpi\n      dup1\n      0xc290d691\n      eq\n      tag_5\n      jumpi\n      dup1\n      0xf3e12267\n      eq\n      tag_6\n      jumpi\n      jump(tag_2)\n    tag_1:\n      jumpi(tag_2, calldatasize)\n      stop\n    tag_2:\n      0x00\n      dup1\n      revert\n        /* \"src/AaveLiquidationProtectionCallback.sol\":6586:6714  function setCollateralToken(address newCollateralToken) external onlyOwner {... */\n    tag_3:\n      callvalue\n      dup1\n      iszero\n      tag_9\n      jumpi\n      0x00\n      dup1\n      revert\n    tag_9:\n      pop\n      tag_10\n      0x04\n      dup1\n      calldatasize\n      sub\n      dup2\n      add\n      swap1\n      tag_11\n      swap2\n      swap1\n      tag_12\n      jump\t// in\n    tag_11:\n      tag_13\n      jump\t// in\n    tag_10:\n      stop\n        /* \"lib/reactive-lib/src/abstract-base/AbstractPayer.sol\":567:696  function coverDebt() external {... */\n    tag_4:\n      callvalue\n      dup1\n      iszero\n      tag_14\n      jumpi\n      0x00\n      dup1\n      revert\n    tag_14:\n      pop\n      tag_15\n      tag_16\n      jump\t// in\n    tag_15:\n      stop\n        /* \"lib/reactive-lib/src/abstract-base/AbstractPayer.sol\":452:561  function pay(uint256 amount) external authorizedSenderOnly {... */\n    tag_5:\n      callvalue\n      dup1\n      iszero\n      tag_17\n      jumpi\n      0x00\n      dup1\n      revert\n    tag_17:\n      pop\n      tag_18\n      0x04\n      dup1\n      calldatasize\n      sub\n      dup2\n      add\n      swap1\n      tag_19\n      swap2\n      swap1\n      tag_20\n      jump\t// in\n    tag_19:\n      tag_21\n      jump\t// in\n    tag_18:\n      stop\n        /* \"src/AaveLiquidationProtectionCallback.sol\":1997:3751  function protectPosition(... */\n    tag_6:\n      callvalue\n      dup1\n      iszero\n      tag_22\n      jumpi\n      0x00\n      dup1\n      revert\n    tag_22:\n      pop\n      tag_23\n      0x04\n      dup1\n      calldatasize\n      sub\n      dup2\n      add\n      swap1\n      tag_24\n      swap2\n      swap1\n      tag_25\n      jump\t// in\n    tag_24:\n      tag_26\n      jump\t// in\n    tag_23:\n      stop\n        /* \"src/AaveLiquidationProtectionCallback.sol\":6586:6714  function setCollateralToken(address newCollateralToken) external onlyOwner {... */\n    tag_13:\n        /* \"src/AaveLiquidationProtectionCallback.sol\":1896:1901  owner */\n      0x04\n      0x00\n      swap1\n      sload\n      swap1\n      0x0100\n      exp\n      swap1\n      div\n      0xffffffffffffffffffffffffffffffffffffffff\n      and\n        /* \"src/AaveLiquidationProtectionCallback.sol\":1882:1901  msg.sender == owner */\n      0xffffffffffffffffffffffffffffffffffffffff\n      and\n        /* \"src/AaveLiquidationProtectionCallback.sol\":1882:1892  msg.sender */\n      caller\n        /* \"src/AaveLiquidationProtectionCallback.sol\":1882:1901  msg.sender == owner */\n      0xffffffffffffffffffffffffffffffffffffffff\n      and\n      eq\n        /* \"src/AaveLiquidationProtectionCallback.sol\":1874:1939  require(msg.sender == owner, \"Only owner can call this function\") */\n      tag_28\n      jumpi\n      mload(0x40)\n      0x08c379a000000000000000000000000000000000000000000000000000000000\n      dup2\n      mstore\n      0x04\n      add\n      tag_29\n      swap1\n      tag_30\n      jump\t// in\n    tag_29:\n      mload(0x40)\n      dup1\n      swap2\n      sub\n      swap1\n      revert\n    tag_28:\n        /* \"src/AaveLiquidationProtectionCallback.sol\":6689:6707  newCollateralToken */\n      dup1\n        /* \"src/AaveLiquidationProtectionCallback.sol\":6671:6686  collateralToken */\n      0x03\n      0x00\n        /* \"src/AaveLiquidationProtectionCallback.sol\":6671:6707  collateralToken = newCollateralToken */\n      0x0100\n      exp\n      dup2\n      sload\n      dup2\n      0xffffffffffffffffffffffffffffffffffffffff\n      mul\n      not\n      and\n      swap1\n      dup4\n      0xffffffffffffffffffffffffffffffffffffffff\n      and\n      mul\n      or\n      swap1\n      sstore\n      pop\n        /* \"src/AaveLiquidationProtectionCallback.sol\":6586:6714  function setCollateralToken(address newCollateralToken) external onlyOwner {... */\n      pop\n      jump\t// out\n        /* \"lib/reactive-lib/src/abstract-base/AbstractPayer.sol\":567:696  function coverDebt() external {... */\n    tag_16:\n        /* \"lib/reactive-lib/src/abstract-base/AbstractPayer.sol\":607:621  uint256 amount */\n      0x00\n        /* \"lib/reactive-lib/src/abstract-base/AbstractPayer.sol\":624:630  vendor */\n      dup1\n      0x00\n      swap1\n      sload\n      swap1\n      0x0100\n      exp\n      swap1\n      div\n      0xffffffffffffffffffffffffffffffffffffffff\n      and\n        /* \"lib/reactive-lib/src/abstract-base/AbstractPayer.sol\":624:635  vendor.debt */\n      0xffffffffffffffffffffffffffffffffffffffff\n      and\n      0x9b6c56ec\n        /* \"lib/reactive-lib/src/abstract-base/AbstractPayer.sol\":644:648  this */\n      address\n        /* \"lib/reactive-lib/src/abstract-base/AbstractPayer.sol\":624:650  vendor.debt(address(this)) */\n      mload(0x40)\n      dup3\n      0xffffffff\n      and\n      0xe0\n      shl\n      dup2\n      mstore\n      0x04\n      add\n      tag_33\n      swap2\n      swap1\n      tag_34\n      jump\t// in\n    tag_33:\n      0x20\n      mload(0x40)\n      dup1\n      dup4\n      sub\n      dup2\n      dup7\n      gas\n      staticcall\n      iszero\n      dup1\n      iszero\n      tag_36\n      jumpi\n      returndatasize\n      0x00\n      dup1\n      returndatacopy\n      revert(0x00, returndatasize)\n    tag_36:\n      pop\n      pop\n      pop\n      pop\n      mload(0x40)\n      returndatasize\n      not(0x1f)\n      0x1f\n      dup3\n      add\n      and\n      dup3\n      add\n      dup1\n      0x40\n      mstore\n      pop\n      dup2\n      add\n      swap1\n      tag_37\n      swap2\n      swap1\n      tag_38\n      jump\t// in\n    tag_37:\n        /* \"lib/reactive-lib/src/abstract-base/AbstractPayer.sol\":607:650  uint256 amount = vendor.debt(address(this)) */\n      swap1\n      pop\n        /* \"lib/reactive-lib/src/abstract-base/AbstractPayer.sol\":660:689  _pay(payable(vendor), amount) */\n      tag_39\n        /* \"lib/reactive-lib/src/abstract-base/AbstractPayer.sol\":673:679  vendor */\n      0x00\n      dup1\n      sload\n      swap1\n      0x0100\n      exp\n      swap1\n      div\n      0xffffffffffffffffffffffffffffffffffffffff\n      and\n        /* \"lib/reactive-lib/src/abstract-base/AbstractPayer.sol\":682:688  amount */\n      dup3\n        /* \"lib/reactive-lib/src/abstract-base/AbstractPayer.sol\":660:664  _pay */\n      tag_40\n        /* \"lib/reactive-lib/src/abstract-base/AbstractPayer.sol\":660:689  _pay(payable(vendor), amount) */\n      jump\t// in\n    tag_39:\n        /* \"lib/reactive-lib/src/abstract-base/AbstractPayer.sol\":597:696  {... */\n      pop\n        /* \"lib/reactive-lib/src/abstract-base/AbstractPayer.sol\":567:696  function coverDebt() external {... */\n      jump\t// out\n        /* \"lib/reactive-lib/src/abstract-base/AbstractPayer.sol\":452:561  function pay(uint256 amount) external authorizedSenderOnly {... */\n    tag_21:\n        /* \"lib/reactive-lib/src/abstract-base/AbstractPayer.sol\":382:389  senders */\n      0x01\n        /* \"lib/reactive-lib/src/abstract-base/AbstractPayer.sol\":382:401  senders[msg.sender] */\n      0x00\n        /* \"lib/reactive-lib/src/abstract-base/AbstractPayer.sol\":390:400  msg.sender */\n      caller\n        /* \"lib/reactive-lib/src/abstract-base/AbstractPayer.sol\":382:401  senders[msg.sender] */\n      0xffffffffffffffffffffffffffffffffffffffff\n      and\n      0xffffffffffffffffffffffffffffffffffffffff\n      and\n      dup2\n      mstore\n      0x20\n      add\n      swap1\n      dup2\n      mstore\n      0x20\n      add\n      0x00\n      keccak256\n      0x00\n      swap1\n      sload\n      swap1\n      0x0100\n      exp\n      swap1\n      div\n      0xff\n      and\n        /* \"lib/reactive-lib/src/abstract-base/AbstractPayer.sol\":374:428  require(senders[msg.sender], 'Authorized sender only') */\n      tag_42\n      jumpi\n      mload(0x40)\n      0x08c379a000000000000000000000000000000000000000000000000000000000\n      dup2\n      mstore\n      0x04\n      add\n      tag_43\n      swap1\n      tag_44\n      jump\t// in\n    tag_43:\n      mload(0x40)\n      dup1\n      swap2\n      sub\n      swap1\n      revert\n    tag_42:\n        /* \"lib/reactive-lib/src/abstract-base/AbstractPayer.sol\":521:554  _pay(payable(msg.sender), amount) */\n      tag_46\n        /* \"lib/reactive-lib/src/abstract-base/AbstractPayer.sol\":534:544  msg.sender */\n      caller\n        /* \"lib/reactive-lib/src/abstract-base/AbstractPayer.sol\":547:553  amount */\n      dup3\n        /* \"lib/reactive-lib/src/abstract-base/AbstractPayer.sol\":521:525  _pay */\n      tag_40\n        /* \"lib/reactive-lib/src/abstract-base/AbstractPayer.sol\":521:554  _pay(payable(msg.sender), amount) */\n      jump\t// in\n    tag_46:\n        /* \"lib/reactive-lib/src/abstract-base/AbstractPayer.sol\":452:561  function pay(uint256 amount) external authorizedSenderOnly {... */\n      pop\n      jump\t// out\n        /* \"src/AaveLiquidationProtectionCallback.sol\":1997:3751  function protectPosition(... */\n    tag_26:\n        /* \"lib/reactive-lib/src/abstract-base/AbstractPayer.sol\":382:389  senders */\n      0x01\n        /* \"lib/reactive-lib/src/abstract-base/AbstractPayer.sol\":382:401  senders[msg.sender] */\n      0x00\n        /* \"lib/reactive-lib/src/abstract-base/AbstractPayer.sol\":390:400  msg.sender */\n      caller\n        /* \"lib/reactive-lib/src/abstract-base/AbstractPayer.sol\":382:401  senders[msg.sender] */\n      0xffffffffffffffffffffffffffffffffffffffff\n      and\n      0xffffffffffffffffffffffffffffffffffffffff\n      and\n      dup2\n      mstore\n      0x20\n      add\n      swap1\n      dup2\n      mstore\n      0x20\n      add\n      0x00\n      keccak256\n      0x00\n      swap1\n      sload\n      swap1\n      0x0100\n      exp\n      swap1\n      div\n      0xff\n      and\n        /* \"lib/reactive-lib/src/abstract-base/AbstractPayer.sol\":374:428  require(senders[msg.sender], 'Authorized sender only') */\n      tag_48\n      jumpi\n      mload(0x40)\n      0x08c379a000000000000000000000000000000000000000000000000000000000\n      dup2\n      mstore\n      0x04\n      add\n      tag_49\n      swap1\n      tag_44\n      jump\t// in\n    tag_49:\n      mload(0x40)\n      dup1\n      swap2\n      sub\n      swap1\n      revert\n    tag_48:\n        /* \"src/AaveLiquidationProtectionCallback.sol\":2247:2271  uint256 collateralNeeded */\n      0x00\n        /* \"src/AaveLiquidationProtectionCallback.sol\":2274:2386  calculateCollateralNeeded(... */\n      tag_51\n        /* \"src/AaveLiquidationProtectionCallback.sol\":2313:2317  user */\n      dup5\n        /* \"src/AaveLiquidationProtectionCallback.sol\":2332:2343  lendingPool */\n      dup5\n        /* \"src/AaveLiquidationProtectionCallback.sol\":2358:2376  targetHealthFactor */\n      dup5\n        /* \"src/AaveLiquidationProtectionCallback.sol\":2274:2299  calculateCollateralNeeded */\n      tag_52\n        /* \"src/AaveLiquidationProtectionCallback.sol\":2274:2386  calculateCollateralNeeded(... */\n      jump\t// in\n    tag_51:\n        /* \"src/AaveLiquidationProtectionCallback.sol\":2247:2386  uint256 collateralNeeded = calculateCollateralNeeded(... */\n      swap1\n      pop\n        /* \"src/AaveLiquidationProtectionCallback.sol\":2420:2421  0 */\n      0x00\n        /* \"src/AaveLiquidationProtectionCallback.sol\":2401:2417  collateralNeeded */\n      dup2\n        /* \"src/AaveLiquidationProtectionCallback.sol\":2401:2421  collateralNeeded > 0 */\n      gt\n        /* \"src/AaveLiquidationProtectionCallback.sol\":2397:3424  if (collateralNeeded > 0) {... */\n      iszero\n      tag_53\n      jumpi\n        /* \"src/AaveLiquidationProtectionCallback.sol\":2476:2498  uint256 approvedAmount */\n      0x00\n        /* \"src/AaveLiquidationProtectionCallback.sol\":2508:2523  collateralToken */\n      0x03\n      0x00\n      swap1\n      sload\n      swap1\n      0x0100\n      exp\n      swap1\n      div\n      0xffffffffffffffffffffffffffffffffffffffff\n      and\n        /* \"src/AaveLiquidationProtectionCallback.sol\":2501:2534  IERC20(collateralToken).allowance */\n      0xffffffffffffffffffffffffffffffffffffffff\n      and\n      0xdd62ed3e\n        /* \"src/AaveLiquidationProtectionCallback.sol\":2535:2539  user */\n      dup7\n        /* \"src/AaveLiquidationProtectionCallback.sol\":2549:2553  this */\n      address\n        /* \"src/AaveLiquidationProtectionCallback.sol\":2501:2555  IERC20(collateralToken).allowance(user, address(this)) */\n      mload(0x40)\n      dup4\n      0xffffffff\n      and\n      0xe0\n      shl\n      dup2\n      mstore\n      0x04\n      add\n      tag_54\n      swap3\n      swap2\n      swap1\n      tag_55\n      jump\t// in\n    tag_54:\n      0x20\n      mload(0x40)\n      dup1\n      dup4\n      sub\n      dup2\n      dup7\n      gas\n      staticcall\n      iszero\n      dup1\n      iszero\n      tag_57\n      jumpi\n      returndatasize\n      0x00\n      dup1\n      returndatacopy\n      revert(0x00, returndatasize)\n    tag_57:\n      pop\n      pop\n      pop\n      pop\n      mload(0x40)\n      returndatasize\n      not(0x1f)\n      0x1f\n      dup3\n      add\n      and\n      dup3\n      add\n      dup1\n      0x40\n      mstore\n      pop\n      dup2\n      add\n      swap1\n      tag_58\n      swap2\n      swap1\n      tag_38\n      jump\t// in\n    tag_58:\n        /* \"src/AaveLiquidationProtectionCallback.sol\":2476:2555  uint256 approvedAmount = IERC20(collateralToken).allowance(user, address(this)) */\n      swap1\n      pop\n        /* \"src/AaveLiquidationProtectionCallback.sol\":2595:2611  collateralNeeded */\n      dup2\n        /* \"src/AaveLiquidationProtectionCallback.sol\":2577:2591  approvedAmount */\n      dup2\n        /* \"src/AaveLiquidationProtectionCallback.sol\":2577:2611  approvedAmount >= collateralNeeded */\n      lt\n      iszero\n        /* \"src/AaveLiquidationProtectionCallback.sol\":2569:2648  require(approvedAmount >= collateralNeeded, \"Insufficient approved collateral\") */\n      tag_59\n      jumpi\n      mload(0x40)\n      0x08c379a000000000000000000000000000000000000000000000000000000000\n      dup2\n      mstore\n      0x04\n      add\n      tag_60\n      swap1\n      tag_61\n      jump\t// in\n    tag_60:\n      mload(0x40)\n      dup1\n      swap2\n      sub\n      swap1\n      revert\n    tag_59:\n        /* \"src/AaveLiquidationProtectionCallback.sol\":2713:2737  uint256 availableBalance */\n      0x00\n        /* \"src/AaveLiquidationProtectionCallback.sol\":2747:2762  collateralToken */\n      0x03\n      0x00\n      swap1\n      sload\n      swap1\n      0x0100\n      exp\n      swap1\n      div\n      0xffffffffffffffffffffffffffffffffffffffff\n      and\n        /* \"src/AaveLiquidationProtectionCallback.sol\":2740:2773  IERC20(collateralToken).balanceOf */\n      0xffffffffffffffffffffffffffffffffffffffff\n      and\n      0x70a08231\n        /* \"src/AaveLiquidationProtectionCallback.sol\":2782:2786  this */\n      address\n        /* \"src/AaveLiquidationProtectionCallback.sol\":2740:2788  IERC20(collateralToken).balanceOf(address(this)) */\n      mload(0x40)\n      dup3\n      0xffffffff\n      and\n      0xe0\n      shl\n      dup2\n      mstore\n      0x04\n      add\n      tag_62\n      swap2\n      swap1\n      tag_34\n      jump\t// in\n    tag_62:\n      0x20\n      mload(0x40)\n      dup1\n      dup4\n      sub\n      dup2\n      dup7\n      gas\n      staticcall\n      iszero\n      dup1\n      iszero\n      tag_64\n      jumpi\n      returndatasize\n      0x00\n      dup1\n      returndatacopy\n      revert(0x00, returndatasize)\n    tag_64:\n      pop\n      pop\n      pop\n      pop\n      mload(0x40)\n      returndatasize\n      not(0x1f)\n      0x1f\n      dup3\n      add\n      and\n      dup3\n      add\n      dup1\n      0x40\n      mstore\n      pop\n      dup2\n      add\n      swap1\n      tag_65\n      swap2\n      swap1\n      tag_38\n      jump\t// in\n    tag_65:\n        /* \"src/AaveLiquidationProtectionCallback.sol\":2713:2788  uint256 availableBalance = IERC20(collateralToken).balanceOf(address(this)) */\n      swap1\n      pop\n        /* \"src/AaveLiquidationProtectionCallback.sol\":2830:2846  collateralNeeded */\n      dup3\n        /* \"src/AaveLiquidationProtectionCallback.sol\":2810:2826  availableBalance */\n      dup2\n        /* \"src/AaveLiquidationProtectionCallback.sol\":2810:2846  availableBalance >= collateralNeeded */\n      lt\n      iszero\n        /* \"src/AaveLiquidationProtectionCallback.sol\":2802:2884  require(availableBalance >= collateralNeeded, \"Insufficient collateral available\") */\n      tag_66\n      jumpi\n      mload(0x40)\n      0x08c379a000000000000000000000000000000000000000000000000000000000\n      dup2\n      mstore\n      0x04\n      add\n      tag_67\n      swap1\n      tag_68\n      jump\t// in\n    tag_67:\n      mload(0x40)\n      dup1\n      swap2\n      sub\n      swap1\n      revert\n    tag_66:\n        /* \"src/AaveLiquidationProtectionCallback.sol\":2957:2972  collateralToken */\n      0x03\n      0x00\n      swap1\n      sload\n      swap1\n      0x0100\n      exp\n      swap1\n      div\n      0xffffffffffffffffffffffffffffffffffffffff\n      and\n        /* \"src/AaveLiquidationProtectionCallback.sol\":2950:2986  IERC20(collateralToken).transferFrom */\n      0xffffffffffffffffffffffffffffffffffffffff\n      and\n      0x23b872dd\n        /* \"src/AaveLiquidationProtectionCallback.sol\":2987:2991  user */\n      dup8\n        /* \"src/AaveLiquidationProtectionCallback.sol\":3001:3005  this */\n      address\n        /* \"src/AaveLiquidationProtectionCallback.sol\":3008:3024  collateralNeeded */\n      dup7\n        /* \"src/AaveLiquidationProtectionCallback.sol\":2950:3025  IERC20(collateralToken).transferFrom(user, address(this), collateralNeeded) */\n      mload(0x40)\n      dup5\n      0xffffffff\n      and\n      0xe0\n      shl\n      dup2\n      mstore\n      0x04\n      add\n      tag_69\n      swap4\n      swap3\n      swap2\n      swap1\n      tag_70\n      jump\t// in\n    tag_69:\n      0x20\n      mload(0x40)\n      dup1\n      dup4\n      sub\n      dup2\n      0x00\n      dup8\n      gas\n      call\n      iszero\n      dup1\n      iszero\n      tag_72\n      jumpi\n      returndatasize\n      0x00\n      dup1\n      returndatacopy\n      revert(0x00, returndatasize)\n    tag_72:\n      pop\n      pop\n      pop\n      pop\n      mload(0x40)\n      returndatasize\n      not(0x1f)\n      0x1f\n      dup3\n      add\n      and\n      dup3\n      add\n      dup1\n      0x40\n      mstore\n      pop\n      dup2\n      add\n      swap1\n      tag_73\n      swap2\n      swap1\n      tag_74\n      jump\t// in\n    tag_73:\n      pop\n        /* \"src/AaveLiquidationProtectionCallback.sol\":3118:3133  collateralToken */\n      0x03\n      0x00\n      swap1\n      sload\n      swap1\n      0x0100\n      exp\n      swap1\n      div\n      0xffffffffffffffffffffffffffffffffffffffff\n      and\n        /* \"src/AaveLiquidationProtectionCallback.sol\":3111:3142  IERC20(collateralToken).approve */\n      0xffffffffffffffffffffffffffffffffffffffff\n      and\n      0x095ea7b3\n        /* \"src/AaveLiquidationProtectionCallback.sol\":3143:3154  lendingPool */\n      dup7\n        /* \"src/AaveLiquidationProtectionCallback.sol\":3156:3172  collateralNeeded */\n      dup6\n        /* \"src/AaveLiquidationProtectionCallback.sol\":3111:3173  IERC20(collateralToken).approve(lendingPool, collateralNeeded) */\n      mload(0x40)\n      dup4\n      0xffffffff\n      and\n      0xe0\n      shl\n      dup2\n      mstore\n      0x04\n      add\n      tag_75\n      swap3\n      swap2\n      swap1\n      tag_76\n      jump\t// in\n    tag_75:\n      0x20\n      mload(0x40)\n      dup1\n      dup4\n      sub\n      dup2\n      0x00\n      dup8\n      gas\n      call\n      iszero\n      dup1\n      iszero\n      tag_78\n      jumpi\n      returndatasize\n      0x00\n      dup1\n      returndatacopy\n      revert(0x00, returndatasize)\n    tag_78:\n      pop\n      pop\n      pop\n      pop\n      mload(0x40)\n      returndatasize\n      not(0x1f)\n      0x1f\n      dup3\n      add\n      and\n      dup3\n      add\n      dup1\n      0x40\n      mstore\n      pop\n      dup2\n      add\n      swap1\n      tag_79\n      swap2\n      swap1\n      tag_74\n      jump\t// in\n    tag_79:\n      pop\n        /* \"src/AaveLiquidationProtectionCallback.sol\":3254:3265  lendingPool */\n      dup5\n        /* \"src/AaveLiquidationProtectionCallback.sol\":3241:3273  ILendingPool(lendingPool).supply */\n      0xffffffffffffffffffffffffffffffffffffffff\n      and\n      0x617ba037\n        /* \"src/AaveLiquidationProtectionCallback.sol\":3291:3306  collateralToken */\n      0x03\n      0x00\n      swap1\n      sload\n      swap1\n      0x0100\n      exp\n      swap1\n      div\n      0xffffffffffffffffffffffffffffffffffffffff\n      and\n        /* \"src/AaveLiquidationProtectionCallback.sol\":3324:3340  collateralNeeded */\n      dup6\n        /* \"src/AaveLiquidationProtectionCallback.sol\":3358:3362  user */\n      dup10\n        /* \"src/AaveLiquidationProtectionCallback.sol\":3380:3381  0 */\n      0x00\n        /* \"src/AaveLiquidationProtectionCallback.sol\":3241:3413  ILendingPool(lendingPool).supply(... */\n      mload(0x40)\n      dup6\n      0xffffffff\n      and\n      0xe0\n      shl\n      dup2\n      mstore\n      0x04\n      add\n      tag_80\n      swap5\n      swap4\n      swap3\n      swap2\n      swap1\n      tag_81\n      jump\t// in\n    tag_80:\n      0x00\n      mload(0x40)\n      dup1\n      dup4\n      sub\n      dup2\n      0x00\n      dup8\n      dup1\n      extcodesize\n      iszero\n      dup1\n      iszero\n      tag_82\n      jumpi\n      0x00\n      dup1\n      revert\n    tag_82:\n      pop\n      gas\n      call\n      iszero\n      dup1\n      iszero\n      tag_84\n      jumpi\n      returndatasize\n      0x00\n      dup1\n      returndatacopy\n      revert(0x00, returndatasize)\n    tag_84:\n      pop\n      pop\n      pop\n      pop\n        /* \"src/AaveLiquidationProtectionCallback.sol\":2423:3424  {... */\n      pop\n      pop\n        /* \"src/AaveLiquidationProtectionCallback.sol\":2397:3424  if (collateralNeeded > 0) {... */\n    tag_53:\n        /* \"src/AaveLiquidationProtectionCallback.sol\":3489:3512  uint256 newHealthFactor */\n      0x00\n        /* \"src/AaveLiquidationProtectionCallback.sol\":3529:3540  lendingPool */\n      dup4\n        /* \"src/AaveLiquidationProtectionCallback.sol\":3516:3560  ILendingPool(lendingPool).getUserAccountData */\n      0xffffffffffffffffffffffffffffffffffffffff\n      and\n      0xbf92857c\n        /* \"src/AaveLiquidationProtectionCallback.sol\":3561:3565  user */\n      dup7\n        /* \"src/AaveLiquidationProtectionCallback.sol\":3516:3566  ILendingPool(lendingPool).getUserAccountData(user) */\n      mload(0x40)\n      dup3\n      0xffffffff\n      and\n      0xe0\n      shl\n      dup2\n      mstore\n      0x04\n      add\n      tag_85\n      swap2\n      swap1\n      tag_34\n      jump\t// in\n    tag_85:\n      0xc0\n      mload(0x40)\n      dup1\n      dup4\n      sub\n      dup2\n      dup7\n      gas\n      staticcall\n      iszero\n      dup1\n      iszero\n      tag_87\n      jumpi\n      returndatasize\n      0x00\n      dup1\n      returndatacopy\n      revert(0x00, returndatasize)\n    tag_87:\n      pop\n      pop\n      pop\n      pop\n      mload(0x40)\n      returndatasize\n      not(0x1f)\n      0x1f\n      dup3\n      add\n      and\n      dup3\n      add\n      dup1\n      0x40\n      mstore\n      pop\n      dup2\n      add\n      swap1\n      tag_88\n      swap2\n      swap1\n      tag_89\n      jump\t// in\n    tag_88:\n        /* \"src/AaveLiquidationProtectionCallback.sol\":3482:3566  (,,,,, uint256 newHealthFactor) = ILendingPool(lendingPool).getUserAccountData(user) */\n      swap6\n      pop\n      pop\n      pop\n      pop\n      pop\n      pop\n        /* \"src/AaveLiquidationProtectionCallback.sol\":3664:3675  lendingPool */\n      dup4\n        /* \"src/AaveLiquidationProtectionCallback.sol\":3615:3744  PositionProtected(... */\n      0xffffffffffffffffffffffffffffffffffffffff\n      and\n        /* \"src/AaveLiquidationProtectionCallback.sol\":3646:3650  user */\n      dup6\n        /* \"src/AaveLiquidationProtectionCallback.sol\":3615:3744  PositionProtected(... */\n      0xffffffffffffffffffffffffffffffffffffffff\n      and\n      0xc36075e656a1ae37433e843be9f03b48aa277aa3174cadf877d8d58fe686215d\n        /* \"src/AaveLiquidationProtectionCallback.sol\":3689:3704  newHealthFactor */\n      dup4\n        /* \"src/AaveLiquidationProtectionCallback.sol\":3718:3734  collateralNeeded */\n      dup6\n        /* \"src/AaveLiquidationProtectionCallback.sol\":3615:3744  PositionProtected(... */\n      mload(0x40)\n      tag_90\n      swap3\n      swap2\n      swap1\n      tag_91\n      jump\t// in\n    tag_90:\n      mload(0x40)\n      dup1\n      swap2\n      sub\n      swap1\n      log3\n        /* \"src/AaveLiquidationProtectionCallback.sol\":2175:3751  {... */\n      pop\n      pop\n        /* \"src/AaveLiquidationProtectionCallback.sol\":1997:3751  function protectPosition(... */\n      pop\n      pop\n      pop\n      pop\n      jump\t// out\n        /* \"lib/reactive-lib/src/abstract-base/AbstractPayer.sol\":702:1016  function _pay(address payable recipient, uint256 amount) internal {... */\n    tag_40:\n        /* \"lib/reactive-lib/src/abstract-base/AbstractPayer.sol\":811:817  amount */\n      dup1\n        /* \"lib/reactive-lib/src/abstract-base/AbstractPayer.sol\":786:807  address(this).balance */\n      selfbalance\n        /* \"lib/reactive-lib/src/abstract-base/AbstractPayer.sol\":786:817  address(this).balance >= amount */\n      lt\n      iszero\n        /* \"lib/reactive-lib/src/abstract-base/AbstractPayer.sol\":778:840  require(address(this).balance >= amount, 'Insufficient funds') */\n      tag_93\n      jumpi\n      mload(0x40)\n      0x08c379a000000000000000000000000000000000000000000000000000000000\n      dup2\n      mstore\n      0x04\n      add\n      tag_94\n      swap1\n      tag_95\n      jump\t// in\n    tag_94:\n      mload(0x40)\n      dup1\n      swap2\n      sub\n      swap1\n      revert\n    tag_93:\n        /* \"lib/reactive-lib/src/abstract-base/AbstractPayer.sol\":863:864  0 */\n      0x00\n        /* \"lib/reactive-lib/src/abstract-base/AbstractPayer.sol\":854:860  amount */\n      dup2\n        /* \"lib/reactive-lib/src/abstract-base/AbstractPayer.sol\":854:864  amount > 0 */\n      gt\n        /* \"lib/reactive-lib/src/abstract-base/AbstractPayer.sol\":850:1010  if (amount > 0) {... */\n      iszero\n      tag_96\n      jumpi\n        /* \"lib/reactive-lib/src/abstract-base/AbstractPayer.sol\":881:893  bool success */\n      0x00\n        /* \"lib/reactive-lib/src/abstract-base/AbstractPayer.sol\":906:915  recipient */\n      dup3\n        /* \"lib/reactive-lib/src/abstract-base/AbstractPayer.sol\":898:921  payable(recipient).call */\n      0xffffffffffffffffffffffffffffffffffffffff\n      and\n        /* \"lib/reactive-lib/src/abstract-base/AbstractPayer.sol\":929:935  amount */\n      dup3\n        /* \"lib/reactive-lib/src/abstract-base/AbstractPayer.sol\":947:948  0 */\n      0x00\n        /* \"lib/reactive-lib/src/abstract-base/AbstractPayer.sol\":937:949  new bytes(0) */\n      0xffffffffffffffff\n      dup2\n      gt\n      iszero\n      tag_97\n      jumpi\n      tag_98\n      tag_99\n      jump\t// in\n    tag_98:\n    tag_97:\n      mload(0x40)\n      swap1\n      dup1\n      dup3\n      mstore\n      dup1\n      0x1f\n      add\n      not(0x1f)\n      and\n      0x20\n      add\n      dup3\n      add\n      0x40\n      mstore\n      dup1\n      iszero\n      tag_100\n      jumpi\n      dup2\n      0x20\n      add\n      0x01\n      dup3\n      mul\n      dup1\n      calldatasize\n      dup4\n      calldatacopy\n      dup1\n      dup3\n      add\n      swap2\n      pop\n      pop\n      swap1\n      pop\n    tag_100:\n      pop\n        /* \"lib/reactive-lib/src/abstract-base/AbstractPayer.sol\":898:950  payable(recipient).call{value: amount}(new bytes(0)) */\n      mload(0x40)\n      tag_101\n      swap2\n      swap1\n      tag_102\n      jump\t// in\n    tag_101:\n      0x00\n      mload(0x40)\n      dup1\n      dup4\n      sub\n      dup2\n      dup6\n      dup8\n      gas\n      call\n      swap3\n      pop\n      pop\n      pop\n      returndatasize\n      dup1\n      0x00\n      dup2\n      eq\n      tag_105\n      jumpi\n      mload(0x40)\n      swap2\n      pop\n      and(add(returndatasize, 0x3f), not(0x1f))\n      dup3\n      add\n      0x40\n      mstore\n      returndatasize\n      dup3\n      mstore\n      returndatasize\n      0x00\n      0x20\n      dup5\n      add\n      returndatacopy\n      jump(tag_104)\n    tag_105:\n      0x60\n      swap2\n      pop\n    tag_104:\n      pop\n        /* \"lib/reactive-lib/src/abstract-base/AbstractPayer.sol\":880:950  (bool success,) = payable(recipient).call{value: amount}(new bytes(0)) */\n      pop\n      swap1\n      pop\n        /* \"lib/reactive-lib/src/abstract-base/AbstractPayer.sol\":972:979  success */\n      dup1\n        /* \"lib/reactive-lib/src/abstract-base/AbstractPayer.sol\":964:999  require(success, 'Transfer failed') */\n      tag_106\n      jumpi\n      mload(0x40)\n      0x08c379a000000000000000000000000000000000000000000000000000000000\n      dup2\n      mstore\n      0x04\n      add\n      tag_107\n      swap1\n      tag_108\n      jump\t// in\n    tag_107:\n      mload(0x40)\n      dup1\n      swap2\n      sub\n      swap1\n      revert\n    tag_106:\n        /* \"lib/reactive-lib/src/abstract-base/AbstractPayer.sol\":866:1010  {... */\n      pop\n        /* \"lib/reactive-lib/src/abstract-base/AbstractPayer.sol\":850:1010  if (amount > 0) {... */\n    tag_96:\n        /* \"lib/reactive-lib/src/abstract-base/AbstractPayer.sol\":702:1016  function _pay(address payable recipient, uint256 amount) internal {... */\n      pop\n      pop\n      jump\t// out\n        /* \"src/AaveLiquidationProtectionCallback.sol\":3806:6521  function calculateCollateralNeeded(... */\n    tag_52:\n        /* \"src/AaveLiquidationProtectionCallback.sol\":3957:3964  uint256 */\n      0x00\n        /* \"src/AaveLiquidationProtectionCallback.sol\":4010:4036  uint256 totalCollateralETH */\n      dup1\n        /* \"src/AaveLiquidationProtectionCallback.sol\":4038:4058  uint256 totalDebtETH */\n      0x00\n        /* \"src/AaveLiquidationProtectionCallback.sol\":4062:4090  uint256 liquidationThreshold */\n      dup1\n        /* \"src/AaveLiquidationProtectionCallback.sol\":4124:4135  lendingPool */\n      dup6\n        /* \"src/AaveLiquidationProtectionCallback.sol\":4111:4155  ILendingPool(lendingPool).getUserAccountData */\n      0xffffffffffffffffffffffffffffffffffffffff\n      and\n      0xbf92857c\n        /* \"src/AaveLiquidationProtectionCallback.sol\":4156:4160  user */\n      dup9\n        /* \"src/AaveLiquidationProtectionCallback.sol\":4111:4161  ILendingPool(lendingPool).getUserAccountData(user) */\n      mload(0x40)\n      dup3\n      0xffffffff\n      and\n      0xe0\n      shl\n      dup2\n      mstore\n      0x04\n      add\n      tag_110\n      swap2\n      swap1\n      tag_34\n      jump\t// in\n    tag_110:\n      0xc0\n      mload(0x40)\n      dup1\n      dup4\n      sub\n      dup2\n      dup7\n      gas\n      staticcall\n      iszero\n      dup1\n      iszero\n      tag_112\n      jumpi\n      returndatasize\n      0x00\n      dup1\n      returndatacopy\n      revert(0x00, returndatasize)\n    tag_112:\n      pop\n      pop\n      pop\n      pop\n      mload(0x40)\n      returndatasize\n      not(0x1f)\n      0x1f\n      dup3\n      add\n      and\n      dup3\n      add\n      dup1\n      0x40\n      mstore\n      pop\n      dup2\n      add\n      swap1\n      tag_113\n      swap2\n      swap1\n      tag_89\n      jump\t// in\n    tag_113:\n        /* \"src/AaveLiquidationProtectionCallback.sol\":4009:4161  (uint256 totalCollateralETH, uint256 totalDebtETH, , uint256 liquidationThreshold, , ) = ... */\n      pop\n      pop\n      swap4\n      pop\n      pop\n      swap3\n      pop\n      swap3\n      pop\n        /* \"src/AaveLiquidationProtectionCallback.sol\":4334:4363  uint256 requiredCollateralETH */\n      0x00\n        /* \"src/AaveLiquidationProtectionCallback.sol\":4428:4433  10000 */\n      0x2710\n        /* \"src/AaveLiquidationProtectionCallback.sol\":4405:4425  liquidationThreshold */\n      dup3\n        /* \"src/AaveLiquidationProtectionCallback.sol\":4405:4433  liquidationThreshold / 10000 */\n      tag_114\n      swap2\n      swap1\n      tag_115\n      jump\t// in\n    tag_114:\n        /* \"src/AaveLiquidationProtectionCallback.sol\":4388:4400  totalDebtETH */\n      dup4\n        /* \"src/AaveLiquidationProtectionCallback.sol\":4367:4385  targetHealthFactor */\n      dup8\n        /* \"src/AaveLiquidationProtectionCallback.sol\":4367:4400  targetHealthFactor * totalDebtETH */\n      tag_116\n      swap2\n      swap1\n      tag_117\n      jump\t// in\n    tag_116:\n        /* \"src/AaveLiquidationProtectionCallback.sol\":4366:4434  (targetHealthFactor * totalDebtETH) / (liquidationThreshold / 10000) */\n      tag_118\n      swap2\n      swap1\n      tag_115\n      jump\t// in\n    tag_118:\n        /* \"src/AaveLiquidationProtectionCallback.sol\":4334:4434  uint256 requiredCollateralETH = (targetHealthFactor * totalDebtETH) / (liquidationThreshold / 10000) */\n      swap1\n      pop\n        /* \"src/AaveLiquidationProtectionCallback.sol\":4444:4475  uint256 additionalCollateralETH */\n      0x00\n        /* \"src/AaveLiquidationProtectionCallback.sol\":4526:4544  totalCollateralETH */\n      dup5\n        /* \"src/AaveLiquidationProtectionCallback.sol\":4502:4523  requiredCollateralETH */\n      dup3\n        /* \"src/AaveLiquidationProtectionCallback.sol\":4502:4544  requiredCollateralETH > totalCollateralETH */\n      gt\n        /* \"src/AaveLiquidationProtectionCallback.sol\":4498:4789  if (requiredCollateralETH > totalCollateralETH) {... */\n      iszero\n      tag_119\n      jumpi\n        /* \"src/AaveLiquidationProtectionCallback.sol\":4610:4628  totalCollateralETH */\n      dup5\n        /* \"src/AaveLiquidationProtectionCallback.sol\":4586:4607  requiredCollateralETH */\n      dup3\n        /* \"src/AaveLiquidationProtectionCallback.sol\":4586:4628  requiredCollateralETH - totalCollateralETH */\n      tag_120\n      swap2\n      swap1\n      tag_121\n      jump\t// in\n    tag_120:\n        /* \"src/AaveLiquidationProtectionCallback.sol\":4560:4628  additionalCollateralETH = requiredCollateralETH - totalCollateralETH */\n      swap1\n      pop\n        /* \"src/AaveLiquidationProtectionCallback.sol\":4775:4778  100 */\n      0x64\n        /* \"src/AaveLiquidationProtectionCallback.sol\":4768:4771  105 */\n      0x69\n        /* \"src/AaveLiquidationProtectionCallback.sol\":4742:4765  additionalCollateralETH */\n      dup3\n        /* \"src/AaveLiquidationProtectionCallback.sol\":4742:4771  additionalCollateralETH * 105 */\n      tag_122\n      swap2\n      swap1\n      tag_117\n      jump\t// in\n    tag_122:\n        /* \"src/AaveLiquidationProtectionCallback.sol\":4741:4778  (additionalCollateralETH * 105) / 100 */\n      tag_123\n      swap2\n      swap1\n      tag_115\n      jump\t// in\n    tag_123:\n        /* \"src/AaveLiquidationProtectionCallback.sol\":4715:4778  additionalCollateralETH = (additionalCollateralETH * 105) / 100 */\n      swap1\n      pop\n        /* \"src/AaveLiquidationProtectionCallback.sol\":4498:4789  if (requiredCollateralETH > totalCollateralETH) {... */\n    tag_119:\n        /* \"src/AaveLiquidationProtectionCallback.sol\":4858:4883  int256 collateralPriceUSD */\n      0x00\n        /* \"src/AaveLiquidationProtectionCallback.sol\":4890:4914  collateralTokenPriceFeed */\n      0x05\n      0x00\n      swap1\n      sload\n      swap1\n      0x0100\n      exp\n      swap1\n      div\n      0xffffffffffffffffffffffffffffffffffffffff\n      and\n        /* \"src/AaveLiquidationProtectionCallback.sol\":4890:4930  collateralTokenPriceFeed.latestRoundData */\n      0xffffffffffffffffffffffffffffffffffffffff\n      and\n      0xfeaf968c\n        /* \"src/AaveLiquidationProtectionCallback.sol\":4890:4932  collateralTokenPriceFeed.latestRoundData() */\n      mload(0x40)\n      dup2\n      0xffffffff\n      and\n      0xe0\n      shl\n      dup2\n      mstore\n      0x04\n      add\n      0xa0\n      mload(0x40)\n      dup1\n      dup4\n      sub\n      dup2\n      dup7\n      gas\n      staticcall\n      iszero\n      dup1\n      iszero\n      tag_125\n      jumpi\n      returndatasize\n      0x00\n      dup1\n      returndatacopy\n      revert(0x00, returndatasize)\n    tag_125:\n      pop\n      pop\n      pop\n      pop\n      mload(0x40)\n      returndatasize\n      not(0x1f)\n      0x1f\n      dup3\n      add\n      and\n      dup3\n      add\n      dup1\n      0x40\n      mstore\n      pop\n      dup2\n      add\n      swap1\n      tag_126\n      swap2\n      swap1\n      tag_127\n      jump\t// in\n    tag_126:\n        /* \"src/AaveLiquidationProtectionCallback.sol\":4855:4932  (, int256 collateralPriceUSD,,,) = collateralTokenPriceFeed.latestRoundData() */\n      pop\n      pop\n      pop\n      swap2\n      pop\n      pop\n        /* \"src/AaveLiquidationProtectionCallback.sol\":4945:4963  int256 ethPriceUSD */\n      0x00\n        /* \"src/AaveLiquidationProtectionCallback.sol\":4970:4982  ETHPriceFeed */\n      0x06\n      0x00\n      swap1\n      sload\n      swap1\n      0x0100\n      exp\n      swap1\n      div\n      0xffffffffffffffffffffffffffffffffffffffff\n      and\n        /* \"src/AaveLiquidationProtectionCallback.sol\":4970:4998  ETHPriceFeed.latestRoundData */\n      0xffffffffffffffffffffffffffffffffffffffff\n      and\n      0xfeaf968c\n        /* \"src/AaveLiquidationProtectionCallback.sol\":4970:5000  ETHPriceFeed.latestRoundData() */\n      mload(0x40)\n      dup2\n      0xffffffff\n      and\n      0xe0\n      shl\n      dup2\n      mstore\n      0x04\n      add\n      0xa0\n      mload(0x40)\n      dup1\n      dup4\n      sub\n      dup2\n      dup7\n      gas\n      staticcall\n      iszero\n      dup1\n      iszero\n      tag_129\n      jumpi\n      returndatasize\n      0x00\n      dup1\n      returndatacopy\n      revert(0x00, returndatasize)\n    tag_129:\n      pop\n      pop\n      pop\n      pop\n      mload(0x40)\n      returndatasize\n      not(0x1f)\n      0x1f\n      dup3\n      add\n      and\n      dup3\n      add\n      dup1\n      0x40\n      mstore\n      pop\n      dup2\n      add\n      swap1\n      tag_130\n      swap2\n      swap1\n      tag_127\n      jump\t// in\n    tag_130:\n        /* \"src/AaveLiquidationProtectionCallback.sol\":4942:5000  (, int256 ethPriceUSD,,,) = ETHPriceFeed.latestRoundData() */\n      pop\n      pop\n      pop\n      swap2\n      pop\n      pop\n        /* \"src/AaveLiquidationProtectionCallback.sol\":5086:5087  0 */\n      0x00\n        /* \"src/AaveLiquidationProtectionCallback.sol\":5065:5083  collateralPriceUSD */\n      dup3\n        /* \"src/AaveLiquidationProtectionCallback.sol\":5065:5087  collateralPriceUSD > 0 */\n      sgt\n        /* \"src/AaveLiquidationProtectionCallback.sol\":5057:5116  require(collateralPriceUSD > 0, \"Invalid collateral price\") */\n      tag_131\n      jumpi\n      mload(0x40)\n      0x08c379a000000000000000000000000000000000000000000000000000000000\n      dup2\n      mstore\n      0x04\n      add\n      tag_132\n      swap1\n      tag_133\n      jump\t// in\n    tag_132:\n      mload(0x40)\n      dup1\n      swap2\n      sub\n      swap1\n      revert\n    tag_131:\n        /* \"src/AaveLiquidationProtectionCallback.sol\":5148:5149  0 */\n      0x00\n        /* \"src/AaveLiquidationProtectionCallback.sol\":5134:5145  ethPriceUSD */\n      dup2\n        /* \"src/AaveLiquidationProtectionCallback.sol\":5134:5149  ethPriceUSD > 0 */\n      sgt\n        /* \"src/AaveLiquidationProtectionCallback.sol\":5126:5171  require(ethPriceUSD > 0, \"Invalid ETH price\") */\n      tag_134\n      jumpi\n      mload(0x40)\n      0x08c379a000000000000000000000000000000000000000000000000000000000\n      dup2\n      mstore\n      0x04\n      add\n      tag_135\n      swap1\n      tag_136\n      jump\t// in\n    tag_135:\n      mload(0x40)\n      dup1\n      swap2\n      sub\n      swap1\n      revert\n    tag_134:\n        /* \"src/AaveLiquidationProtectionCallback.sol\":5238:5267  uint8 collateralPriceDecimals */\n      0x00\n        /* \"src/AaveLiquidationProtectionCallback.sol\":5270:5294  collateralTokenPriceFeed */\n      0x05\n      0x00\n      swap1\n      sload\n      swap1\n      0x0100\n      exp\n      swap1\n      div\n      0xffffffffffffffffffffffffffffffffffffffff\n      and\n        /* \"src/AaveLiquidationProtectionCallback.sol\":5270:5303  collateralTokenPriceFeed.decimals */\n      0xffffffffffffffffffffffffffffffffffffffff\n      and\n      0x313ce567\n        /* \"src/AaveLiquidationProtectionCallback.sol\":5270:5305  collateralTokenPriceFeed.decimals() */\n      mload(0x40)\n      dup2\n      0xffffffff\n      and\n      0xe0\n      shl\n      dup2\n      mstore\n      0x04\n      add\n      0x20\n      mload(0x40)\n      dup1\n      dup4\n      sub\n      dup2\n      dup7\n      gas\n      staticcall\n      iszero\n      dup1\n      iszero\n      tag_138\n      jumpi\n      returndatasize\n      0x00\n      dup1\n      returndatacopy\n      revert(0x00, returndatasize)\n    tag_138:\n      pop\n      pop\n      pop\n      pop\n      mload(0x40)\n      returndatasize\n      not(0x1f)\n      0x1f\n      dup3\n      add\n      and\n      dup3\n      add\n      dup1\n      0x40\n      mstore\n      pop\n      dup2\n      add\n      swap1\n      tag_139\n      swap2\n      swap1\n      tag_140\n      jump\t// in\n    tag_139:\n        /* \"src/AaveLiquidationProtectionCallback.sol\":5238:5305  uint8 collateralPriceDecimals = collateralTokenPriceFeed.decimals() */\n      swap1\n      pop\n        /* \"src/AaveLiquidationProtectionCallback.sol\":5315:5337  uint8 ethPriceDecimals */\n      0x00\n        /* \"src/AaveLiquidationProtectionCallback.sol\":5340:5352  ETHPriceFeed */\n      0x06\n      0x00\n      swap1\n      sload\n      swap1\n      0x0100\n      exp\n      swap1\n      div\n      0xffffffffffffffffffffffffffffffffffffffff\n      and\n        /* \"src/AaveLiquidationProtectionCallback.sol\":5340:5361  ETHPriceFeed.decimals */\n      0xffffffffffffffffffffffffffffffffffffffff\n      and\n      0x313ce567\n        /* \"src/AaveLiquidationProtectionCallback.sol\":5340:5363  ETHPriceFeed.decimals() */\n      mload(0x40)\n      dup2\n      0xffffffff\n      and\n      0xe0\n      shl\n      dup2\n      mstore\n      0x04\n      add\n      0x20\n      mload(0x40)\n      dup1\n      dup4\n      sub\n      dup2\n      dup7\n      gas\n      staticcall\n      iszero\n      dup1\n      iszero\n      tag_142\n      jumpi\n      returndatasize\n      0x00\n      dup1\n      returndatacopy\n      revert(0x00, returndatasize)\n    tag_142:\n      pop\n      pop\n      pop\n      pop\n      mload(0x40)\n      returndatasize\n      not(0x1f)\n      0x1f\n      dup3\n      add\n      and\n      dup3\n      add\n      dup1\n      0x40\n      mstore\n      pop\n      dup2\n      add\n      swap1\n      tag_143\n      swap2\n      swap1\n      tag_140\n      jump\t// in\n    tag_143:\n        /* \"src/AaveLiquidationProtectionCallback.sol\":5315:5363  uint8 ethPriceDecimals = ETHPriceFeed.decimals() */\n      swap1\n      pop\n        /* \"src/AaveLiquidationProtectionCallback.sol\":5438:5464  uint256 collateralDecimals */\n      0x00\n        /* \"src/AaveLiquidationProtectionCallback.sol\":5482:5497  collateralToken */\n      0x03\n      0x00\n      swap1\n      sload\n      swap1\n      0x0100\n      exp\n      swap1\n      div\n      0xffffffffffffffffffffffffffffffffffffffff\n      and\n        /* \"src/AaveLiquidationProtectionCallback.sol\":5467:5507  IERC20Detailed(collateralToken).decimals */\n      0xffffffffffffffffffffffffffffffffffffffff\n      and\n      0x313ce567\n        /* \"src/AaveLiquidationProtectionCallback.sol\":5467:5509  IERC20Detailed(collateralToken).decimals() */\n      mload(0x40)\n      dup2\n      0xffffffff\n      and\n      0xe0\n      shl\n      dup2\n      mstore\n      0x04\n      add\n      0x20\n      mload(0x40)\n      dup1\n      dup4\n      sub\n      dup2\n      dup7\n      gas\n      staticcall\n      iszero\n      dup1\n      iszero\n      tag_145\n      jumpi\n      returndatasize\n      0x00\n      dup1\n      returndatacopy\n      revert(0x00, returndatasize)\n    tag_145:\n      pop\n      pop\n      pop\n      pop\n      mload(0x40)\n      returndatasize\n      not(0x1f)\n      0x1f\n      dup3\n      add\n      and\n      dup3\n      add\n      dup1\n      0x40\n      mstore\n      pop\n      dup2\n      add\n      swap1\n      tag_146\n      swap2\n      swap1\n      tag_140\n      jump\t// in\n    tag_146:\n        /* \"src/AaveLiquidationProtectionCallback.sol\":5438:5509  uint256 collateralDecimals = IERC20Detailed(collateralToken).decimals() */\n      0xff\n      and\n      swap1\n      pop\n        /* \"src/AaveLiquidationProtectionCallback.sol\":5645:5676  uint256 additionalCollateralUSD */\n      0x00\n        /* \"src/AaveLiquidationProtectionCallback.sol\":5735:5751  ethPriceDecimals */\n      dup3\n        /* \"src/AaveLiquidationProtectionCallback.sol\":5731:5733  10 */\n      0x0a\n        /* \"src/AaveLiquidationProtectionCallback.sol\":5731:5751  10**ethPriceDecimals */\n      tag_147\n      swap2\n      swap1\n      tag_148\n      jump\t// in\n    tag_147:\n        /* \"src/AaveLiquidationProtectionCallback.sol\":5714:5725  ethPriceUSD */\n      dup6\n        /* \"src/AaveLiquidationProtectionCallback.sol\":5680:5703  additionalCollateralETH */\n      dup9\n        /* \"src/AaveLiquidationProtectionCallback.sol\":5680:5726  additionalCollateralETH * uint256(ethPriceUSD) */\n      tag_149\n      swap2\n      swap1\n      tag_117\n      jump\t// in\n    tag_149:\n        /* \"src/AaveLiquidationProtectionCallback.sol\":5679:5752  (additionalCollateralETH * uint256(ethPriceUSD)) / (10**ethPriceDecimals) */\n      tag_150\n      swap2\n      swap1\n      tag_115\n      jump\t// in\n    tag_150:\n        /* \"src/AaveLiquidationProtectionCallback.sol\":5645:5752  uint256 additionalCollateralUSD = (additionalCollateralETH * uint256(ethPriceUSD)) / (10**ethPriceDecimals) */\n      swap1\n      pop\n        /* \"src/AaveLiquidationProtectionCallback.sol\":5979:6003  uint256 collateralNeeded */\n      0x00\n        /* \"src/AaveLiquidationProtectionCallback.sol\":6069:6087  collateralPriceUSD */\n      dup7\n        /* \"src/AaveLiquidationProtectionCallback.sol\":6038:6056  collateralDecimals */\n      dup4\n        /* \"src/AaveLiquidationProtectionCallback.sol\":6034:6036  10 */\n      0x0a\n        /* \"src/AaveLiquidationProtectionCallback.sol\":6034:6056  10**collateralDecimals */\n      tag_151\n      swap2\n      swap1\n      tag_152\n      jump\t// in\n    tag_151:\n        /* \"src/AaveLiquidationProtectionCallback.sol\":6007:6030  additionalCollateralUSD */\n      dup4\n        /* \"src/AaveLiquidationProtectionCallback.sol\":6007:6057  additionalCollateralUSD * (10**collateralDecimals) */\n      tag_153\n      swap2\n      swap1\n      tag_117\n      jump\t// in\n    tag_153:\n        /* \"src/AaveLiquidationProtectionCallback.sol\":6006:6088  (additionalCollateralUSD * (10**collateralDecimals)) / uint256(collateralPriceUSD) */\n      tag_154\n      swap2\n      swap1\n      tag_115\n      jump\t// in\n    tag_154:\n        /* \"src/AaveLiquidationProtectionCallback.sol\":5979:6088  uint256 collateralNeeded = (additionalCollateralUSD * (10**collateralDecimals)) / uint256(collateralPriceUSD) */\n      swap1\n      pop\n        /* \"src/AaveLiquidationProtectionCallback.sol\":6179:6195  ethPriceDecimals */\n      dup4\n        /* \"src/AaveLiquidationProtectionCallback.sol\":6153:6195  collateralPriceDecimals > ethPriceDecimals */\n      0xff\n      and\n        /* \"src/AaveLiquidationProtectionCallback.sol\":6153:6176  collateralPriceDecimals */\n      dup6\n        /* \"src/AaveLiquidationProtectionCallback.sol\":6153:6195  collateralPriceDecimals > ethPriceDecimals */\n      0xff\n      and\n      gt\n        /* \"src/AaveLiquidationProtectionCallback.sol\":6149:6477  if (collateralPriceDecimals > ethPriceDecimals) {... */\n      iszero\n      tag_155\n      jumpi\n        /* \"src/AaveLiquidationProtectionCallback.sol\":6281:6297  ethPriceDecimals */\n      dup4\n        /* \"src/AaveLiquidationProtectionCallback.sol\":6255:6278  collateralPriceDecimals */\n      dup6\n        /* \"src/AaveLiquidationProtectionCallback.sol\":6255:6297  collateralPriceDecimals - ethPriceDecimals */\n      tag_156\n      swap2\n      swap1\n      tag_157\n      jump\t// in\n    tag_156:\n        /* \"src/AaveLiquidationProtectionCallback.sol\":6250:6252  10 */\n      0x0a\n        /* \"src/AaveLiquidationProtectionCallback.sol\":6250:6298  10**(collateralPriceDecimals - ethPriceDecimals) */\n      tag_158\n      swap2\n      swap1\n      tag_148\n      jump\t// in\n    tag_158:\n        /* \"src/AaveLiquidationProtectionCallback.sol\":6230:6246  collateralNeeded */\n      dup2\n        /* \"src/AaveLiquidationProtectionCallback.sol\":6230:6299  collateralNeeded / (10**(collateralPriceDecimals - ethPriceDecimals)) */\n      tag_159\n      swap2\n      swap1\n      tag_115\n      jump\t// in\n    tag_159:\n        /* \"src/AaveLiquidationProtectionCallback.sol\":6211:6299  collateralNeeded = collateralNeeded / (10**(collateralPriceDecimals - ethPriceDecimals)) */\n      swap1\n      pop\n        /* \"src/AaveLiquidationProtectionCallback.sol\":6149:6477  if (collateralPriceDecimals > ethPriceDecimals) {... */\n      jump(tag_160)\n    tag_155:\n        /* \"src/AaveLiquidationProtectionCallback.sol\":6339:6362  collateralPriceDecimals */\n      dup5\n        /* \"src/AaveLiquidationProtectionCallback.sol\":6320:6362  ethPriceDecimals > collateralPriceDecimals */\n      0xff\n      and\n        /* \"src/AaveLiquidationProtectionCallback.sol\":6320:6336  ethPriceDecimals */\n      dup5\n        /* \"src/AaveLiquidationProtectionCallback.sol\":6320:6362  ethPriceDecimals > collateralPriceDecimals */\n      0xff\n      and\n      gt\n        /* \"src/AaveLiquidationProtectionCallback.sol\":6316:6477  if (ethPriceDecimals > collateralPriceDecimals) {... */\n      iszero\n      tag_161\n      jumpi\n        /* \"src/AaveLiquidationProtectionCallback.sol\":6441:6464  collateralPriceDecimals */\n      dup5\n        /* \"src/AaveLiquidationProtectionCallback.sol\":6422:6438  ethPriceDecimals */\n      dup5\n        /* \"src/AaveLiquidationProtectionCallback.sol\":6422:6464  ethPriceDecimals - collateralPriceDecimals */\n      tag_162\n      swap2\n      swap1\n      tag_157\n      jump\t// in\n    tag_162:\n        /* \"src/AaveLiquidationProtectionCallback.sol\":6417:6419  10 */\n      0x0a\n        /* \"src/AaveLiquidationProtectionCallback.sol\":6417:6465  10**(ethPriceDecimals - collateralPriceDecimals) */\n      tag_163\n      swap2\n      swap1\n      tag_148\n      jump\t// in\n    tag_163:\n        /* \"src/AaveLiquidationProtectionCallback.sol\":6397:6413  collateralNeeded */\n      dup2\n        /* \"src/AaveLiquidationProtectionCallback.sol\":6397:6466  collateralNeeded * (10**(ethPriceDecimals - collateralPriceDecimals)) */\n      tag_164\n      swap2\n      swap1\n      tag_117\n      jump\t// in\n    tag_164:\n        /* \"src/AaveLiquidationProtectionCallback.sol\":6378:6466  collateralNeeded = collateralNeeded * (10**(ethPriceDecimals - collateralPriceDecimals)) */\n      swap1\n      pop\n        /* \"src/AaveLiquidationProtectionCallback.sol\":6316:6477  if (ethPriceDecimals > collateralPriceDecimals) {... */\n    tag_161:\n        /* \"src/AaveLiquidationProtectionCallback.sol\":6149:6477  if (collateralPriceDecimals > ethPriceDecimals) {... */\n    tag_160:\n        /* \"src/AaveLiquidationProtectionCallback.sol\":6498:6514  collateralNeeded */\n      dup1\n        /* \"src/AaveLiquidationProtectionCallback.sol\":6491:6514  return collateralNeeded */\n      swap13\n      pop\n      pop\n      pop\n      pop\n      pop\n      pop\n      pop\n      pop\n      pop\n      pop\n      pop\n      pop\n      pop\n        /* \"src/AaveLiquidationProtectionCallback.sol\":3806:6521  function calculateCollateralNeeded(... */\n      swap4\n      swap3\n      pop\n      pop\n      pop\n      jump\t// out\n        /* \"#utility.yul\":88:205   */\n    tag_166:\n        /* \"#utility.yul\":197:198   */\n      0x00\n        /* \"#utility.yul\":194:195   */\n      dup1\n        /* \"#utility.yul\":187:199   */\n      revert\n        /* \"#utility.yul\":334:460   */\n    tag_168:\n        /* \"#utility.yul\":371:378   */\n      0x00\n        /* \"#utility.yul\":411:453   */\n      0xffffffffffffffffffffffffffffffffffffffff\n        /* \"#utility.yul\":404:409   */\n      dup3\n        /* \"#utility.yul\":400:454   */\n      and\n        /* \"#utility.yul\":389:454   */\n      swap1\n      pop\n        /* \"#utility.yul\":334:460   */\n      swap2\n      swap1\n      pop\n      jump\t// out\n        /* \"#utility.yul\":466:562   */\n    tag_169:\n        /* \"#utility.yul\":503:510   */\n      0x00\n        /* \"#utility.yul\":532:556   */\n      tag_227\n        /* \"#utility.yul\":550:555   */\n      dup3\n        /* \"#utility.yul\":532:556   */\n      tag_168\n      jump\t// in\n    tag_227:\n        /* \"#utility.yul\":521:556   */\n      swap1\n      pop\n        /* \"#utility.yul\":466:562   */\n      swap2\n      swap1\n      pop\n      jump\t// out\n        /* \"#utility.yul\":568:690   */\n    tag_170:\n        /* \"#utility.yul\":641:665   */\n      tag_229\n        /* \"#utility.yul\":659:664   */\n      dup2\n        /* \"#utility.yul\":641:665   */\n      tag_169\n      jump\t// in\n    tag_229:\n        /* \"#utility.yul\":634:639   */\n      dup2\n        /* \"#utility.yul\":631:666   */\n      eq\n        /* \"#utility.yul\":621:684   */\n      tag_230\n      jumpi\n        /* \"#utility.yul\":680:681   */\n      0x00\n        /* \"#utility.yul\":677:678   */\n      dup1\n        /* \"#utility.yul\":670:682   */\n      revert\n        /* \"#utility.yul\":621:684   */\n    tag_230:\n        /* \"#utility.yul\":568:690   */\n      pop\n      jump\t// out\n        /* \"#utility.yul\":696:835   */\n    tag_171:\n        /* \"#utility.yul\":742:747   */\n      0x00\n        /* \"#utility.yul\":780:786   */\n      dup2\n        /* \"#utility.yul\":767:787   */\n      calldataload\n        /* \"#utility.yul\":758:787   */\n      swap1\n      pop\n        /* \"#utility.yul\":796:829   */\n      tag_232\n        /* \"#utility.yul\":823:828   */\n      dup2\n        /* \"#utility.yul\":796:829   */\n      tag_170\n      jump\t// in\n    tag_232:\n        /* \"#utility.yul\":696:835   */\n      swap3\n      swap2\n      pop\n      pop\n      jump\t// out\n        /* \"#utility.yul\":841:1170   */\n    tag_12:\n        /* \"#utility.yul\":900:906   */\n      0x00\n        /* \"#utility.yul\":949:951   */\n      0x20\n        /* \"#utility.yul\":937:946   */\n      dup3\n        /* \"#utility.yul\":928:935   */\n      dup5\n        /* \"#utility.yul\":924:947   */\n      sub\n        /* \"#utility.yul\":920:952   */\n      slt\n        /* \"#utility.yul\":917:1036   */\n      iszero\n      tag_234\n      jumpi\n        /* \"#utility.yul\":955:1034   */\n      tag_235\n      tag_166\n      jump\t// in\n    tag_235:\n        /* \"#utility.yul\":917:1036   */\n    tag_234:\n        /* \"#utility.yul\":1075:1076   */\n      0x00\n        /* \"#utility.yul\":1100:1153   */\n      tag_236\n        /* \"#utility.yul\":1145:1152   */\n      dup5\n        /* \"#utility.yul\":1136:1142   */\n      dup3\n        /* \"#utility.yul\":1125:1134   */\n      dup6\n        /* \"#utility.yul\":1121:1143   */\n      add\n        /* \"#utility.yul\":1100:1153   */\n      tag_171\n      jump\t// in\n    tag_236:\n        /* \"#utility.yul\":1090:1153   */\n      swap2\n      pop\n        /* \"#utility.yul\":1046:1163   */\n      pop\n        /* \"#utility.yul\":841:1170   */\n      swap3\n      swap2\n      pop\n      pop\n      jump\t// out\n        /* \"#utility.yul\":1176:1253   */\n    tag_172:\n        /* \"#utility.yul\":1213:1220   */\n      0x00\n        /* \"#utility.yul\":1242:1247   */\n      dup2\n        /* \"#utility.yul\":1231:1247   */\n      swap1\n      pop\n        /* \"#utility.yul\":1176:1253   */\n      swap2\n      swap1\n      pop\n      jump\t// out\n        /* \"#utility.yul\":1259:1381   */\n    tag_173:\n        /* \"#utility.yul\":1332:1356   */\n      tag_239\n        /* \"#utility.yul\":1350:1355   */\n      dup2\n        /* \"#utility.yul\":1332:1356   */\n      tag_172\n      jump\t// in\n    tag_239:\n        /* \"#utility.yul\":1325:1330   */\n      dup2\n        /* \"#utility.yul\":1322:1357   */\n      eq\n        /* \"#utility.yul\":1312:1375   */\n      tag_240\n      jumpi\n        /* \"#utility.yul\":1371:1372   */\n      0x00\n        /* \"#utility.yul\":1368:1369   */\n      dup1\n        /* \"#utility.yul\":1361:1373   */\n      revert\n        /* \"#utility.yul\":1312:1375   */\n    tag_240:\n        /* \"#utility.yul\":1259:1381   */\n      pop\n      jump\t// out\n        /* \"#utility.yul\":1387:1526   */\n    tag_174:\n        /* \"#utility.yul\":1433:1438   */\n      0x00\n        /* \"#utility.yul\":1471:1477   */\n      dup2\n        /* \"#utility.yul\":1458:1478   */\n      calldataload\n        /* \"#utility.yul\":1449:1478   */\n      swap1\n      pop\n        /* \"#utility.yul\":1487:1520   */\n      tag_242\n        /* \"#utility.yul\":1514:1519   */\n      dup2\n        /* \"#utility.yul\":1487:1520   */\n      tag_173\n      jump\t// in\n    tag_242:\n        /* \"#utility.yul\":1387:1526   */\n      swap3\n      swap2\n      pop\n      pop\n      jump\t// out\n        /* \"#utility.yul\":1532:1861   */\n    tag_20:\n        /* \"#utility.yul\":1591:1597   */\n      0x00\n        /* \"#utility.yul\":1640:1642   */\n      0x20\n        /* \"#utility.yul\":1628:1637   */\n      dup3\n        /* \"#utility.yul\":1619:1626   */\n      dup5\n        /* \"#utility.yul\":1615:1638   */\n      sub\n        /* \"#utility.yul\":1611:1643   */\n      slt\n        /* \"#utility.yul\":1608:1727   */\n      iszero\n      tag_244\n      jumpi\n        /* \"#utility.yul\":1646:1725   */\n      tag_245\n      tag_166\n      jump\t// in\n    tag_245:\n        /* \"#utility.yul\":1608:1727   */\n    tag_244:\n        /* \"#utility.yul\":1766:1767   */\n      0x00\n        /* \"#utility.yul\":1791:1844   */\n      tag_246\n        /* \"#utility.yul\":1836:1843   */\n      dup5\n        /* \"#utility.yul\":1827:1833   */\n      dup3\n        /* \"#utility.yul\":1816:1825   */\n      dup6\n        /* \"#utility.yul\":1812:1834   */\n      add\n        /* \"#utility.yul\":1791:1844   */\n      tag_174\n      jump\t// in\n    tag_246:\n        /* \"#utility.yul\":1781:1844   */\n      swap2\n      pop\n        /* \"#utility.yul\":1737:1854   */\n      pop\n        /* \"#utility.yul\":1532:1861   */\n      swap3\n      swap2\n      pop\n      pop\n      jump\t// out\n        /* \"#utility.yul\":1867:2632   */\n    tag_25:\n        /* \"#utility.yul\":1953:1959   */\n      0x00\n        /* \"#utility.yul\":1961:1967   */\n      dup1\n        /* \"#utility.yul\":1969:1975   */\n      0x00\n        /* \"#utility.yul\":1977:1983   */\n      dup1\n        /* \"#utility.yul\":2026:2029   */\n      0x80\n        /* \"#utility.yul\":2014:2023   */\n      dup6\n        /* \"#utility.yul\":2005:2012   */\n      dup8\n        /* \"#utility.yul\":2001:2024   */\n      sub\n        /* \"#utility.yul\":1997:2030   */\n      slt\n        /* \"#utility.yul\":1994:2114   */\n      iszero\n      tag_248\n      jumpi\n        /* \"#utility.yul\":2033:2112   */\n      tag_249\n      tag_166\n      jump\t// in\n    tag_249:\n        /* \"#utility.yul\":1994:2114   */\n    tag_248:\n        /* \"#utility.yul\":2153:2154   */\n      0x00\n        /* \"#utility.yul\":2178:2231   */\n      tag_250\n        /* \"#utility.yul\":2223:2230   */\n      dup8\n        /* \"#utility.yul\":2214:2220   */\n      dup3\n        /* \"#utility.yul\":2203:2212   */\n      dup9\n        /* \"#utility.yul\":2199:2221   */\n      add\n        /* \"#utility.yul\":2178:2231   */\n      tag_171\n      jump\t// in\n    tag_250:\n        /* \"#utility.yul\":2168:2231   */\n      swap5\n      pop\n        /* \"#utility.yul\":2124:2241   */\n      pop\n        /* \"#utility.yul\":2280:2282   */\n      0x20\n        /* \"#utility.yul\":2306:2359   */\n      tag_251\n        /* \"#utility.yul\":2351:2358   */\n      dup8\n        /* \"#utility.yul\":2342:2348   */\n      dup3\n        /* \"#utility.yul\":2331:2340   */\n      dup9\n        /* \"#utility.yul\":2327:2349   */\n      add\n        /* \"#utility.yul\":2306:2359   */\n      tag_171\n      jump\t// in\n    tag_251:\n        /* \"#utility.yul\":2296:2359   */\n      swap4\n      pop\n        /* \"#utility.yul\":2251:2369   */\n      pop\n        /* \"#utility.yul\":2408:2410   */\n      0x40\n        /* \"#utility.yul\":2434:2487   */\n      tag_252\n        /* \"#utility.yul\":2479:2486   */\n      dup8\n        /* \"#utility.yul\":2470:2476   */\n      dup3\n        /* \"#utility.yul\":2459:2468   */\n      dup9\n        /* \"#utility.yul\":2455:2477   */\n      add\n        /* \"#utility.yul\":2434:2487   */\n      tag_171\n      jump\t// in\n    tag_252:\n        /* \"#utility.yul\":2424:2487   */\n      swap3\n      pop\n        /* \"#utility.yul\":2379:2497   */\n      pop\n        /* \"#utility.yul\":2536:2538   */\n      0x60\n        /* \"#utility.yul\":2562:2615   */\n      tag_253\n        /* \"#utility.yul\":2607:2614   */\n      dup8\n        /* \"#utility.yul\":2598:2604   */\n      dup3\n        /* \"#utility.yul\":2587:2596   */\n      dup9\n        /* \"#utility.yul\":2583:2605   */\n      add\n        /* \"#utility.yul\":2562:2615   */\n      tag_174\n      jump\t// in\n    tag_253:\n        /* \"#utility.yul\":2552:2615   */\n      swap2\n      pop\n        /* \"#utility.yul\":2507:2625   */\n      pop\n        /* \"#utility.yul\":1867:2632   */\n      swap3\n      swap6\n      swap2\n      swap5\n      pop\n      swap3\n      pop\n      jump\t// out\n        /* \"#utility.yul\":2638:2807   */\n    tag_175:\n        /* \"#utility.yul\":2722:2733   */\n      0x00\n        /* \"#utility.yul\":2756:2762   */\n      dup3\n        /* \"#utility.yul\":2751:2754   */\n      dup3\n        /* \"#utility.yul\":2744:2763   */\n      mstore\n        /* \"#utility.yul\":2796:2800   */\n      0x20\n        /* \"#utility.yul\":2791:2794   */\n      dup3\n        /* \"#utility.yul\":2787:2801   */\n      add\n        /* \"#utility.yul\":2772:2801   */\n      swap1\n      pop\n        /* \"#utility.yul\":2638:2807   */\n      swap3\n      swap2\n      pop\n      pop\n      jump\t// out\n        /* \"#utility.yul\":2813:3033   */\n    tag_176:\n        /* \"#utility.yul\":2953:2987   */\n      0x4f6e6c79206f776e65722063616e2063616c6c20746869732066756e6374696f\n        /* \"#utility.yul\":2949:2950   */\n      0x00\n        /* \"#utility.yul\":2941:2947   */\n      dup3\n        /* \"#utility.yul\":2937:2951   */\n      add\n        /* \"#utility.yul\":2930:2988   */\n      mstore\n        /* \"#utility.yul\":3022:3025   */\n      0x6e00000000000000000000000000000000000000000000000000000000000000\n        /* \"#utility.yul\":3017:3019   */\n      0x20\n        /* \"#utility.yul\":3009:3015   */\n      dup3\n        /* \"#utility.yul\":3005:3020   */\n      add\n        /* \"#utility.yul\":2998:3026   */\n      mstore\n        /* \"#utility.yul\":2813:3033   */\n      pop\n      jump\t// out\n        /* \"#utility.yul\":3039:3405   */\n    tag_177:\n        /* \"#utility.yul\":3181:3184   */\n      0x00\n        /* \"#utility.yul\":3202:3269   */\n      tag_257\n        /* \"#utility.yul\":3266:3268   */\n      0x21\n        /* \"#utility.yul\":3261:3264   */\n      dup4\n        /* \"#utility.yul\":3202:3269   */\n      tag_175\n      jump\t// in\n    tag_257:\n        /* \"#utility.yul\":3195:3269   */\n      swap2\n      pop\n        /* \"#utility.yul\":3278:3371   */\n      tag_258\n        /* \"#utility.yul\":3367:3370   */\n      dup3\n        /* \"#utility.yul\":3278:3371   */\n      tag_176\n      jump\t// in\n    tag_258:\n        /* \"#utility.yul\":3396:3398   */\n      0x40\n        /* \"#utility.yul\":3391:3394   */\n      dup3\n        /* \"#utility.yul\":3387:3399   */\n      add\n        /* \"#utility.yul\":3380:3399   */\n      swap1\n      pop\n        /* \"#utility.yul\":3039:3405   */\n      swap2\n      swap1\n      pop\n      jump\t// out\n        /* \"#utility.yul\":3411:3830   */\n    tag_30:\n        /* \"#utility.yul\":3577:3581   */\n      0x00\n        /* \"#utility.yul\":3615:3617   */\n      0x20\n        /* \"#utility.yul\":3604:3613   */\n      dup3\n        /* \"#utility.yul\":3600:3618   */\n      add\n        /* \"#utility.yul\":3592:3618   */\n      swap1\n      pop\n        /* \"#utility.yul\":3664:3673   */\n      dup2\n        /* \"#utility.yul\":3658:3662   */\n      dup2\n        /* \"#utility.yul\":3654:3674   */\n      sub\n        /* \"#utility.yul\":3650:3651   */\n      0x00\n        /* \"#utility.yul\":3639:3648   */\n      dup4\n        /* \"#utility.yul\":3635:3652   */\n      add\n        /* \"#utility.yul\":3628:3675   */\n      mstore\n        /* \"#utility.yul\":3692:3823   */\n      tag_260\n        /* \"#utility.yul\":3818:3822   */\n      dup2\n        /* \"#utility.yul\":3692:3823   */\n      tag_177\n      jump\t// in\n    tag_260:\n        /* \"#utility.yul\":3684:3823   */\n      swap1\n      pop\n        /* \"#utility.yul\":3411:3830   */\n      swap2\n      swap1\n      pop\n      jump\t// out\n        /* \"#utility.yul\":3836:3954   */\n    tag_178:\n        /* \"#utility.yul\":3923:3947   */\n      tag_262\n        /* \"#utility.yul\":3941:3946   */\n      dup2\n        /* \"#utility.yul\":3923:3947   */\n      tag_169\n      jump\t// in\n    tag_262:\n        /* \"#utility.yul\":3918:3921   */\n      dup3\n        /* \"#utility.yul\":3911:3948   */\n      mstore\n        /* \"#utility.yul\":3836:3954   */\n      pop\n      pop\n      jump\t// out\n        /* \"#utility.yul\":3960:4182   */\n    tag_34:\n        /* \"#utility.yul\":4053:4057   */\n      0x00\n        /* \"#utility.yul\":4091:4093   */\n      0x20\n        /* \"#utility.yul\":4080:4089   */\n      dup3\n        /* \"#utility.yul\":4076:4094   */\n      add\n        /* \"#utility.yul\":4068:4094   */\n      swap1\n      pop\n        /* \"#utility.yul\":4104:4175   */\n      tag_264\n        /* \"#utility.yul\":4172:4173   */\n      0x00\n        /* \"#utility.yul\":4161:4170   */\n      dup4\n        /* \"#utility.yul\":4157:4174   */\n      add\n        /* \"#utility.yul\":4148:4154   */\n      dup5\n        /* \"#utility.yul\":4104:4175   */\n      tag_178\n      jump\t// in\n    tag_264:\n        /* \"#utility.yul\":3960:4182   */\n      swap3\n      swap2\n      pop\n      pop\n      jump\t// out\n        /* \"#utility.yul\":4188:4331   */\n    tag_179:\n        /* \"#utility.yul\":4245:4250   */\n      0x00\n        /* \"#utility.yul\":4276:4282   */\n      dup2\n        /* \"#utility.yul\":4270:4283   */\n      mload\n        /* \"#utility.yul\":4261:4283   */\n      swap1\n      pop\n        /* \"#utility.yul\":4292:4325   */\n      tag_266\n        /* \"#utility.yul\":4319:4324   */\n      dup2\n        /* \"#utility.yul\":4292:4325   */\n      tag_173\n      jump\t// in\n    tag_266:\n        /* \"#utility.yul\":4188:4331   */\n      swap3\n      swap2\n      pop\n      pop\n      jump\t// out\n        /* \"#utility.yul\":4337:4688   */\n    tag_38:\n        /* \"#utility.yul\":4407:4413   */\n      0x00\n        /* \"#utility.yul\":4456:4458   */\n      0x20\n        /* \"#utility.yul\":4444:4453   */\n      dup3\n        /* \"#utility.yul\":4435:4442   */\n      dup5\n        /* \"#utility.yul\":4431:4454   */\n      sub\n        /* \"#utility.yul\":4427:4459   */\n      slt\n        /* \"#utility.yul\":4424:4543   */\n      iszero\n      tag_268\n      jumpi\n        /* \"#utility.yul\":4462:4541   */\n      tag_269\n      tag_166\n      jump\t// in\n    tag_269:\n        /* \"#utility.yul\":4424:4543   */\n    tag_268:\n        /* \"#utility.yul\":4582:4583   */\n      0x00\n        /* \"#utility.yul\":4607:4671   */\n      tag_270\n        /* \"#utility.yul\":4663:4670   */\n      dup5\n        /* \"#utility.yul\":4654:4660   */\n      dup3\n        /* \"#utility.yul\":4643:4652   */\n      dup6\n        /* \"#utility.yul\":4639:4661   */\n      add\n        /* \"#utility.yul\":4607:4671   */\n      tag_179\n      jump\t// in\n    tag_270:\n        /* \"#utility.yul\":4597:4671   */\n      swap2\n      pop\n        /* \"#utility.yul\":4553:4681   */\n      pop\n        /* \"#utility.yul\":4337:4688   */\n      swap3\n      swap2\n      pop\n      pop\n      jump\t// out\n        /* \"#utility.yul\":4694:4866   */\n    tag_180:\n        /* \"#utility.yul\":4834:4858   */\n      0x417574686f72697a65642073656e646572206f6e6c7900000000000000000000\n        /* \"#utility.yul\":4830:4831   */\n      0x00\n        /* \"#utility.yul\":4822:4828   */\n      dup3\n        /* \"#utility.yul\":4818:4832   */\n      add\n        /* \"#utility.yul\":4811:4859   */\n      mstore\n        /* \"#utility.yul\":4694:4866   */\n      pop\n      jump\t// out\n        /* \"#utility.yul\":4872:5238   */\n    tag_181:\n        /* \"#utility.yul\":5014:5017   */\n      0x00\n        /* \"#utility.yul\":5035:5102   */\n      tag_273\n        /* \"#utility.yul\":5099:5101   */\n      0x16\n        /* \"#utility.yul\":5094:5097   */\n      dup4\n        /* \"#utility.yul\":5035:5102   */\n      tag_175\n      jump\t// in\n    tag_273:\n        /* \"#utility.yul\":5028:5102   */\n      swap2\n      pop\n        /* \"#utility.yul\":5111:5204   */\n      tag_274\n        /* \"#utility.yul\":5200:5203   */\n      dup3\n        /* \"#utility.yul\":5111:5204   */\n      tag_180\n      jump\t// in\n    tag_274:\n        /* \"#utility.yul\":5229:5231   */\n      0x20\n        /* \"#utility.yul\":5224:5227   */\n      dup3\n        /* \"#utility.yul\":5220:5232   */\n      add\n        /* \"#utility.yul\":5213:5232   */\n      swap1\n      pop\n        /* \"#utility.yul\":4872:5238   */\n      swap2\n      swap1\n      pop\n      jump\t// out\n        /* \"#utility.yul\":5244:5663   */\n    tag_44:\n        /* \"#utility.yul\":5410:5414   */\n      0x00\n        /* \"#utility.yul\":5448:5450   */\n      0x20\n        /* \"#utility.yul\":5437:5446   */\n      dup3\n        /* \"#utility.yul\":5433:5451   */\n      add\n        /* \"#utility.yul\":5425:5451   */\n      swap1\n      pop\n        /* \"#utility.yul\":5497:5506   */\n      dup2\n        /* \"#utility.yul\":5491:5495   */\n      dup2\n        /* \"#utility.yul\":5487:5507   */\n      sub\n        /* \"#utility.yul\":5483:5484   */\n      0x00\n        /* \"#utility.yul\":5472:5481   */\n      dup4\n        /* \"#utility.yul\":5468:5485   */\n      add\n        /* \"#utility.yul\":5461:5508   */\n      mstore\n        /* \"#utility.yul\":5525:5656   */\n      tag_276\n        /* \"#utility.yul\":5651:5655   */\n      dup2\n        /* \"#utility.yul\":5525:5656   */\n      tag_181\n      jump\t// in\n    tag_276:\n        /* \"#utility.yul\":5517:5656   */\n      swap1\n      pop\n        /* \"#utility.yul\":5244:5663   */\n      swap2\n      swap1\n      pop\n      jump\t// out\n        /* \"#utility.yul\":5669:6001   */\n    tag_55:\n        /* \"#utility.yul\":5790:5794   */\n      0x00\n        /* \"#utility.yul\":5828:5830   */\n      0x40\n        /* \"#utility.yul\":5817:5826   */\n      dup3\n        /* \"#utility.yul\":5813:5831   */\n      add\n        /* \"#utility.yul\":5805:5831   */\n      swap1\n      pop\n        /* \"#utility.yul\":5841:5912   */\n      tag_278\n        /* \"#utility.yul\":5909:5910   */\n      0x00\n        /* \"#utility.yul\":5898:5907   */\n      dup4\n        /* \"#utility.yul\":5894:5911   */\n      add\n        /* \"#utility.yul\":5885:5891   */\n      dup6\n        /* \"#utility.yul\":5841:5912   */\n      tag_178\n      jump\t// in\n    tag_278:\n        /* \"#utility.yul\":5922:5994   */\n      tag_279\n        /* \"#utility.yul\":5990:5992   */\n      0x20\n        /* \"#utility.yul\":5979:5988   */\n      dup4\n        /* \"#utility.yul\":5975:5993   */\n      add\n        /* \"#utility.yul\":5966:5972   */\n      dup5\n        /* \"#utility.yul\":5922:5994   */\n      tag_178\n      jump\t// in\n    tag_279:\n        /* \"#utility.yul\":5669:6001   */\n      swap4\n      swap3\n      pop\n      pop\n      pop\n      jump\t// out\n        /* \"#utility.yul\":6007:6189   */\n    tag_182:\n        /* \"#utility.yul\":6147:6181   */\n      0x496e73756666696369656e7420617070726f76656420636f6c6c61746572616c\n        /* \"#utility.yul\":6143:6144   */\n      0x00\n        /* \"#utility.yul\":6135:6141   */\n      dup3\n        /* \"#utility.yul\":6131:6145   */\n      add\n        /* \"#utility.yul\":6124:6182   */\n      mstore\n        /* \"#utility.yul\":6007:6189   */\n      pop\n      jump\t// out\n        /* \"#utility.yul\":6195:6561   */\n    tag_183:\n        /* \"#utility.yul\":6337:6340   */\n      0x00\n        /* \"#utility.yul\":6358:6425   */\n      tag_282\n        /* \"#utility.yul\":6422:6424   */\n      0x20\n        /* \"#utility.yul\":6417:6420   */\n      dup4\n        /* \"#utility.yul\":6358:6425   */\n      tag_175\n      jump\t// in\n    tag_282:\n        /* \"#utility.yul\":6351:6425   */\n      swap2\n      pop\n        /* \"#utility.yul\":6434:6527   */\n      tag_283\n        /* \"#utility.yul\":6523:6526   */\n      dup3\n        /* \"#utility.yul\":6434:6527   */\n      tag_182\n      jump\t// in\n    tag_283:\n        /* \"#utility.yul\":6552:6554   */\n      0x20\n        /* \"#utility.yul\":6547:6550   */\n      dup3\n        /* \"#utility.yul\":6543:6555   */\n      add\n        /* \"#utility.yul\":6536:6555   */\n      swap1\n      pop\n        /* \"#utility.yul\":6195:6561   */\n      swap2\n      swap1\n      pop\n      jump\t// out\n        /* \"#utility.yul\":6567:6986   */\n    tag_61:\n        /* \"#utility.yul\":6733:6737   */\n      0x00\n        /* \"#utility.yul\":6771:6773   */\n      0x20\n        /* \"#utility.yul\":6760:6769   */\n      dup3\n        /* \"#utility.yul\":6756:6774   */\n      add\n        /* \"#utility.yul\":6748:6774   */\n      swap1\n      pop\n        /* \"#utility.yul\":6820:6829   */\n      dup2\n        /* \"#utility.yul\":6814:6818   */\n      dup2\n        /* \"#utility.yul\":6810:6830   */\n      sub\n        /* \"#utility.yul\":6806:6807   */\n      0x00\n        /* \"#utility.yul\":6795:6804   */\n      dup4\n        /* \"#utility.yul\":6791:6808   */\n      add\n        /* \"#utility.yul\":6784:6831   */\n      mstore\n        /* \"#utility.yul\":6848:6979   */\n      tag_285\n        /* \"#utility.yul\":6974:6978   */\n      dup2\n        /* \"#utility.yul\":6848:6979   */\n      tag_183\n      jump\t// in\n    tag_285:\n        /* \"#utility.yul\":6840:6979   */\n      swap1\n      pop\n        /* \"#utility.yul\":6567:6986   */\n      swap2\n      swap1\n      pop\n      jump\t// out\n        /* \"#utility.yul\":6992:7212   */\n    tag_184:\n        /* \"#utility.yul\":7132:7166   */\n      0x496e73756666696369656e7420636f6c6c61746572616c20617661696c61626c\n        /* \"#utility.yul\":7128:7129   */\n      0x00\n        /* \"#utility.yul\":7120:7126   */\n      dup3\n        /* \"#utility.yul\":7116:7130   */\n      add\n        /* \"#utility.yul\":7109:7167   */\n      mstore\n        /* \"#utility.yul\":7201:7204   */\n      0x6500000000000000000000000000000000000000000000000000000000000000\n        /* \"#utility.yul\":7196:7198   */\n      0x20\n        /* \"#utility.yul\":7188:7194   */\n      dup3\n        /* \"#utility.yul\":7184:7199   */\n      add\n        /* \"#utility.yul\":7177:7205   */\n      mstore\n        /* \"#utility.yul\":6992:7212   */\n      pop\n      jump\t// out\n        /* \"#utility.yul\":7218:7584   */\n    tag_185:\n        /* \"#utility.yul\":7360:7363   */\n      0x00\n        /* \"#utility.yul\":7381:7448   */\n      tag_288\n        /* \"#utility.yul\":7445:7447   */\n      0x21\n        /* \"#utility.yul\":7440:7443   */\n      dup4\n        /* \"#utility.yul\":7381:7448   */\n      tag_175\n      jump\t// in\n    tag_288:\n        /* \"#utility.yul\":7374:7448   */\n      swap2\n      pop\n        /* \"#utility.yul\":7457:7550   */\n      tag_289\n        /* \"#utility.yul\":7546:7549   */\n      dup3\n        /* \"#utility.yul\":7457:7550   */\n      tag_184\n      jump\t// in\n    tag_289:\n        /* \"#utility.yul\":7575:7577   */\n      0x40\n        /* \"#utility.yul\":7570:7573   */\n      dup3\n        /* \"#utility.yul\":7566:7578   */\n      add\n        /* \"#utility.yul\":7559:7578   */\n      swap1\n      pop\n        /* \"#utility.yul\":7218:7584   */\n      swap2\n      swap1\n      pop\n      jump\t// out\n        /* \"#utility.yul\":7590:8009   */\n    tag_68:\n        /* \"#utility.yul\":7756:7760   */\n      0x00\n        /* \"#utility.yul\":7794:7796   */\n      0x20\n        /* \"#utility.yul\":7783:7792   */\n      dup3\n        /* \"#utility.yul\":7779:7797   */\n      add\n        /* \"#utility.yul\":7771:7797   */\n      swap1\n      pop\n        /* \"#utility.yul\":7843:7852   */\n      dup2\n        /* \"#utility.yul\":7837:7841   */\n      dup2\n        /* \"#utility.yul\":7833:7853   */\n      sub\n        /* \"#utility.yul\":7829:7830   */\n      0x00\n        /* \"#utility.yul\":7818:7827   */\n      dup4\n        /* \"#utility.yul\":7814:7831   */\n      add\n        /* \"#utility.yul\":7807:7854   */\n      mstore\n        /* \"#utility.yul\":7871:8002   */\n      tag_291\n        /* \"#utility.yul\":7997:8001   */\n      dup2\n        /* \"#utility.yul\":7871:8002   */\n      tag_185\n      jump\t// in\n    tag_291:\n        /* \"#utility.yul\":7863:8002   */\n      swap1\n      pop\n        /* \"#utility.yul\":7590:8009   */\n      swap2\n      swap1\n      pop\n      jump\t// out\n        /* \"#utility.yul\":8015:8133   */\n    tag_186:\n        /* \"#utility.yul\":8102:8126   */\n      tag_293\n        /* \"#utility.yul\":8120:8125   */\n      dup2\n        /* \"#utility.yul\":8102:8126   */\n      tag_172\n      jump\t// in\n    tag_293:\n        /* \"#utility.yul\":8097:8100   */\n      dup3\n        /* \"#utility.yul\":8090:8127   */\n      mstore\n        /* \"#utility.yul\":8015:8133   */\n      pop\n      pop\n      jump\t// out\n        /* \"#utility.yul\":8139:8581   */\n    tag_70:\n        /* \"#utility.yul\":8288:8292   */\n      0x00\n        /* \"#utility.yul\":8326:8328   */\n      0x60\n        /* \"#utility.yul\":8315:8324   */\n      dup3\n        /* \"#utility.yul\":8311:8329   */\n      add\n        /* \"#utility.yul\":8303:8329   */\n      swap1\n      pop\n        /* \"#utility.yul\":8339:8410   */\n      tag_295\n        /* \"#utility.yul\":8407:8408   */\n      0x00\n        /* \"#utility.yul\":8396:8405   */\n      dup4\n        /* \"#utility.yul\":8392:8409   */\n      add\n        /* \"#utility.yul\":8383:8389   */\n      dup7\n        /* \"#utility.yul\":8339:8410   */\n      tag_178\n      jump\t// in\n    tag_295:\n        /* \"#utility.yul\":8420:8492   */\n      tag_296\n        /* \"#utility.yul\":8488:8490   */\n      0x20\n        /* \"#utility.yul\":8477:8486   */\n      dup4\n        /* \"#utility.yul\":8473:8491   */\n      add\n        /* \"#utility.yul\":8464:8470   */\n      dup6\n        /* \"#utility.yul\":8420:8492   */\n      tag_178\n      jump\t// in\n    tag_296:\n        /* \"#utility.yul\":8502:8574   */\n      tag_297\n        /* \"#utility.yul\":8570:8572   */\n      0x40\n        /* \"#utility.yul\":8559:8568   */\n      dup4\n        /* \"#utility.yul\":8555:8573   */\n      add\n        /* \"#utility.yul\":8546:8552   */\n      dup5\n        /* \"#utility.yul\":8502:8574   */\n      tag_186\n      jump\t// in\n    tag_297:\n        /* \"#utility.yul\":8139:8581   */\n      swap5\n      swap4\n      pop\n      pop\n      pop\n      pop\n      jump\t// out\n        /* \"#utility.yul\":8587:8677   */\n    tag_187:\n        /* \"#utility.yul\":8621:8628   */\n      0x00\n        /* \"#utility.yul\":8664:8669   */\n      dup2\n        /* \"#utility.yul\":8657:8670   */\n      iszero\n        /* \"#utility.yul\":8650:8671   */\n      iszero\n        /* \"#utility.yul\":8639:8671   */\n      swap1\n      pop\n        /* \"#utility.yul\":8587:8677   */\n      swap2\n      swap1\n      pop\n      jump\t// out\n        /* \"#utility.yul\":8683:8799   */\n    tag_188:\n        /* \"#utility.yul\":8753:8774   */\n      tag_300\n        /* \"#utility.yul\":8768:8773   */\n      dup2\n        /* \"#utility.yul\":8753:8774   */\n      tag_187\n      jump\t// in\n    tag_300:\n        /* \"#utility.yul\":8746:8751   */\n      dup2\n        /* \"#utility.yul\":8743:8775   */\n      eq\n        /* \"#utility.yul\":8733:8793   */\n      tag_301\n      jumpi\n        /* \"#utility.yul\":8789:8790   */\n      0x00\n        /* \"#utility.yul\":8786:8787   */\n      dup1\n        /* \"#utility.yul\":8779:8791   */\n      revert\n        /* \"#utility.yul\":8733:8793   */\n    tag_301:\n        /* \"#utility.yul\":8683:8799   */\n      pop\n      jump\t// out\n        /* \"#utility.yul\":8805:8942   */\n    tag_189:\n        /* \"#utility.yul\":8859:8864   */\n      0x00\n        /* \"#utility.yul\":8890:8896   */\n      dup2\n        /* \"#utility.yul\":8884:8897   */\n      mload\n        /* \"#utility.yul\":8875:8897   */\n      swap1\n      pop\n        /* \"#utility.yul\":8906:8936   */\n      tag_303\n        /* \"#utility.yul\":8930:8935   */\n      dup2\n        /* \"#utility.yul\":8906:8936   */\n      tag_188\n      jump\t// in\n    tag_303:\n        /* \"#utility.yul\":8805:8942   */\n      swap3\n      swap2\n      pop\n      pop\n      jump\t// out\n        /* \"#utility.yul\":8948:9293   */\n    tag_74:\n        /* \"#utility.yul\":9015:9021   */\n      0x00\n        /* \"#utility.yul\":9064:9066   */\n      0x20\n        /* \"#utility.yul\":9052:9061   */\n      dup3\n        /* \"#utility.yul\":9043:9050   */\n      dup5\n        /* \"#utility.yul\":9039:9062   */\n      sub\n        /* \"#utility.yul\":9035:9067   */\n      slt\n        /* \"#utility.yul\":9032:9151   */\n      iszero\n      tag_305\n      jumpi\n        /* \"#utility.yul\":9070:9149   */\n      tag_306\n      tag_166\n      jump\t// in\n    tag_306:\n        /* \"#utility.yul\":9032:9151   */\n    tag_305:\n        /* \"#utility.yul\":9190:9191   */\n      0x00\n        /* \"#utility.yul\":9215:9276   */\n      tag_307\n        /* \"#utility.yul\":9268:9275   */\n      dup5\n        /* \"#utility.yul\":9259:9265   */\n      dup3\n        /* \"#utility.yul\":9248:9257   */\n      dup6\n        /* \"#utility.yul\":9244:9266   */\n      add\n        /* \"#utility.yul\":9215:9276   */\n      tag_189\n      jump\t// in\n    tag_307:\n        /* \"#utility.yul\":9205:9276   */\n      swap2\n      pop\n        /* \"#utility.yul\":9161:9286   */\n      pop\n        /* \"#utility.yul\":8948:9293   */\n      swap3\n      swap2\n      pop\n      pop\n      jump\t// out\n        /* \"#utility.yul\":9299:9631   */\n    tag_76:\n        /* \"#utility.yul\":9420:9424   */\n      0x00\n        /* \"#utility.yul\":9458:9460   */\n      0x40\n        /* \"#utility.yul\":9447:9456   */\n      dup3\n        /* \"#utility.yul\":9443:9461   */\n      add\n        /* \"#utility.yul\":9435:9461   */\n      swap1\n      pop\n        /* \"#utility.yul\":9471:9542   */\n      tag_309\n        /* \"#utility.yul\":9539:9540   */\n      0x00\n        /* \"#utility.yul\":9528:9537   */\n      dup4\n        /* \"#utility.yul\":9524:9541   */\n      add\n        /* \"#utility.yul\":9515:9521   */\n      dup6\n        /* \"#utility.yul\":9471:9542   */\n      tag_178\n      jump\t// in\n    tag_309:\n        /* \"#utility.yul\":9552:9624   */\n      tag_310\n        /* \"#utility.yul\":9620:9622   */\n      0x20\n        /* \"#utility.yul\":9609:9618   */\n      dup4\n        /* \"#utility.yul\":9605:9623   */\n      add\n        /* \"#utility.yul\":9596:9602   */\n      dup5\n        /* \"#utility.yul\":9552:9624   */\n      tag_186\n      jump\t// in\n    tag_310:\n        /* \"#utility.yul\":9299:9631   */\n      swap4\n      swap3\n      pop\n      pop\n      pop\n      jump\t// out\n        /* \"#utility.yul\":9637:9722   */\n    tag_190:\n        /* \"#utility.yul\":9682:9689   */\n      0x00\n        /* \"#utility.yul\":9711:9716   */\n      dup2\n        /* \"#utility.yul\":9700:9716   */\n      swap1\n      pop\n        /* \"#utility.yul\":9637:9722   */\n      swap2\n      swap1\n      pop\n      jump\t// out\n        /* \"#utility.yul\":9728:9817   */\n    tag_191:\n        /* \"#utility.yul\":9764:9771   */\n      0x00\n        /* \"#utility.yul\":9804:9810   */\n      0xffff\n        /* \"#utility.yul\":9797:9802   */\n      dup3\n        /* \"#utility.yul\":9793:9811   */\n      and\n        /* \"#utility.yul\":9782:9811   */\n      swap1\n      pop\n        /* \"#utility.yul\":9728:9817   */\n      swap2\n      swap1\n      pop\n      jump\t// out\n        /* \"#utility.yul\":9823:9883   */\n    tag_192:\n        /* \"#utility.yul\":9851:9854   */\n      0x00\n        /* \"#utility.yul\":9872:9877   */\n      dup2\n        /* \"#utility.yul\":9865:9877   */\n      swap1\n      pop\n        /* \"#utility.yul\":9823:9883   */\n      swap2\n      swap1\n      pop\n      jump\t// out\n        /* \"#utility.yul\":9889:10045   */\n    tag_193:\n        /* \"#utility.yul\":9946:9955   */\n      0x00\n        /* \"#utility.yul\":9979:10039   */\n      tag_315\n        /* \"#utility.yul\":9996:10038   */\n      tag_316\n        /* \"#utility.yul\":10005:10037   */\n      tag_317\n        /* \"#utility.yul\":10031:10036   */\n      dup5\n        /* \"#utility.yul\":10005:10037   */\n      tag_190\n      jump\t// in\n    tag_317:\n        /* \"#utility.yul\":9996:10038   */\n      tag_192\n      jump\t// in\n    tag_316:\n        /* \"#utility.yul\":9979:10039   */\n      tag_191\n      jump\t// in\n    tag_315:\n        /* \"#utility.yul\":9966:10039   */\n      swap1\n      pop\n        /* \"#utility.yul\":9889:10045   */\n      swap2\n      swap1\n      pop\n      jump\t// out\n        /* \"#utility.yul\":10051:10196   */\n    tag_194:\n        /* \"#utility.yul\":10145:10189   */\n      tag_319\n        /* \"#utility.yul\":10183:10188   */\n      dup2\n        /* \"#utility.yul\":10145:10189   */\n      tag_193\n      jump\t// in\n    tag_319:\n        /* \"#utility.yul\":10140:10143   */\n      dup3\n        /* \"#utility.yul\":10133:10190   */\n      mstore\n        /* \"#utility.yul\":10051:10196   */\n      pop\n      pop\n      jump\t// out\n        /* \"#utility.yul\":10202:10769   */\n    tag_81:\n        /* \"#utility.yul\":10386:10390   */\n      0x00\n        /* \"#utility.yul\":10424:10427   */\n      0x80\n        /* \"#utility.yul\":10413:10422   */\n      dup3\n        /* \"#utility.yul\":10409:10428   */\n      add\n        /* \"#utility.yul\":10401:10428   */\n      swap1\n      pop\n        /* \"#utility.yul\":10438:10509   */\n      tag_321\n        /* \"#utility.yul\":10506:10507   */\n      0x00\n        /* \"#utility.yul\":10495:10504   */\n      dup4\n        /* \"#utility.yul\":10491:10508   */\n      add\n        /* \"#utility.yul\":10482:10488   */\n      dup8\n        /* \"#utility.yul\":10438:10509   */\n      tag_178\n      jump\t// in\n    tag_321:\n        /* \"#utility.yul\":10519:10591   */\n      tag_322\n        /* \"#utility.yul\":10587:10589   */\n      0x20\n        /* \"#utility.yul\":10576:10585   */\n      dup4\n        /* \"#utility.yul\":10572:10590   */\n      add\n        /* \"#utility.yul\":10563:10569   */\n      dup7\n        /* \"#utility.yul\":10519:10591   */\n      tag_186\n      jump\t// in\n    tag_322:\n        /* \"#utility.yul\":10601:10673   */\n      tag_323\n        /* \"#utility.yul\":10669:10671   */\n      0x40\n        /* \"#utility.yul\":10658:10667   */\n      dup4\n        /* \"#utility.yul\":10654:10672   */\n      add\n        /* \"#utility.yul\":10645:10651   */\n      dup6\n        /* \"#utility.yul\":10601:10673   */\n      tag_178\n      jump\t// in\n    tag_323:\n        /* \"#utility.yul\":10683:10762   */\n      tag_324\n        /* \"#utility.yul\":10758:10760   */\n      0x60\n        /* \"#utility.yul\":10747:10756   */\n      dup4\n        /* \"#utility.yul\":10743:10761   */\n      add\n        /* \"#utility.yul\":10734:10740   */\n      dup5\n        /* \"#utility.yul\":10683:10762   */\n      tag_194\n      jump\t// in\n    tag_324:\n        /* \"#utility.yul\":10202:10769   */\n      swap6\n      swap5\n      pop\n      pop\n      pop\n      pop\n      pop\n      jump\t// out\n        /* \"#utility.yul\":10775:11909   */\n    tag_89:\n        /* \"#utility.yul\":10890:10896   */\n      0x00\n        /* \"#utility.yul\":10898:10904   */\n      dup1\n        /* \"#utility.yul\":10906:10912   */\n      0x00\n        /* \"#utility.yul\":10914:10920   */\n      dup1\n        /* \"#utility.yul\":10922:10928   */\n      0x00\n        /* \"#utility.yul\":10930:10936   */\n      dup1\n        /* \"#utility.yul\":10979:10982   */\n      0xc0\n        /* \"#utility.yul\":10967:10976   */\n      dup8\n        /* \"#utility.yul\":10958:10965   */\n      dup10\n        /* \"#utility.yul\":10954:10977   */\n      sub\n        /* \"#utility.yul\":10950:10983   */\n      slt\n        /* \"#utility.yul\":10947:11067   */\n      iszero\n      tag_326\n      jumpi\n        /* \"#utility.yul\":10986:11065   */\n      tag_327\n      tag_166\n      jump\t// in\n    tag_327:\n        /* \"#utility.yul\":10947:11067   */\n    tag_326:\n        /* \"#utility.yul\":11106:11107   */\n      0x00\n        /* \"#utility.yul\":11131:11195   */\n      tag_328\n        /* \"#utility.yul\":11187:11194   */\n      dup10\n        /* \"#utility.yul\":11178:11184   */\n      dup3\n        /* \"#utility.yul\":11167:11176   */\n      dup11\n        /* \"#utility.yul\":11163:11185   */\n      add\n        /* \"#utility.yul\":11131:11195   */\n      tag_179\n      jump\t// in\n    tag_328:\n        /* \"#utility.yul\":11121:11195   */\n      swap7\n      pop\n        /* \"#utility.yul\":11077:11205   */\n      pop\n        /* \"#utility.yul\":11244:11246   */\n      0x20\n        /* \"#utility.yul\":11270:11334   */\n      tag_329\n        /* \"#utility.yul\":11326:11333   */\n      dup10\n        /* \"#utility.yul\":11317:11323   */\n      dup3\n        /* \"#utility.yul\":11306:11315   */\n      dup11\n        /* \"#utility.yul\":11302:11324   */\n      add\n        /* \"#utility.yul\":11270:11334   */\n      tag_179\n      jump\t// in\n    tag_329:\n        /* \"#utility.yul\":11260:11334   */\n      swap6\n      pop\n        /* \"#utility.yul\":11215:11344   */\n      pop\n        /* \"#utility.yul\":11383:11385   */\n      0x40\n        /* \"#utility.yul\":11409:11473   */\n      tag_330\n        /* \"#utility.yul\":11465:11472   */\n      dup10\n        /* \"#utility.yul\":11456:11462   */\n      dup3\n        /* \"#utility.yul\":11445:11454   */\n      dup11\n        /* \"#utility.yul\":11441:11463   */\n      add\n        /* \"#utility.yul\":11409:11473   */\n      tag_179\n      jump\t// in\n    tag_330:\n        /* \"#utility.yul\":11399:11473   */\n      swap5\n      pop\n        /* \"#utility.yul\":11354:11483   */\n      pop\n        /* \"#utility.yul\":11522:11524   */\n      0x60\n        /* \"#utility.yul\":11548:11612   */\n      tag_331\n        /* \"#utility.yul\":11604:11611   */\n      dup10\n        /* \"#utility.yul\":11595:11601   */\n      dup3\n        /* \"#utility.yul\":11584:11593   */\n      dup11\n        /* \"#utility.yul\":11580:11602   */\n      add\n        /* \"#utility.yul\":11548:11612   */\n      tag_179\n      jump\t// in\n    tag_331:\n        /* \"#utility.yul\":11538:11612   */\n      swap4\n      pop\n        /* \"#utility.yul\":11493:11622   */\n      pop\n        /* \"#utility.yul\":11661:11664   */\n      0x80\n        /* \"#utility.yul\":11688:11752   */\n      tag_332\n        /* \"#utility.yul\":11744:11751   */\n      dup10\n        /* \"#utility.yul\":11735:11741   */\n      dup3\n        /* \"#utility.yul\":11724:11733   */\n      dup11\n        /* \"#utility.yul\":11720:11742   */\n      add\n        /* \"#utility.yul\":11688:11752   */\n      tag_179\n      jump\t// in\n    tag_332:\n        /* \"#utility.yul\":11678:11752   */\n      swap3\n      pop\n        /* \"#utility.yul\":11632:11762   */\n      pop\n        /* \"#utility.yul\":11801:11804   */\n      0xa0\n        /* \"#utility.yul\":11828:11892   */\n      tag_333\n        /* \"#utility.yul\":11884:11891   */\n      dup10\n        /* \"#utility.yul\":11875:11881   */\n      dup3\n        /* \"#utility.yul\":11864:11873   */\n      dup11\n        /* \"#utility.yul\":11860:11882   */\n      add\n        /* \"#utility.yul\":11828:11892   */\n      tag_179\n      jump\t// in\n    tag_333:\n        /* \"#utility.yul\":11818:11892   */\n      swap2\n      pop\n        /* \"#utility.yul\":11772:11902   */\n      pop\n        /* \"#utility.yul\":10775:11909   */\n      swap3\n      swap6\n      pop\n      swap3\n      swap6\n      pop\n      swap3\n      swap6\n      jump\t// out\n        /* \"#utility.yul\":11915:12247   */\n    tag_91:\n        /* \"#utility.yul\":12036:12040   */\n      0x00\n        /* \"#utility.yul\":12074:12076   */\n      0x40\n        /* \"#utility.yul\":12063:12072   */\n      dup3\n        /* \"#utility.yul\":12059:12077   */\n      add\n        /* \"#utility.yul\":12051:12077   */\n      swap1\n      pop\n        /* \"#utility.yul\":12087:12158   */\n      tag_335\n        /* \"#utility.yul\":12155:12156   */\n      0x00\n        /* \"#utility.yul\":12144:12153   */\n      dup4\n        /* \"#utility.yul\":12140:12157   */\n      add\n        /* \"#utility.yul\":12131:12137   */\n      dup6\n        /* \"#utility.yul\":12087:12158   */\n      tag_186\n      jump\t// in\n    tag_335:\n        /* \"#utility.yul\":12168:12240   */\n      tag_336\n        /* \"#utility.yul\":12236:12238   */\n      0x20\n        /* \"#utility.yul\":12225:12234   */\n      dup4\n        /* \"#utility.yul\":12221:12239   */\n      add\n        /* \"#utility.yul\":12212:12218   */\n      dup5\n        /* \"#utility.yul\":12168:12240   */\n      tag_186\n      jump\t// in\n    tag_336:\n        /* \"#utility.yul\":11915:12247   */\n      swap4\n      swap3\n      pop\n      pop\n      pop\n      jump\t// out\n        /* \"#utility.yul\":12253:12421   */\n    tag_195:\n        /* \"#utility.yul\":12393:12413   */\n      0x496e73756666696369656e742066756e64730000000000000000000000000000\n        /* \"#utility.yul\":12389:12390   */\n      0x00\n        /* \"#utility.yul\":12381:12387   */\n      dup3\n        /* \"#utility.yul\":12377:12391   */\n      add\n        /* \"#utility.yul\":12370:12414   */\n      mstore\n        /* \"#utility.yul\":12253:12421   */\n      pop\n      jump\t// out\n        /* \"#utility.yul\":12427:12793   */\n    tag_196:\n        /* \"#utility.yul\":12569:12572   */\n      0x00\n        /* \"#utility.yul\":12590:12657   */\n      tag_339\n        /* \"#utility.yul\":12654:12656   */\n      0x12\n        /* \"#utility.yul\":12649:12652   */\n      dup4\n        /* \"#utility.yul\":12590:12657   */\n      tag_175\n      jump\t// in\n    tag_339:\n        /* \"#utility.yul\":12583:12657   */\n      swap2\n      pop\n        /* \"#utility.yul\":12666:12759   */\n      tag_340\n        /* \"#utility.yul\":12755:12758   */\n      dup3\n        /* \"#utility.yul\":12666:12759   */\n      tag_195\n      jump\t// in\n    tag_340:\n        /* \"#utility.yul\":12784:12786   */\n      0x20\n        /* \"#utility.yul\":12779:12782   */\n      dup3\n        /* \"#utility.yul\":12775:12787   */\n      add\n        /* \"#utility.yul\":12768:12787   */\n      swap1\n      pop\n        /* \"#utility.yul\":12427:12793   */\n      swap2\n      swap1\n      pop\n      jump\t// out\n        /* \"#utility.yul\":12799:13218   */\n    tag_95:\n        /* \"#utility.yul\":12965:12969   */\n      0x00\n        /* \"#utility.yul\":13003:13005   */\n      0x20\n        /* \"#utility.yul\":12992:13001   */\n      dup3\n        /* \"#utility.yul\":12988:13006   */\n      add\n        /* \"#utility.yul\":12980:13006   */\n      swap1\n      pop\n        /* \"#utility.yul\":13052:13061   */\n      dup2\n        /* \"#utility.yul\":13046:13050   */\n      dup2\n        /* \"#utility.yul\":13042:13062   */\n      sub\n        /* \"#utility.yul\":13038:13039   */\n      0x00\n        /* \"#utility.yul\":13027:13036   */\n      dup4\n        /* \"#utility.yul\":13023:13040   */\n      add\n        /* \"#utility.yul\":13016:13063   */\n      mstore\n        /* \"#utility.yul\":13080:13211   */\n      tag_342\n        /* \"#utility.yul\":13206:13210   */\n      dup2\n        /* \"#utility.yul\":13080:13211   */\n      tag_196\n      jump\t// in\n    tag_342:\n        /* \"#utility.yul\":13072:13211   */\n      swap1\n      pop\n        /* \"#utility.yul\":12799:13218   */\n      swap2\n      swap1\n      pop\n      jump\t// out\n        /* \"#utility.yul\":13224:13404   */\n    tag_99:\n        /* \"#utility.yul\":13272:13349   */\n      0x4e487b7100000000000000000000000000000000000000000000000000000000\n        /* \"#utility.yul\":13269:13270   */\n      0x00\n        /* \"#utility.yul\":13262:13350   */\n      mstore\n        /* \"#utility.yul\":13369:13373   */\n      0x41\n        /* \"#utility.yul\":13366:13367   */\n      0x04\n        /* \"#utility.yul\":13359:13374   */\n      mstore\n        /* \"#utility.yul\":13393:13397   */\n      0x24\n        /* \"#utility.yul\":13390:13391   */\n      0x00\n        /* \"#utility.yul\":13383:13398   */\n      revert\n        /* \"#utility.yul\":13410:13508   */\n    tag_197:\n        /* \"#utility.yul\":13461:13467   */\n      0x00\n        /* \"#utility.yul\":13495:13500   */\n      dup2\n        /* \"#utility.yul\":13489:13501   */\n      mload\n        /* \"#utility.yul\":13479:13501   */\n      swap1\n      pop\n        /* \"#utility.yul\":13410:13508   */\n      swap2\n      swap1\n      pop\n      jump\t// out\n        /* \"#utility.yul\":13514:13661   */\n    tag_198:\n        /* \"#utility.yul\":13615:13626   */\n      0x00\n        /* \"#utility.yul\":13652:13655   */\n      dup2\n        /* \"#utility.yul\":13637:13655   */\n      swap1\n      pop\n        /* \"#utility.yul\":13514:13661   */\n      swap3\n      swap2\n      pop\n      pop\n      jump\t// out\n        /* \"#utility.yul\":13667:13806   */\n    tag_199:\n        /* \"#utility.yul\":13756:13762   */\n      dup3\n        /* \"#utility.yul\":13751:13754   */\n      dup2\n        /* \"#utility.yul\":13746:13749   */\n      dup4\n        /* \"#utility.yul\":13740:13763   */\n      mcopy\n        /* \"#utility.yul\":13797:13798   */\n      0x00\n        /* \"#utility.yul\":13788:13794   */\n      dup4\n        /* \"#utility.yul\":13783:13786   */\n      dup4\n        /* \"#utility.yul\":13779:13795   */\n      add\n        /* \"#utility.yul\":13772:13799   */\n      mstore\n        /* \"#utility.yul\":13667:13806   */\n      pop\n      pop\n      pop\n      jump\t// out\n        /* \"#utility.yul\":13812:14198   */\n    tag_200:\n        /* \"#utility.yul\":13916:13919   */\n      0x00\n        /* \"#utility.yul\":13944:13982   */\n      tag_348\n        /* \"#utility.yul\":13976:13981   */\n      dup3\n        /* \"#utility.yul\":13944:13982   */\n      tag_197\n      jump\t// in\n    tag_348:\n        /* \"#utility.yul\":13998:14086   */\n      tag_349\n        /* \"#utility.yul\":14079:14085   */\n      dup2\n        /* \"#utility.yul\":14074:14077   */\n      dup6\n        /* \"#utility.yul\":13998:14086   */\n      tag_198\n      jump\t// in\n    tag_349:\n        /* \"#utility.yul\":13991:14086   */\n      swap4\n      pop\n        /* \"#utility.yul\":14095:14160   */\n      tag_350\n        /* \"#utility.yul\":14153:14159   */\n      dup2\n        /* \"#utility.yul\":14148:14151   */\n      dup6\n        /* \"#utility.yul\":14141:14145   */\n      0x20\n        /* \"#utility.yul\":14134:14139   */\n      dup7\n        /* \"#utility.yul\":14130:14146   */\n      add\n        /* \"#utility.yul\":14095:14160   */\n      tag_199\n      jump\t// in\n    tag_350:\n        /* \"#utility.yul\":14185:14191   */\n      dup1\n        /* \"#utility.yul\":14180:14183   */\n      dup5\n        /* \"#utility.yul\":14176:14192   */\n      add\n        /* \"#utility.yul\":14169:14192   */\n      swap2\n      pop\n        /* \"#utility.yul\":13920:14198   */\n      pop\n        /* \"#utility.yul\":13812:14198   */\n      swap3\n      swap2\n      pop\n      pop\n      jump\t// out\n        /* \"#utility.yul\":14204:14475   */\n    tag_102:\n        /* \"#utility.yul\":14334:14337   */\n      0x00\n        /* \"#utility.yul\":14356:14449   */\n      tag_352\n        /* \"#utility.yul\":14445:14448   */\n      dup3\n        /* \"#utility.yul\":14436:14442   */\n      dup5\n        /* \"#utility.yul\":14356:14449   */\n      tag_200\n      jump\t// in\n    tag_352:\n        /* \"#utility.yul\":14349:14449   */\n      swap2\n      pop\n        /* \"#utility.yul\":14466:14469   */\n      dup2\n        /* \"#utility.yul\":14459:14469   */\n      swap1\n      pop\n        /* \"#utility.yul\":14204:14475   */\n      swap3\n      swap2\n      pop\n      pop\n      jump\t// out\n        /* \"#utility.yul\":14481:14646   */\n    tag_201:\n        /* \"#utility.yul\":14621:14638   */\n      0x5472616e73666572206661696c65640000000000000000000000000000000000\n        /* \"#utility.yul\":14617:14618   */\n      0x00\n        /* \"#utility.yul\":14609:14615   */\n      dup3\n        /* \"#utility.yul\":14605:14619   */\n      add\n        /* \"#utility.yul\":14598:14639   */\n      mstore\n        /* \"#utility.yul\":14481:14646   */\n      pop\n      jump\t// out\n        /* \"#utility.yul\":14652:15018   */\n    tag_202:\n        /* \"#utility.yul\":14794:14797   */\n      0x00\n        /* \"#utility.yul\":14815:14882   */\n      tag_355\n        /* \"#utility.yul\":14879:14881   */\n      0x0f\n        /* \"#utility.yul\":14874:14877   */\n      dup4\n        /* \"#utility.yul\":14815:14882   */\n      tag_175\n      jump\t// in\n    tag_355:\n        /* \"#utility.yul\":14808:14882   */\n      swap2\n      pop\n        /* \"#utility.yul\":14891:14984   */\n      tag_356\n        /* \"#utility.yul\":14980:14983   */\n      dup3\n        /* \"#utility.yul\":14891:14984   */\n      tag_201\n      jump\t// in\n    tag_356:\n        /* \"#utility.yul\":15009:15011   */\n      0x20\n        /* \"#utility.yul\":15004:15007   */\n      dup3\n        /* \"#utility.yul\":15000:15012   */\n      add\n        /* \"#utility.yul\":14993:15012   */\n      swap1\n      pop\n        /* \"#utility.yul\":14652:15018   */\n      swap2\n      swap1\n      pop\n      jump\t// out\n        /* \"#utility.yul\":15024:15443   */\n    tag_108:\n        /* \"#utility.yul\":15190:15194   */\n      0x00\n        /* \"#utility.yul\":15228:15230   */\n      0x20\n        /* \"#utility.yul\":15217:15226   */\n      dup3\n        /* \"#utility.yul\":15213:15231   */\n      add\n        /* \"#utility.yul\":15205:15231   */\n      swap1\n      pop\n        /* \"#utility.yul\":15277:15286   */\n      dup2\n        /* \"#utility.yul\":15271:15275   */\n      dup2\n        /* \"#utility.yul\":15267:15287   */\n      sub\n        /* \"#utility.yul\":15263:15264   */\n      0x00\n        /* \"#utility.yul\":15252:15261   */\n      dup4\n        /* \"#utility.yul\":15248:15265   */\n      add\n        /* \"#utility.yul\":15241:15288   */\n      mstore\n        /* \"#utility.yul\":15305:15436   */\n      tag_358\n        /* \"#utility.yul\":15431:15435   */\n      dup2\n        /* \"#utility.yul\":15305:15436   */\n      tag_202\n      jump\t// in\n    tag_358:\n        /* \"#utility.yul\":15297:15436   */\n      swap1\n      pop\n        /* \"#utility.yul\":15024:15443   */\n      swap2\n      swap1\n      pop\n      jump\t// out\n        /* \"#utility.yul\":15449:15629   */\n    tag_203:\n        /* \"#utility.yul\":15497:15574   */\n      0x4e487b7100000000000000000000000000000000000000000000000000000000\n        /* \"#utility.yul\":15494:15495   */\n      0x00\n        /* \"#utility.yul\":15487:15575   */\n      mstore\n        /* \"#utility.yul\":15594:15598   */\n      0x12\n        /* \"#utility.yul\":15591:15592   */\n      0x04\n        /* \"#utility.yul\":15584:15599   */\n      mstore\n        /* \"#utility.yul\":15618:15622   */\n      0x24\n        /* \"#utility.yul\":15615:15616   */\n      0x00\n        /* \"#utility.yul\":15608:15623   */\n      revert\n        /* \"#utility.yul\":15635:15815   */\n    tag_204:\n        /* \"#utility.yul\":15683:15760   */\n      0x4e487b7100000000000000000000000000000000000000000000000000000000\n        /* \"#utility.yul\":15680:15681   */\n      0x00\n        /* \"#utility.yul\":15673:15761   */\n      mstore\n        /* \"#utility.yul\":15780:15784   */\n      0x11\n        /* \"#utility.yul\":15777:15778   */\n      0x04\n        /* \"#utility.yul\":15770:15785   */\n      mstore\n        /* \"#utility.yul\":15804:15808   */\n      0x24\n        /* \"#utility.yul\":15801:15802   */\n      0x00\n        /* \"#utility.yul\":15794:15809   */\n      revert\n        /* \"#utility.yul\":15821:16006   */\n    tag_115:\n        /* \"#utility.yul\":15861:15862   */\n      0x00\n        /* \"#utility.yul\":15878:15898   */\n      tag_362\n        /* \"#utility.yul\":15896:15897   */\n      dup3\n        /* \"#utility.yul\":15878:15898   */\n      tag_172\n      jump\t// in\n    tag_362:\n        /* \"#utility.yul\":15873:15898   */\n      swap2\n      pop\n        /* \"#utility.yul\":15912:15932   */\n      tag_363\n        /* \"#utility.yul\":15930:15931   */\n      dup4\n        /* \"#utility.yul\":15912:15932   */\n      tag_172\n      jump\t// in\n    tag_363:\n        /* \"#utility.yul\":15907:15932   */\n      swap3\n      pop\n        /* \"#utility.yul\":15951:15952   */\n      dup3\n        /* \"#utility.yul\":15941:15976   */\n      tag_364\n      jumpi\n        /* \"#utility.yul\":15956:15974   */\n      tag_365\n      tag_203\n      jump\t// in\n    tag_365:\n        /* \"#utility.yul\":15941:15976   */\n    tag_364:\n        /* \"#utility.yul\":15998:15999   */\n      dup3\n        /* \"#utility.yul\":15995:15996   */\n      dup3\n        /* \"#utility.yul\":15991:16000   */\n      div\n        /* \"#utility.yul\":15986:16000   */\n      swap1\n      pop\n        /* \"#utility.yul\":15821:16006   */\n      swap3\n      swap2\n      pop\n      pop\n      jump\t// out\n        /* \"#utility.yul\":16012:16422   */\n    tag_117:\n        /* \"#utility.yul\":16052:16059   */\n      0x00\n        /* \"#utility.yul\":16075:16095   */\n      tag_367\n        /* \"#utility.yul\":16093:16094   */\n      dup3\n        /* \"#utility.yul\":16075:16095   */\n      tag_172\n      jump\t// in\n    tag_367:\n        /* \"#utility.yul\":16070:16095   */\n      swap2\n      pop\n        /* \"#utility.yul\":16109:16129   */\n      tag_368\n        /* \"#utility.yul\":16127:16128   */\n      dup4\n        /* \"#utility.yul\":16109:16129   */\n      tag_172\n      jump\t// in\n    tag_368:\n        /* \"#utility.yul\":16104:16129   */\n      swap3\n      pop\n        /* \"#utility.yul\":16164:16165   */\n      dup3\n        /* \"#utility.yul\":16161:16162   */\n      dup3\n        /* \"#utility.yul\":16157:16166   */\n      mul\n        /* \"#utility.yul\":16186:16216   */\n      tag_369\n        /* \"#utility.yul\":16204:16215   */\n      dup2\n        /* \"#utility.yul\":16186:16216   */\n      tag_172\n      jump\t// in\n    tag_369:\n        /* \"#utility.yul\":16175:16216   */\n      swap2\n      pop\n        /* \"#utility.yul\":16365:16366   */\n      dup3\n        /* \"#utility.yul\":16356:16363   */\n      dup3\n        /* \"#utility.yul\":16352:16367   */\n      div\n        /* \"#utility.yul\":16349:16350   */\n      dup5\n        /* \"#utility.yul\":16346:16368   */\n      eq\n        /* \"#utility.yul\":16326:16327   */\n      dup4\n        /* \"#utility.yul\":16319:16328   */\n      iszero\n        /* \"#utility.yul\":16299:16382   */\n      or\n        /* \"#utility.yul\":16276:16415   */\n      tag_370\n      jumpi\n        /* \"#utility.yul\":16395:16413   */\n      tag_371\n      tag_204\n      jump\t// in\n    tag_371:\n        /* \"#utility.yul\":16276:16415   */\n    tag_370:\n        /* \"#utility.yul\":16060:16422   */\n      pop\n        /* \"#utility.yul\":16012:16422   */\n      swap3\n      swap2\n      pop\n      pop\n      jump\t// out\n        /* \"#utility.yul\":16428:16622   */\n    tag_121:\n        /* \"#utility.yul\":16468:16472   */\n      0x00\n        /* \"#utility.yul\":16488:16508   */\n      tag_373\n        /* \"#utility.yul\":16506:16507   */\n      dup3\n        /* \"#utility.yul\":16488:16508   */\n      tag_172\n      jump\t// in\n    tag_373:\n        /* \"#utility.yul\":16483:16508   */\n      swap2\n      pop\n        /* \"#utility.yul\":16522:16542   */\n      tag_374\n        /* \"#utility.yul\":16540:16541   */\n      dup4\n        /* \"#utility.yul\":16522:16542   */\n      tag_172\n      jump\t// in\n    tag_374:\n        /* \"#utility.yul\":16517:16542   */\n      swap3\n      pop\n        /* \"#utility.yul\":16566:16567   */\n      dup3\n        /* \"#utility.yul\":16563:16564   */\n      dup3\n        /* \"#utility.yul\":16559:16568   */\n      sub\n        /* \"#utility.yul\":16551:16568   */\n      swap1\n      pop\n        /* \"#utility.yul\":16590:16591   */\n      dup2\n        /* \"#utility.yul\":16584:16588   */\n      dup2\n        /* \"#utility.yul\":16581:16592   */\n      gt\n        /* \"#utility.yul\":16578:16615   */\n      iszero\n      tag_375\n      jumpi\n        /* \"#utility.yul\":16595:16613   */\n      tag_376\n      tag_204\n      jump\t// in\n    tag_376:\n        /* \"#utility.yul\":16578:16615   */\n    tag_375:\n        /* \"#utility.yul\":16428:16622   */\n      swap3\n      swap2\n      pop\n      pop\n      jump\t// out\n        /* \"#utility.yul\":16628:16733   */\n    tag_205:\n        /* \"#utility.yul\":16664:16671   */\n      0x00\n        /* \"#utility.yul\":16704:16726   */\n      0xffffffffffffffffffff\n        /* \"#utility.yul\":16697:16702   */\n      dup3\n        /* \"#utility.yul\":16693:16727   */\n      and\n        /* \"#utility.yul\":16682:16727   */\n      swap1\n      pop\n        /* \"#utility.yul\":16628:16733   */\n      swap2\n      swap1\n      pop\n      jump\t// out\n        /* \"#utility.yul\":16739:16859   */\n    tag_206:\n        /* \"#utility.yul\":16811:16834   */\n      tag_379\n        /* \"#utility.yul\":16828:16833   */\n      dup2\n        /* \"#utility.yul\":16811:16834   */\n      tag_205\n      jump\t// in\n    tag_379:\n        /* \"#utility.yul\":16804:16809   */\n      dup2\n        /* \"#utility.yul\":16801:16835   */\n      eq\n        /* \"#utility.yul\":16791:16853   */\n      tag_380\n      jumpi\n        /* \"#utility.yul\":16849:16850   */\n      0x00\n        /* \"#utility.yul\":16846:16847   */\n      dup1\n        /* \"#utility.yul\":16839:16851   */\n      revert\n        /* \"#utility.yul\":16791:16853   */\n    tag_380:\n        /* \"#utility.yul\":16739:16859   */\n      pop\n      jump\t// out\n        /* \"#utility.yul\":16865:17006   */\n    tag_207:\n        /* \"#utility.yul\":16921:16926   */\n      0x00\n        /* \"#utility.yul\":16952:16958   */\n      dup2\n        /* \"#utility.yul\":16946:16959   */\n      mload\n        /* \"#utility.yul\":16937:16959   */\n      swap1\n      pop\n        /* \"#utility.yul\":16968:17000   */\n      tag_382\n        /* \"#utility.yul\":16994:16999   */\n      dup2\n        /* \"#utility.yul\":16968:17000   */\n      tag_206\n      jump\t// in\n    tag_382:\n        /* \"#utility.yul\":16865:17006   */\n      swap3\n      swap2\n      pop\n      pop\n      jump\t// out\n        /* \"#utility.yul\":17012:17088   */\n    tag_208:\n        /* \"#utility.yul\":17048:17055   */\n      0x00\n        /* \"#utility.yul\":17077:17082   */\n      dup2\n        /* \"#utility.yul\":17066:17082   */\n      swap1\n      pop\n        /* \"#utility.yul\":17012:17088   */\n      swap2\n      swap1\n      pop\n      jump\t// out\n        /* \"#utility.yul\":17094:17214   */\n    tag_209:\n        /* \"#utility.yul\":17166:17189   */\n      tag_385\n        /* \"#utility.yul\":17183:17188   */\n      dup2\n        /* \"#utility.yul\":17166:17189   */\n      tag_208\n      jump\t// in\n    tag_385:\n        /* \"#utility.yul\":17159:17164   */\n      dup2\n        /* \"#utility.yul\":17156:17190   */\n      eq\n        /* \"#utility.yul\":17146:17208   */\n      tag_386\n      jumpi\n        /* \"#utility.yul\":17204:17205   */\n      0x00\n        /* \"#utility.yul\":17201:17202   */\n      dup1\n        /* \"#utility.yul\":17194:17206   */\n      revert\n        /* \"#utility.yul\":17146:17208   */\n    tag_386:\n        /* \"#utility.yul\":17094:17214   */\n      pop\n      jump\t// out\n        /* \"#utility.yul\":17220:17361   */\n    tag_210:\n        /* \"#utility.yul\":17276:17281   */\n      0x00\n        /* \"#utility.yul\":17307:17313   */\n      dup2\n        /* \"#utility.yul\":17301:17314   */\n      mload\n        /* \"#utility.yul\":17292:17314   */\n      swap1\n      pop\n        /* \"#utility.yul\":17323:17355   */\n      tag_388\n        /* \"#utility.yul\":17349:17354   */\n      dup2\n        /* \"#utility.yul\":17323:17355   */\n      tag_209\n      jump\t// in\n    tag_388:\n        /* \"#utility.yul\":17220:17361   */\n      swap3\n      swap2\n      pop\n      pop\n      jump\t// out\n        /* \"#utility.yul\":17367:18338   */\n    tag_127:\n        /* \"#utility.yul\":17470:17476   */\n      0x00\n        /* \"#utility.yul\":17478:17484   */\n      dup1\n        /* \"#utility.yul\":17486:17492   */\n      0x00\n        /* \"#utility.yul\":17494:17500   */\n      dup1\n        /* \"#utility.yul\":17502:17508   */\n      0x00\n        /* \"#utility.yul\":17551:17554   */\n      0xa0\n        /* \"#utility.yul\":17539:17548   */\n      dup7\n        /* \"#utility.yul\":17530:17537   */\n      dup9\n        /* \"#utility.yul\":17526:17549   */\n      sub\n        /* \"#utility.yul\":17522:17555   */\n      slt\n        /* \"#utility.yul\":17519:17639   */\n      iszero\n      tag_390\n      jumpi\n        /* \"#utility.yul\":17558:17637   */\n      tag_391\n      tag_166\n      jump\t// in\n    tag_391:\n        /* \"#utility.yul\":17519:17639   */\n    tag_390:\n        /* \"#utility.yul\":17678:17679   */\n      0x00\n        /* \"#utility.yul\":17703:17766   */\n      tag_392\n        /* \"#utility.yul\":17758:17765   */\n      dup9\n        /* \"#utility.yul\":17749:17755   */\n      dup3\n        /* \"#utility.yul\":17738:17747   */\n      dup10\n        /* \"#utility.yul\":17734:17756   */\n      add\n        /* \"#utility.yul\":17703:17766   */\n      tag_207\n      jump\t// in\n    tag_392:\n        /* \"#utility.yul\":17693:17766   */\n      swap6\n      pop\n        /* \"#utility.yul\":17649:17776   */\n      pop\n        /* \"#utility.yul\":17815:17817   */\n      0x20\n        /* \"#utility.yul\":17841:17904   */\n      tag_393\n        /* \"#utility.yul\":17896:17903   */\n      dup9\n        /* \"#utility.yul\":17887:17893   */\n      dup3\n        /* \"#utility.yul\":17876:17885   */\n      dup10\n        /* \"#utility.yul\":17872:17894   */\n      add\n        /* \"#utility.yul\":17841:17904   */\n      tag_210\n      jump\t// in\n    tag_393:\n        /* \"#utility.yul\":17831:17904   */\n      swap5\n      pop\n        /* \"#utility.yul\":17786:17914   */\n      pop\n        /* \"#utility.yul\":17953:17955   */\n      0x40\n        /* \"#utility.yul\":17979:18043   */\n      tag_394\n        /* \"#utility.yul\":18035:18042   */\n      dup9\n        /* \"#utility.yul\":18026:18032   */\n      dup3\n        /* \"#utility.yul\":18015:18024   */\n      dup10\n        /* \"#utility.yul\":18011:18033   */\n      add\n        /* \"#utility.yul\":17979:18043   */\n      tag_179\n      jump\t// in\n    tag_394:\n        /* \"#utility.yul\":17969:18043   */\n      swap4\n      pop\n        /* \"#utility.yul\":17924:18053   */\n      pop\n        /* \"#utility.yul\":18092:18094   */\n      0x60\n        /* \"#utility.yul\":18118:18182   */\n      tag_395\n        /* \"#utility.yul\":18174:18181   */\n      dup9\n        /* \"#utility.yul\":18165:18171   */\n      dup3\n        /* \"#utility.yul\":18154:18163   */\n      dup10\n        /* \"#utility.yul\":18150:18172   */\n      add\n        /* \"#utility.yul\":18118:18182   */\n      tag_179\n      jump\t// in\n    tag_395:\n        /* \"#utility.yul\":18108:18182   */\n      swap3\n      pop\n        /* \"#utility.yul\":18063:18192   */\n      pop\n        /* \"#utility.yul\":18231:18234   */\n      0x80\n        /* \"#utility.yul\":18258:18321   */\n      tag_396\n        /* \"#utility.yul\":18313:18320   */\n      dup9\n        /* \"#utility.yul\":18304:18310   */\n      dup3\n        /* \"#utility.yul\":18293:18302   */\n      dup10\n        /* \"#utility.yul\":18289:18311   */\n      add\n        /* \"#utility.yul\":18258:18321   */\n      tag_207\n      jump\t// in\n    tag_396:\n        /* \"#utility.yul\":18248:18321   */\n      swap2\n      pop\n        /* \"#utility.yul\":18202:18331   */\n      pop\n        /* \"#utility.yul\":17367:18338   */\n      swap3\n      swap6\n      pop\n      swap3\n      swap6\n      swap1\n      swap4\n      pop\n      jump\t// out\n        /* \"#utility.yul\":18344:18518   */\n    tag_211:\n        /* \"#utility.yul\":18484:18510   */\n      0x496e76616c696420636f6c6c61746572616c2070726963650000000000000000\n        /* \"#utility.yul\":18480:18481   */\n      0x00\n        /* \"#utility.yul\":18472:18478   */\n      dup3\n        /* \"#utility.yul\":18468:18482   */\n      add\n        /* \"#utility.yul\":18461:18511   */\n      mstore\n        /* \"#utility.yul\":18344:18518   */\n      pop\n      jump\t// out\n        /* \"#utility.yul\":18524:18890   */\n    tag_212:\n        /* \"#utility.yul\":18666:18669   */\n      0x00\n        /* \"#utility.yul\":18687:18754   */\n      tag_399\n        /* \"#utility.yul\":18751:18753   */\n      0x18\n        /* \"#utility.yul\":18746:18749   */\n      dup4\n        /* \"#utility.yul\":18687:18754   */\n      tag_175\n      jump\t// in\n    tag_399:\n        /* \"#utility.yul\":18680:18754   */\n      swap2\n      pop\n        /* \"#utility.yul\":18763:18856   */\n      tag_400\n        /* \"#utility.yul\":18852:18855   */\n      dup3\n        /* \"#utility.yul\":18763:18856   */\n      tag_211\n      jump\t// in\n    tag_400:\n        /* \"#utility.yul\":18881:18883   */\n      0x20\n        /* \"#utility.yul\":18876:18879   */\n      dup3\n        /* \"#utility.yul\":18872:18884   */\n      add\n        /* \"#utility.yul\":18865:18884   */\n      swap1\n      pop\n        /* \"#utility.yul\":18524:18890   */\n      swap2\n      swap1\n      pop\n      jump\t// out\n        /* \"#utility.yul\":18896:19315   */\n    tag_133:\n        /* \"#utility.yul\":19062:19066   */\n      0x00\n        /* \"#utility.yul\":19100:19102   */\n      0x20\n        /* \"#utility.yul\":19089:19098   */\n      dup3\n        /* \"#utility.yul\":19085:19103   */\n      add\n        /* \"#utility.yul\":19077:19103   */\n      swap1\n      pop\n        /* \"#utility.yul\":19149:19158   */\n      dup2\n        /* \"#utility.yul\":19143:19147   */\n      dup2\n        /* \"#utility.yul\":19139:19159   */\n      sub\n        /* \"#utility.yul\":19135:19136   */\n      0x00\n        /* \"#utility.yul\":19124:19133   */\n      dup4\n        /* \"#utility.yul\":19120:19137   */\n      add\n        /* \"#utility.yul\":19113:19160   */\n      mstore\n        /* \"#utility.yul\":19177:19308   */\n      tag_402\n        /* \"#utility.yul\":19303:19307   */\n      dup2\n        /* \"#utility.yul\":19177:19308   */\n      tag_212\n      jump\t// in\n    tag_402:\n        /* \"#utility.yul\":19169:19308   */\n      swap1\n      pop\n        /* \"#utility.yul\":18896:19315   */\n      swap2\n      swap1\n      pop\n      jump\t// out\n        /* \"#utility.yul\":19321:19488   */\n    tag_213:\n        /* \"#utility.yul\":19461:19480   */\n      0x496e76616c696420455448207072696365000000000000000000000000000000\n        /* \"#utility.yul\":19457:19458   */\n      0x00\n        /* \"#utility.yul\":19449:19455   */\n      dup3\n        /* \"#utility.yul\":19445:19459   */\n      add\n        /* \"#utility.yul\":19438:19481   */\n      mstore\n        /* \"#utility.yul\":19321:19488   */\n      pop\n      jump\t// out\n        /* \"#utility.yul\":19494:19860   */\n    tag_214:\n        /* \"#utility.yul\":19636:19639   */\n      0x00\n        /* \"#utility.yul\":19657:19724   */\n      tag_405\n        /* \"#utility.yul\":19721:19723   */\n      0x11\n        /* \"#utility.yul\":19716:19719   */\n      dup4\n        /* \"#utility.yul\":19657:19724   */\n      tag_175\n      jump\t// in\n    tag_405:\n        /* \"#utility.yul\":19650:19724   */\n      swap2\n      pop\n        /* \"#utility.yul\":19733:19826   */\n      tag_406\n        /* \"#utility.yul\":19822:19825   */\n      dup3\n        /* \"#utility.yul\":19733:19826   */\n      tag_213\n      jump\t// in\n    tag_406:\n        /* \"#utility.yul\":19851:19853   */\n      0x20\n        /* \"#utility.yul\":19846:19849   */\n      dup3\n        /* \"#utility.yul\":19842:19854   */\n      add\n        /* \"#utility.yul\":19835:19854   */\n      swap1\n      pop\n        /* \"#utility.yul\":19494:19860   */\n      swap2\n      swap1\n      pop\n      jump\t// out\n        /* \"#utility.yul\":19866:20285   */\n    tag_136:\n        /* \"#utility.yul\":20032:20036   */\n      0x00\n        /* \"#utility.yul\":20070:20072   */\n      0x20\n        /* \"#utility.yul\":20059:20068   */\n      dup3\n        /* \"#utility.yul\":20055:20073   */\n      add\n        /* \"#utility.yul\":20047:20073   */\n      swap1\n      pop\n        /* \"#utility.yul\":20119:20128   */\n      dup2\n        /* \"#utility.yul\":20113:20117   */\n      dup2\n        /* \"#utility.yul\":20109:20129   */\n      sub\n        /* \"#utility.yul\":20105:20106   */\n      0x00\n        /* \"#utility.yul\":20094:20103   */\n      dup4\n        /* \"#utility.yul\":20090:20107   */\n      add\n        /* \"#utility.yul\":20083:20130   */\n      mstore\n        /* \"#utility.yul\":20147:20278   */\n      tag_408\n        /* \"#utility.yul\":20273:20277   */\n      dup2\n        /* \"#utility.yul\":20147:20278   */\n      tag_214\n      jump\t// in\n    tag_408:\n        /* \"#utility.yul\":20139:20278   */\n      swap1\n      pop\n        /* \"#utility.yul\":19866:20285   */\n      swap2\n      swap1\n      pop\n      jump\t// out\n        /* \"#utility.yul\":20291:20377   */\n    tag_215:\n        /* \"#utility.yul\":20326:20333   */\n      0x00\n        /* \"#utility.yul\":20366:20370   */\n      0xff\n        /* \"#utility.yul\":20359:20364   */\n      dup3\n        /* \"#utility.yul\":20355:20371   */\n      and\n        /* \"#utility.yul\":20344:20371   */\n      swap1\n      pop\n        /* \"#utility.yul\":20291:20377   */\n      swap2\n      swap1\n      pop\n      jump\t// out\n        /* \"#utility.yul\":20383:20501   */\n    tag_216:\n        /* \"#utility.yul\":20454:20476   */\n      tag_411\n        /* \"#utility.yul\":20470:20475   */\n      dup2\n        /* \"#utility.yul\":20454:20476   */\n      tag_215\n      jump\t// in\n    tag_411:\n        /* \"#utility.yul\":20447:20452   */\n      dup2\n        /* \"#utility.yul\":20444:20477   */\n      eq\n        /* \"#utility.yul\":20434:20495   */\n      tag_412\n      jumpi\n        /* \"#utility.yul\":20491:20492   */\n      0x00\n        /* \"#utility.yul\":20488:20489   */\n      dup1\n        /* \"#utility.yul\":20481:20493   */\n      revert\n        /* \"#utility.yul\":20434:20495   */\n    tag_412:\n        /* \"#utility.yul\":20383:20501   */\n      pop\n      jump\t// out\n        /* \"#utility.yul\":20507:20646   */\n    tag_217:\n        /* \"#utility.yul\":20562:20567   */\n      0x00\n        /* \"#utility.yul\":20593:20599   */\n      dup2\n        /* \"#utility.yul\":20587:20600   */\n      mload\n        /* \"#utility.yul\":20578:20600   */\n      swap1\n      pop\n        /* \"#utility.yul\":20609:20640   */\n      tag_414\n        /* \"#utility.yul\":20634:20639   */\n      dup2\n        /* \"#utility.yul\":20609:20640   */\n      tag_216\n      jump\t// in\n    tag_414:\n        /* \"#utility.yul\":20507:20646   */\n      swap3\n      swap2\n      pop\n      pop\n      jump\t// out\n        /* \"#utility.yul\":20652:20999   */\n    tag_140:\n        /* \"#utility.yul\":20720:20726   */\n      0x00\n        /* \"#utility.yul\":20769:20771   */\n      0x20\n        /* \"#utility.yul\":20757:20766   */\n      dup3\n        /* \"#utility.yul\":20748:20755   */\n      dup5\n        /* \"#utility.yul\":20744:20767   */\n      sub\n        /* \"#utility.yul\":20740:20772   */\n      slt\n        /* \"#utility.yul\":20737:20856   */\n      iszero\n      tag_416\n      jumpi\n        /* \"#utility.yul\":20775:20854   */\n      tag_417\n      tag_166\n      jump\t// in\n    tag_417:\n        /* \"#utility.yul\":20737:20856   */\n    tag_416:\n        /* \"#utility.yul\":20895:20896   */\n      0x00\n        /* \"#utility.yul\":20920:20982   */\n      tag_418\n        /* \"#utility.yul\":20974:20981   */\n      dup5\n        /* \"#utility.yul\":20965:20971   */\n      dup3\n        /* \"#utility.yul\":20954:20963   */\n      dup6\n        /* \"#utility.yul\":20950:20972   */\n      add\n        /* \"#utility.yul\":20920:20982   */\n      tag_217\n      jump\t// in\n    tag_418:\n        /* \"#utility.yul\":20910:20982   */\n      swap2\n      pop\n        /* \"#utility.yul\":20866:20992   */\n      pop\n        /* \"#utility.yul\":20652:20999   */\n      swap3\n      swap2\n      pop\n      pop\n      jump\t// out\n        /* \"#utility.yul\":21005:21107   */\n    tag_218:\n        /* \"#utility.yul\":21047:21055   */\n      0x00\n        /* \"#utility.yul\":21094:21099   */\n      dup2\n        /* \"#utility.yul\":21091:21092   */\n      0x01\n        /* \"#utility.yul\":21087:21100   */\n      shr\n        /* \"#utility.yul\":21066:21100   */\n      swap1\n      pop\n        /* \"#utility.yul\":21005:21107   */\n      swap2\n      swap1\n      pop\n      jump\t// out\n        /* \"#utility.yul\":21113:21961   */\n    tag_219:\n        /* \"#utility.yul\":21174:21179   */\n      0x00\n        /* \"#utility.yul\":21181:21185   */\n      dup1\n        /* \"#utility.yul\":21205:21211   */\n      dup3\n        /* \"#utility.yul\":21196:21211   */\n      swap2\n      pop\n        /* \"#utility.yul\":21229:21234   */\n      dup4\n        /* \"#utility.yul\":21220:21234   */\n      swap1\n      pop\n        /* \"#utility.yul\":21243:21955   */\n    tag_421:\n        /* \"#utility.yul\":21264:21265   */\n      0x01\n        /* \"#utility.yul\":21254:21262   */\n      dup6\n        /* \"#utility.yul\":21251:21266   */\n      gt\n        /* \"#utility.yul\":21243:21955   */\n      iszero\n      tag_423\n      jumpi\n        /* \"#utility.yul\":21359:21363   */\n      dup1\n        /* \"#utility.yul\":21354:21357   */\n      dup7\n        /* \"#utility.yul\":21350:21364   */\n      div\n        /* \"#utility.yul\":21344:21348   */\n      dup2\n        /* \"#utility.yul\":21341:21365   */\n      gt\n        /* \"#utility.yul\":21338:21388   */\n      iszero\n      tag_424\n      jumpi\n        /* \"#utility.yul\":21368:21386   */\n      tag_425\n      tag_204\n      jump\t// in\n    tag_425:\n        /* \"#utility.yul\":21338:21388   */\n    tag_424:\n        /* \"#utility.yul\":21418:21419   */\n      0x01\n        /* \"#utility.yul\":21408:21416   */\n      dup6\n        /* \"#utility.yul\":21404:21420   */\n      and\n        /* \"#utility.yul\":21401:21852   */\n      iszero\n      tag_426\n      jumpi\n        /* \"#utility.yul\":21833:21837   */\n      dup1\n        /* \"#utility.yul\":21826:21831   */\n      dup3\n        /* \"#utility.yul\":21822:21838   */\n      mul\n        /* \"#utility.yul\":21813:21838   */\n      swap2\n      pop\n        /* \"#utility.yul\":21401:21852   */\n    tag_426:\n        /* \"#utility.yul\":21883:21887   */\n      dup1\n        /* \"#utility.yul\":21877:21881   */\n      dup2\n        /* \"#utility.yul\":21873:21888   */\n      mul\n        /* \"#utility.yul\":21865:21888   */\n      swap1\n      pop\n        /* \"#utility.yul\":21913:21945   */\n      tag_427\n        /* \"#utility.yul\":21936:21944   */\n      dup6\n        /* \"#utility.yul\":21913:21945   */\n      tag_218\n      jump\t// in\n    tag_427:\n        /* \"#utility.yul\":21901:21945   */\n      swap5\n      pop\n        /* \"#utility.yul\":21243:21955   */\n      jump(tag_421)\n    tag_423:\n        /* \"#utility.yul\":21113:21961   */\n      swap5\n      pop\n      swap5\n      swap3\n      pop\n      pop\n      pop\n      jump\t// out\n        /* \"#utility.yul\":21967:23040   */\n    tag_220:\n        /* \"#utility.yul\":22021:22026   */\n      0x00\n        /* \"#utility.yul\":22212:22220   */\n      dup3\n        /* \"#utility.yul\":22202:22242   */\n      tag_429\n      jumpi\n        /* \"#utility.yul\":22233:22234   */\n      0x01\n        /* \"#utility.yul\":22224:22234   */\n      swap1\n      pop\n        /* \"#utility.yul\":22235:22240   */\n      jump(tag_428)\n        /* \"#utility.yul\":22202:22242   */\n    tag_429:\n        /* \"#utility.yul\":22261:22265   */\n      dup2\n        /* \"#utility.yul\":22251:22287   */\n      tag_430\n      jumpi\n        /* \"#utility.yul\":22278:22279   */\n      0x00\n        /* \"#utility.yul\":22269:22279   */\n      swap1\n      pop\n        /* \"#utility.yul\":22280:22285   */\n      jump(tag_428)\n        /* \"#utility.yul\":22251:22287   */\n    tag_430:\n        /* \"#utility.yul\":22347:22351   */\n      dup2\n        /* \"#utility.yul\":22395:22396   */\n      0x01\n        /* \"#utility.yul\":22390:22417   */\n      dup2\n      eq\n      tag_432\n      jumpi\n        /* \"#utility.yul\":22431:22432   */\n      0x02\n        /* \"#utility.yul\":22426:22617   */\n      dup2\n      eq\n      tag_433\n      jumpi\n        /* \"#utility.yul\":22340:22617   */\n      jump(tag_431)\n        /* \"#utility.yul\":22390:22417   */\n    tag_432:\n        /* \"#utility.yul\":22408:22409   */\n      0x01\n        /* \"#utility.yul\":22399:22409   */\n      swap2\n      pop\n        /* \"#utility.yul\":22410:22415   */\n      pop\n      jump(tag_428)\n        /* \"#utility.yul\":22426:22617   */\n    tag_433:\n        /* \"#utility.yul\":22471:22474   */\n      0xff\n        /* \"#utility.yul\":22461:22469   */\n      dup5\n        /* \"#utility.yul\":22458:22475   */\n      gt\n        /* \"#utility.yul\":22455:22498   */\n      iszero\n      tag_434\n      jumpi\n        /* \"#utility.yul\":22478:22496   */\n      tag_435\n      tag_204\n      jump\t// in\n    tag_435:\n        /* \"#utility.yul\":22455:22498   */\n    tag_434:\n        /* \"#utility.yul\":22527:22535   */\n      dup4\n        /* \"#utility.yul\":22524:22525   */\n      0x02\n        /* \"#utility.yul\":22520:22536   */\n      exp\n        /* \"#utility.yul\":22511:22536   */\n      swap2\n      pop\n        /* \"#utility.yul\":22562:22565   */\n      dup5\n        /* \"#utility.yul\":22555:22560   */\n      dup3\n        /* \"#utility.yul\":22552:22566   */\n      gt\n        /* \"#utility.yul\":22549:22589   */\n      iszero\n      tag_436\n      jumpi\n        /* \"#utility.yul\":22569:22587   */\n      tag_437\n      tag_204\n      jump\t// in\n    tag_437:\n        /* \"#utility.yul\":22549:22589   */\n    tag_436:\n        /* \"#utility.yul\":22602:22607   */\n      pop\n      jump(tag_428)\n        /* \"#utility.yul\":22340:22617   */\n    tag_431:\n      pop\n        /* \"#utility.yul\":22726:22728   */\n      0x20\n        /* \"#utility.yul\":22716:22724   */\n      dup4\n        /* \"#utility.yul\":22713:22729   */\n      lt\n        /* \"#utility.yul\":22707:22710   */\n      0x0133\n        /* \"#utility.yul\":22701:22705   */\n      dup4\n        /* \"#utility.yul\":22698:22711   */\n      lt\n        /* \"#utility.yul\":22694:22730   */\n      and\n        /* \"#utility.yul\":22676:22678   */\n      0x4e\n        /* \"#utility.yul\":22666:22674   */\n      dup5\n        /* \"#utility.yul\":22663:22679   */\n      lt\n        /* \"#utility.yul\":22658:22660   */\n      0x0b\n        /* \"#utility.yul\":22652:22656   */\n      dup5\n        /* \"#utility.yul\":22649:22661   */\n      lt\n        /* \"#utility.yul\":22645:22680   */\n      and\n        /* \"#utility.yul\":22629:22740   */\n      or\n        /* \"#utility.yul\":22626:22872   */\n      iszero\n      tag_438\n      jumpi\n        /* \"#utility.yul\":22782:22790   */\n      dup3\n        /* \"#utility.yul\":22776:22780   */\n      dup3\n        /* \"#utility.yul\":22772:22791   */\n      exp\n        /* \"#utility.yul\":22763:22791   */\n      swap1\n      pop\n        /* \"#utility.yul\":22817:22820   */\n      dup4\n        /* \"#utility.yul\":22810:22815   */\n      dup2\n        /* \"#utility.yul\":22807:22821   */\n      gt\n        /* \"#utility.yul\":22804:22844   */\n      iszero\n      tag_439\n      jumpi\n        /* \"#utility.yul\":22824:22842   */\n      tag_440\n      tag_204\n      jump\t// in\n    tag_440:\n        /* \"#utility.yul\":22804:22844   */\n    tag_439:\n        /* \"#utility.yul\":22857:22862   */\n      jump(tag_428)\n        /* \"#utility.yul\":22626:22872   */\n    tag_438:\n        /* \"#utility.yul\":22897:22939   */\n      tag_441\n        /* \"#utility.yul\":22935:22938   */\n      dup5\n        /* \"#utility.yul\":22925:22933   */\n      dup5\n        /* \"#utility.yul\":22919:22923   */\n      dup5\n        /* \"#utility.yul\":22916:22917   */\n      0x01\n        /* \"#utility.yul\":22897:22939   */\n      tag_219\n      jump\t// in\n    tag_441:\n        /* \"#utility.yul\":22882:22939   */\n      swap3\n      pop\n      swap1\n      pop\n        /* \"#utility.yul\":22971:22975   */\n      dup2\n        /* \"#utility.yul\":22966:22969   */\n      dup5\n        /* \"#utility.yul\":22962:22976   */\n      div\n        /* \"#utility.yul\":22955:22960   */\n      dup2\n        /* \"#utility.yul\":22952:22977   */\n      gt\n        /* \"#utility.yul\":22949:23000   */\n      iszero\n      tag_442\n      jumpi\n        /* \"#utility.yul\":22980:22998   */\n      tag_443\n      tag_204\n      jump\t// in\n    tag_443:\n        /* \"#utility.yul\":22949:23000   */\n    tag_442:\n        /* \"#utility.yul\":23029:23033   */\n      dup2\n        /* \"#utility.yul\":23022:23027   */\n      dup2\n        /* \"#utility.yul\":23018:23034   */\n      mul\n        /* \"#utility.yul\":23009:23034   */\n      swap1\n      pop\n        /* \"#utility.yul\":21967:23040   */\n    tag_428:\n      swap4\n      swap3\n      pop\n      pop\n      pop\n      jump\t// out\n        /* \"#utility.yul\":23046:23327   */\n    tag_148:\n        /* \"#utility.yul\":23104:23109   */\n      0x00\n        /* \"#utility.yul\":23128:23151   */\n      tag_445\n        /* \"#utility.yul\":23146:23150   */\n      dup3\n        /* \"#utility.yul\":23128:23151   */\n      tag_172\n      jump\t// in\n    tag_445:\n        /* \"#utility.yul\":23120:23151   */\n      swap2\n      pop\n        /* \"#utility.yul\":23172:23197   */\n      tag_446\n        /* \"#utility.yul\":23188:23196   */\n      dup4\n        /* \"#utility.yul\":23172:23197   */\n      tag_215\n      jump\t// in\n    tag_446:\n        /* \"#utility.yul\":23160:23197   */\n      swap3\n      pop\n        /* \"#utility.yul\":23216:23320   */\n      tag_447\n        /* \"#utility.yul\":23253:23319   */\n      0xffffffffffffffffffffffffffffffffffffffffffffffffffffffffffffffff\n        /* \"#utility.yul\":23243:23251   */\n      dup5\n        /* \"#utility.yul\":23237:23241   */\n      dup5\n        /* \"#utility.yul\":23216:23320   */\n      tag_220\n      jump\t// in\n    tag_447:\n        /* \"#utility.yul\":23207:23320   */\n      swap1\n      pop\n        /* \"#utility.yul\":23046:23327   */\n      swap3\n      swap2\n      pop\n      pop\n      jump\t// out\n        /* \"#utility.yul\":23333:23618   */\n    tag_152:\n        /* \"#utility.yul\":23393:23398   */\n      0x00\n        /* \"#utility.yul\":23417:23440   */\n      tag_449\n        /* \"#utility.yul\":23435:23439   */\n      dup3\n        /* \"#utility.yul\":23417:23440   */\n      tag_172\n      jump\t// in\n    tag_449:\n        /* \"#utility.yul\":23409:23440   */\n      swap2\n      pop\n        /* \"#utility.yul\":23461:23488   */\n      tag_450\n        /* \"#utility.yul\":23479:23487   */\n      dup4\n        /* \"#utility.yul\":23461:23488   */\n      tag_172\n      jump\t// in\n    tag_450:\n        /* \"#utility.yul\":23449:23488   */\n      swap3\n      pop\n        /* \"#utility.yul\":23507:23611   */\n      tag_451\n        /* \"#utility.yul\":23544:23610   */\n      0xffffffffffffffffffffffffffffffffffffffffffffffffffffffffffffffff\n        /* \"#utility.yul\":23534:23542   */\n      dup5\n        /* \"#utility.yul\":23528:23532   */\n      dup5\n        /* \"#utility.yul\":23507:23611   */\n      tag_220\n      jump\t// in\n    tag_451:\n        /* \"#utility.yul\":23498:23611   */\n      swap1\n      pop\n        /* \"#utility.yul\":23333:23618   */\n      swap3\n      swap2\n      pop\n      pop\n      jump\t// out\n        /* \"#utility.yul\":23624:23815   */\n    tag_157:\n        /* \"#utility.yul\":23662:23666   */\n      0x00\n        /* \"#utility.yul\":23682:23700   */\n      tag_453\n        /* \"#utility.yul\":23698:23699   */\n      dup3\n        /* \"#utility.yul\":23682:23700   */\n      tag_215\n      jump\t// in\n    tag_453:\n        /* \"#utility.yul\":23677:23700   */\n      swap2\n      pop\n        /* \"#utility.yul\":23714:23732   */\n      tag_454\n        /* \"#utility.yul\":23730:23731   */\n      dup4\n        /* \"#utility.yul\":23714:23732   */\n      tag_215\n      jump\t// in\n    tag_454:\n        /* \"#utility.yul\":23709:23732   */\n      swap3\n      pop\n        /* \"#utility.yul\":23756:23757   */\n      dup3\n        /* \"#utility.yul\":23753:23754   */\n      dup3\n        /* \"#utility.yul\":23749:23758   */\n      sub\n        /* \"#utility.yul\":23741:23758   */\n      swap1\n      pop\n        /* \"#utility.yul\":23780:23784   */\n      0xff\n        /* \"#utility.yul\":23774:23778   */\n      dup2\n        /* \"#utility.yul\":23771:23785   */\n      gt\n        /* \"#utility.yul\":23768:23808   */\n      iszero\n      tag_455\n      jumpi\n        /* \"#utility.yul\":23788:23806   */\n      tag_456\n      tag_204\n      jump\t// in\n    tag_456:\n        /* \"#utility.yul\":23768:23808   */\n    tag_455:\n        /* \"#utility.yul\":23624:23815   */\n      swap3\n      swap2\n      pop\n      pop\n      jump\t// out\n\n    auxdata: 0xa2646970667358221220e838254e8fd66e013ce6ecef90496034bfea7e48631d5995f0d0f2ee12bf6fed64736f6c634300081a0033\n}\n",
				"bytecode": {
					"linkReferences": {},
					"object": "608060405273694aa1769357215de4fac081bf1f309adc32530660065f6101000a81548173ffffffffffffffffffffffffffffffffffffffff021916908373ffffffffffffffffffffffffffffffffffffffff160217905550604051611dec380380611dec83398181016040528101906100799190610286565b823360025f6101000a81548173ffffffffffffffffffffffffffffffffffffffff021916908373ffffffffffffffffffffffffffffffffffffffff160217905550805f806101000a81548173ffffffffffffffffffffffffffffffffffffffff021916908373ffffffffffffffffffffffffffffffffffffffff160217905550610108816101d160201b60201c565b508160035f6101000a81548173ffffffffffffffffffffffffffffffffffffffff021916908373ffffffffffffffffffffffffffffffffffffffff1602179055508060055f6101000a81548173ffffffffffffffffffffffffffffffffffffffff021916908373ffffffffffffffffffffffffffffffffffffffff1602179055503360045f6101000a81548173ffffffffffffffffffffffffffffffffffffffff021916908373ffffffffffffffffffffffffffffffffffffffff1602179055505050506102d6565b6001805f8373ffffffffffffffffffffffffffffffffffffffff1673ffffffffffffffffffffffffffffffffffffffff1681526020019081526020015f205f6101000a81548160ff02191690831515021790555050565b5f80fd5b5f73ffffffffffffffffffffffffffffffffffffffff82169050919050565b5f6102558261022c565b9050919050565b6102658161024b565b811461026f575f80fd5b50565b5f815190506102808161025c565b92915050565b5f805f6060848603121561029d5761029c610228565b5b5f6102aa86828701610272565b93505060206102bb86828701610272565b92505060406102cc86828701610272565b9150509250925092565b611b09806102e35f395ff3fe608060405260043610610042575f3560e01c8063666181a91461004d5780637a90b99014610075578063c290d6911461008b578063f3e12267146100b357610049565b3661004957005b5f80fd5b348015610058575f80fd5b50610073600480360381019061006e9190610edb565b6100db565b005b348015610080575f80fd5b506100896101ad565b005b348015610096575f80fd5b506100b160048036038101906100ac9190610f39565b610274565b005b3480156100be575f80fd5b506100d960048036038101906100d49190610f64565b61030a565b005b60045f9054906101000a900473ffffffffffffffffffffffffffffffffffffffff1673ffffffffffffffffffffffffffffffffffffffff163373ffffffffffffffffffffffffffffffffffffffff161461016a576040517f08c379a000000000000000000000000000000000000000000000000000000000815260040161016190611048565b60405180910390fd5b8060035f6101000a81548173ffffffffffffffffffffffffffffffffffffffff021916908373ffffffffffffffffffffffffffffffffffffffff16021790555050565b5f805f9054906101000a900473ffffffffffffffffffffffffffffffffffffffff1673ffffffffffffffffffffffffffffffffffffffff16639b6c56ec306040518263ffffffff1660e01b81526004016102079190611075565b602060405180830381865afa158015610222573d5f803e3d5ffd5b505050506040513d601f19601f8201168201806040525081019061024691906110a2565b90506102715f8054906101000a900473ffffffffffffffffffffffffffffffffffffffff1682610824565b50565b60015f3373ffffffffffffffffffffffffffffffffffffffff1673ffffffffffffffffffffffffffffffffffffffff1681526020019081526020015f205f9054906101000a900460ff166102fd576040517f08c379a00000000000000000000000000000000000000000000000000000000081526004016102f490611117565b60405180910390fd5b6103073382610824565b50565b60015f3373ffffffffffffffffffffffffffffffffffffffff1673ffffffffffffffffffffffffffffffffffffffff1681526020019081526020015f205f9054906101000a900460ff16610393576040517f08c379a000000000000000000000000000000000000000000000000000000000815260040161038a90611117565b60405180910390fd5b5f61039f84848461096b565b90505f811115610735575f60035f9054906101000a900473ffffffffffffffffffffffffffffffffffffffff1673ffffffffffffffffffffffffffffffffffffffff1663dd62ed3e86306040518363ffffffff1660e01b8152600401610406929190611135565b602060405180830381865afa158015610421573d5f803e3d5ffd5b505050506040513d601f19601f8201168201806040525081019061044591906110a2565b90508181101561048a576040517f08c379a0000000000000000000000000000000000000000000000000000000008152600401610481906111a6565b60405180910390fd5b5f60035f9054906101000a900473ffffffffffffffffffffffffffffffffffffffff1673ffffffffffffffffffffffffffffffffffffffff166370a08231306040518263ffffffff1660e01b81526004016104e59190611075565b602060405180830381865afa158015610500573d5f803e3d5ffd5b505050506040513d601f19601f8201168201806040525081019061052491906110a2565b905082811015610569576040517f08c379a000000000000000000000000000000000000000000000000000000000815260040161056090611234565b60405180910390fd5b60035f9054906101000a900473ffffffffffffffffffffffffffffffffffffffff1673ffffffffffffffffffffffffffffffffffffffff166323b872dd8730866040518463ffffffff1660e01b81526004016105c793929190611261565b6020604051808303815f875af11580156105e3573d5f803e3d5ffd5b505050506040513d601f19601f8201168201806040525081019061060791906112cb565b5060035f9054906101000a900473ffffffffffffffffffffffffffffffffffffffff1673ffffffffffffffffffffffffffffffffffffffff1663095ea7b386856040518363ffffffff1660e01b81526004016106649291906112f6565b6020604051808303815f875af1158015610680573d5f803e3d5ffd5b505050506040513d601f19601f820116820180604052508101906106a491906112cb565b508473ffffffffffffffffffffffffffffffffffffffff1663617ba03760035f9054906101000a900473ffffffffffffffffffffffffffffffffffffffff1685895f6040518563ffffffff1660e01b8152600401610705949392919061136c565b5f604051808303815f87803b15801561071c575f80fd5b505af115801561072e573d5f803e3d5ffd5b5050505050505b5f8373ffffffffffffffffffffffffffffffffffffffff1663bf92857c866040518263ffffffff1660e01b815260040161076f9190611075565b60c060405180830381865afa15801561078a573d5f803e3d5ffd5b505050506040513d601f19601f820116820180604052508101906107ae91906113af565b955050505050508373ffffffffffffffffffffffffffffffffffffffff168573ffffffffffffffffffffffffffffffffffffffff167fc36075e656a1ae37433e843be9f03b48aa277aa3174cadf877d8d58fe686215d8385604051610814929190611438565b60405180910390a3505050505050565b80471015610867576040517f08c379a000000000000000000000000000000000000000000000000000000000815260040161085e906114a9565b60405180910390fd5b5f811115610967575f8273ffffffffffffffffffffffffffffffffffffffff16825f67ffffffffffffffff8111156108a2576108a16114c7565b5b6040519080825280601f01601f1916602001820160405280156108d45781602001600182028036833780820191505090505b506040516108e29190611546565b5f6040518083038185875af1925050503d805f811461091c576040519150601f19603f3d011682016040523d82523d5f602084013e610921565b606091505b5050905080610965576040517f08c379a000000000000000000000000000000000000000000000000000000000815260040161095c906115a6565b60405180910390fd5b505b5050565b5f805f808573ffffffffffffffffffffffffffffffffffffffff1663bf92857c886040518263ffffffff1660e01b81526004016109a89190611075565b60c060405180830381865afa1580156109c3573d5f803e3d5ffd5b505050506040513d601f19601f820116820180604052508101906109e791906113af565b5050935050925092505f612710826109ff919061161e565b8387610a0b919061164e565b610a15919061161e565b90505f84821115610a4a578482610a2c919061168f565b90506064606982610a3d919061164e565b610a47919061161e565b90505b5f60055f9054906101000a900473ffffffffffffffffffffffffffffffffffffffff1673ffffffffffffffffffffffffffffffffffffffff1663feaf968c6040518163ffffffff1660e01b815260040160a060405180830381865afa158015610ab5573d5f803e3d5ffd5b505050506040513d601f19601f82011682018060405250810190610ad99190611734565b5050509150505f60065f9054906101000a900473ffffffffffffffffffffffffffffffffffffffff1673ffffffffffffffffffffffffffffffffffffffff1663feaf968c6040518163ffffffff1660e01b815260040160a060405180830381865afa158015610b4a573d5f803e3d5ffd5b505050506040513d601f19601f82011682018060405250810190610b6e9190611734565b5050509150505f8213610bb6576040517f08c379a0000000000000000000000000000000000000000000000000000000008152600401610bad906117f5565b60405180910390fd5b5f8113610bf8576040517f08c379a0000000000000000000000000000000000000000000000000000000008152600401610bef9061185d565b60405180910390fd5b5f60055f9054906101000a900473ffffffffffffffffffffffffffffffffffffffff1673ffffffffffffffffffffffffffffffffffffffff1663313ce5676040518163ffffffff1660e01b8152600401602060405180830381865afa158015610c63573d5f803e3d5ffd5b505050506040513d601f19601f82011682018060405250810190610c8791906118b1565b90505f60065f9054906101000a900473ffffffffffffffffffffffffffffffffffffffff1673ffffffffffffffffffffffffffffffffffffffff1663313ce5676040518163ffffffff1660e01b8152600401602060405180830381865afa158015610cf4573d5f803e3d5ffd5b505050506040513d601f19601f82011682018060405250810190610d1891906118b1565b90505f60035f9054906101000a900473ffffffffffffffffffffffffffffffffffffffff1673ffffffffffffffffffffffffffffffffffffffff1663313ce5676040518163ffffffff1660e01b8152600401602060405180830381865afa158015610d85573d5f803e3d5ffd5b505050506040513d601f19601f82011682018060405250810190610da991906118b1565b60ff1690505f82600a610dbc9190611a0b565b8588610dc8919061164e565b610dd2919061161e565b90505f8683600a610de39190611a55565b83610dee919061164e565b610df8919061161e565b90508360ff168560ff161115610e32578385610e149190611a9f565b600a610e209190611a0b565b81610e2b919061161e565b9050610e67565b8460ff168460ff161115610e66578484610e4c9190611a9f565b600a610e589190611a0b565b81610e63919061164e565b90505b5b809c505050505050505050505050509392505050565b5f80fd5b5f73ffffffffffffffffffffffffffffffffffffffff82169050919050565b5f610eaa82610e81565b9050919050565b610eba81610ea0565b8114610ec4575f80fd5b50565b5f81359050610ed581610eb1565b92915050565b5f60208284031215610ef057610eef610e7d565b5b5f610efd84828501610ec7565b91505092915050565b5f819050919050565b610f1881610f06565b8114610f22575f80fd5b50565b5f81359050610f3381610f0f565b92915050565b5f60208284031215610f4e57610f4d610e7d565b5b5f610f5b84828501610f25565b91505092915050565b5f805f8060808587031215610f7c57610f7b610e7d565b5b5f610f8987828801610ec7565b9450506020610f9a87828801610ec7565b9350506040610fab87828801610ec7565b9250506060610fbc87828801610f25565b91505092959194509250565b5f82825260208201905092915050565b7f4f6e6c79206f776e65722063616e2063616c6c20746869732066756e6374696f5f8201527f6e00000000000000000000000000000000000000000000000000000000000000602082015250565b5f611032602183610fc8565b915061103d82610fd8565b604082019050919050565b5f6020820190508181035f83015261105f81611026565b9050919050565b61106f81610ea0565b82525050565b5f6020820190506110885f830184611066565b92915050565b5f8151905061109c81610f0f565b92915050565b5f602082840312156110b7576110b6610e7d565b5b5f6110c48482850161108e565b91505092915050565b7f417574686f72697a65642073656e646572206f6e6c79000000000000000000005f82015250565b5f611101601683610fc8565b915061110c826110cd565b602082019050919050565b5f6020820190508181035f83015261112e816110f5565b9050919050565b5f6040820190506111485f830185611066565b6111556020830184611066565b9392505050565b7f496e73756666696369656e7420617070726f76656420636f6c6c61746572616c5f82015250565b5f611190602083610fc8565b915061119b8261115c565b602082019050919050565b5f6020820190508181035f8301526111bd81611184565b9050919050565b7f496e73756666696369656e7420636f6c6c61746572616c20617661696c61626c5f8201527f6500000000000000000000000000000000000000000000000000000000000000602082015250565b5f61121e602183610fc8565b9150611229826111c4565b604082019050919050565b5f6020820190508181035f83015261124b81611212565b9050919050565b61125b81610f06565b82525050565b5f6060820190506112745f830186611066565b6112816020830185611066565b61128e6040830184611252565b949350505050565b5f8115159050919050565b6112aa81611296565b81146112b4575f80fd5b50565b5f815190506112c5816112a1565b92915050565b5f602082840312156112e0576112df610e7d565b5b5f6112ed848285016112b7565b91505092915050565b5f6040820190506113095f830185611066565b6113166020830184611252565b9392505050565b5f819050919050565b5f61ffff82169050919050565b5f819050919050565b5f61135661135161134c8461131d565b611333565b611326565b9050919050565b6113668161133c565b82525050565b5f60808201905061137f5f830187611066565b61138c6020830186611252565b6113996040830185611066565b6113a6606083018461135d565b95945050505050565b5f805f805f8060c087890312156113c9576113c8610e7d565b5b5f6113d689828a0161108e565b96505060206113e789828a0161108e565b95505060406113f889828a0161108e565b945050606061140989828a0161108e565b935050608061141a89828a0161108e565b92505060a061142b89828a0161108e565b9150509295509295509295565b5f60408201905061144b5f830185611252565b6114586020830184611252565b9392505050565b7f496e73756666696369656e742066756e647300000000000000000000000000005f82015250565b5f611493601283610fc8565b915061149e8261145f565b602082019050919050565b5f6020820190508181035f8301526114c081611487565b9050919050565b7f4e487b71000000000000000000000000000000000000000000000000000000005f52604160045260245ffd5b5f81519050919050565b5f81905092915050565b8281835e5f83830152505050565b5f611520826114f4565b61152a81856114fe565b935061153a818560208601611508565b80840191505092915050565b5f6115518284611516565b915081905092915050565b7f5472616e73666572206661696c656400000000000000000000000000000000005f82015250565b5f611590600f83610fc8565b915061159b8261155c565b602082019050919050565b5f6020820190508181035f8301526115bd81611584565b9050919050565b7f4e487b71000000000000000000000000000000000000000000000000000000005f52601260045260245ffd5b7f4e487b71000000000000000000000000000000000000000000000000000000005f52601160045260245ffd5b5f61162882610f06565b915061163383610f06565b925082611643576116426115c4565b5b828204905092915050565b5f61165882610f06565b915061166383610f06565b925082820261167181610f06565b91508282048414831517611688576116876115f1565b5b5092915050565b5f61169982610f06565b91506116a483610f06565b92508282039050818111156116bc576116bb6115f1565b5b92915050565b5f69ffffffffffffffffffff82169050919050565b6116e0816116c2565b81146116ea575f80fd5b50565b5f815190506116fb816116d7565b92915050565b5f819050919050565b61171381611701565b811461171d575f80fd5b50565b5f8151905061172e8161170a565b92915050565b5f805f805f60a0868803121561174d5761174c610e7d565b5b5f61175a888289016116ed565b955050602061176b88828901611720565b945050604061177c8882890161108e565b935050606061178d8882890161108e565b925050608061179e888289016116ed565b9150509295509295909350565b7f496e76616c696420636f6c6c61746572616c20707269636500000000000000005f82015250565b5f6117df601883610fc8565b91506117ea826117ab565b602082019050919050565b5f6020820190508181035f83015261180c816117d3565b9050919050565b7f496e76616c6964204554482070726963650000000000000000000000000000005f82015250565b5f611847601183610fc8565b915061185282611813565b602082019050919050565b5f6020820190508181035f8301526118748161183b565b9050919050565b5f60ff82169050919050565b6118908161187b565b811461189a575f80fd5b50565b5f815190506118ab81611887565b92915050565b5f602082840312156118c6576118c5610e7d565b5b5f6118d38482850161189d565b91505092915050565b5f8160011c9050919050565b5f808291508390505b60018511156119315780860481111561190d5761190c6115f1565b5b600185161561191c5780820291505b808102905061192a856118dc565b94506118f1565b94509492505050565b5f826119495760019050611a04565b81611956575f9050611a04565b816001811461196c5760028114611976576119a5565b6001915050611a04565b60ff841115611988576119876115f1565b5b8360020a91508482111561199f5761199e6115f1565b5b50611a04565b5060208310610133831016604e8410600b84101617156119da5782820a9050838111156119d5576119d46115f1565b5b611a04565b6119e784848460016118e8565b925090508184048111156119fe576119fd6115f1565b5b81810290505b9392505050565b5f611a1582610f06565b9150611a208361187b565b9250611a4d7fffffffffffffffffffffffffffffffffffffffffffffffffffffffffffffffff848461193a565b905092915050565b5f611a5f82610f06565b9150611a6a83610f06565b9250611a977fffffffffffffffffffffffffffffffffffffffffffffffffffffffffffffffff848461193a565b905092915050565b5f611aa98261187b565b9150611ab48361187b565b9250828203905060ff811115611acd57611acc6115f1565b5b9291505056fea2646970667358221220e838254e8fd66e013ce6ecef90496034bfea7e48631d5995f0d0f2ee12bf6fed64736f6c634300081a0033",
					"opcodes": "PUSH1 0x80 PUSH1 0x40 MSTORE PUSH20 0x694AA1769357215DE4FAC081BF1F309ADC325306 PUSH1 0x6 PUSH0 PUSH2 0x100 EXP DUP2 SLOAD DUP2 PUSH20 0xFFFFFFFFFFFFFFFFFFFFFFFFFFFFFFFFFFFFFFFF MUL NOT AND SWAP1 DUP4 PUSH20 0xFFFFFFFFFFFFFFFFFFFFFFFFFFFFFFFFFFFFFFFF AND MUL OR SWAP1 SSTORE POP PUSH1 0x40 MLOAD PUSH2 0x1DEC CODESIZE SUB DUP1 PUSH2 0x1DEC DUP4 CODECOPY DUP2 DUP2 ADD PUSH1 0x40 MSTORE DUP2 ADD SWAP1 PUSH2 0x79 SWAP2 SWAP1 PUSH2 0x286 JUMP JUMPDEST DUP3 CALLER PUSH1 0x2 PUSH0 PUSH2 0x100 EXP DUP2 SLOAD DUP2 PUSH20 0xFFFFFFFFFFFFFFFFFFFFFFFFFFFFFFFFFFFFFFFF MUL NOT AND SWAP1 DUP4 PUSH20 0xFFFFFFFFFFFFFFFFFFFFFFFFFFFFFFFFFFFFFFFF AND MUL OR SWAP1 SSTORE POP DUP1 PUSH0 DUP1 PUSH2 0x100 EXP DUP2 SLOAD DUP2 PUSH20 0xFFFFFFFFFFFFFFFFFFFFFFFFFFFFFFFFFFFFFFFF MUL NOT AND SWAP1 DUP4 PUSH20 0xFFFFFFFFFFFFFFFFFFFFFFFFFFFFFFFFFFFFFFFF AND MUL OR SWAP1 SSTORE POP PUSH2 0x108 DUP2 PUSH2 0x1D1 PUSH1 0x20 SHL PUSH1 0x20 SHR JUMP JUMPDEST POP DUP2 PUSH1 0x3 PUSH0 PUSH2 0x100 EXP DUP2 SLOAD DUP2 PUSH20 0xFFFFFFFFFFFFFFFFFFFFFFFFFFFFFFFFFFFFFFFF MUL NOT AND SWAP1 DUP4 PUSH20 0xFFFFFFFFFFFFFFFFFFFFFFFFFFFFFFFFFFFFFFFF AND MUL OR SWAP1 SSTORE POP DUP1 PUSH1 0x5 PUSH0 PUSH2 0x100 EXP DUP2 SLOAD DUP2 PUSH20 0xFFFFFFFFFFFFFFFFFFFFFFFFFFFFFFFFFFFFFFFF MUL NOT AND SWAP1 DUP4 PUSH20 0xFFFFFFFFFFFFFFFFFFFFFFFFFFFFFFFFFFFFFFFF AND MUL OR SWAP1 SSTORE POP CALLER PUSH1 0x4 PUSH0 PUSH2 0x100 EXP DUP2 SLOAD DUP2 PUSH20 0xFFFFFFFFFFFFFFFFFFFFFFFFFFFFFFFFFFFFFFFF MUL NOT AND SWAP1 DUP4 PUSH20 0xFFFFFFFFFFFFFFFFFFFFFFFFFFFFFFFFFFFFFFFF AND MUL OR SWAP1 SSTORE POP POP POP POP PUSH2 0x2D6 JUMP JUMPDEST PUSH1 0x1 DUP1 PUSH0 DUP4 PUSH20 0xFFFFFFFFFFFFFFFFFFFFFFFFFFFFFFFFFFFFFFFF AND PUSH20 0xFFFFFFFFFFFFFFFFFFFFFFFFFFFFFFFFFFFFFFFF AND DUP2 MSTORE PUSH1 0x20 ADD SWAP1 DUP2 MSTORE PUSH1 0x20 ADD PUSH0 KECCAK256 PUSH0 PUSH2 0x100 EXP DUP2 SLOAD DUP2 PUSH1 0xFF MUL NOT AND SWAP1 DUP4 ISZERO ISZERO MUL OR SWAP1 SSTORE POP POP JUMP JUMPDEST PUSH0 DUP1 REVERT JUMPDEST PUSH0 PUSH20 0xFFFFFFFFFFFFFFFFFFFFFFFFFFFFFFFFFFFFFFFF DUP3 AND SWAP1 POP SWAP2 SWAP1 POP JUMP JUMPDEST PUSH0 PUSH2 0x255 DUP3 PUSH2 0x22C JUMP JUMPDEST SWAP1 POP SWAP2 SWAP1 POP JUMP JUMPDEST PUSH2 0x265 DUP2 PUSH2 0x24B JUMP JUMPDEST DUP2 EQ PUSH2 0x26F JUMPI PUSH0 DUP1 REVERT JUMPDEST POP JUMP JUMPDEST PUSH0 DUP2 MLOAD SWAP1 POP PUSH2 0x280 DUP2 PUSH2 0x25C JUMP JUMPDEST SWAP3 SWAP2 POP POP JUMP JUMPDEST PUSH0 DUP1 PUSH0 PUSH1 0x60 DUP5 DUP7 SUB SLT ISZERO PUSH2 0x29D JUMPI PUSH2 0x29C PUSH2 0x228 JUMP JUMPDEST JUMPDEST PUSH0 PUSH2 0x2AA DUP7 DUP3 DUP8 ADD PUSH2 0x272 JUMP JUMPDEST SWAP4 POP POP PUSH1 0x20 PUSH2 0x2BB DUP7 DUP3 DUP8 ADD PUSH2 0x272 JUMP JUMPDEST SWAP3 POP POP PUSH1 0x40 PUSH2 0x2CC DUP7 DUP3 DUP8 ADD PUSH2 0x272 JUMP JUMPDEST SWAP2 POP POP SWAP3 POP SWAP3 POP SWAP3 JUMP JUMPDEST PUSH2 0x1B09 DUP1 PUSH2 0x2E3 PUSH0 CODECOPY PUSH0 RETURN INVALID PUSH1 0x80 PUSH1 0x40 MSTORE PUSH1 0x4 CALLDATASIZE LT PUSH2 0x42 JUMPI PUSH0 CALLDATALOAD PUSH1 0xE0 SHR DUP1 PUSH4 0x666181A9 EQ PUSH2 0x4D JUMPI DUP1 PUSH4 0x7A90B990 EQ PUSH2 0x75 JUMPI DUP1 PUSH4 0xC290D691 EQ PUSH2 0x8B JUMPI DUP1 PUSH4 0xF3E12267 EQ PUSH2 0xB3 JUMPI PUSH2 0x49 JUMP JUMPDEST CALLDATASIZE PUSH2 0x49 JUMPI STOP JUMPDEST PUSH0 DUP1 REVERT JUMPDEST CALLVALUE DUP1 ISZERO PUSH2 0x58 JUMPI PUSH0 DUP1 REVERT JUMPDEST POP PUSH2 0x73 PUSH1 0x4 DUP1 CALLDATASIZE SUB DUP2 ADD SWAP1 PUSH2 0x6E SWAP2 SWAP1 PUSH2 0xEDB JUMP JUMPDEST PUSH2 0xDB JUMP JUMPDEST STOP JUMPDEST CALLVALUE DUP1 ISZERO PUSH2 0x80 JUMPI PUSH0 DUP1 REVERT JUMPDEST POP PUSH2 0x89 PUSH2 0x1AD JUMP JUMPDEST STOP JUMPDEST CALLVALUE DUP1 ISZERO PUSH2 0x96 JUMPI PUSH0 DUP1 REVERT JUMPDEST POP PUSH2 0xB1 PUSH1 0x4 DUP1 CALLDATASIZE SUB DUP2 ADD SWAP1 PUSH2 0xAC SWAP2 SWAP1 PUSH2 0xF39 JUMP JUMPDEST PUSH2 0x274 JUMP JUMPDEST STOP JUMPDEST CALLVALUE DUP1 ISZERO PUSH2 0xBE JUMPI PUSH0 DUP1 REVERT JUMPDEST POP PUSH2 0xD9 PUSH1 0x4 DUP1 CALLDATASIZE SUB DUP2 ADD SWAP1 PUSH2 0xD4 SWAP2 SWAP1 PUSH2 0xF64 JUMP JUMPDEST PUSH2 0x30A JUMP JUMPDEST STOP JUMPDEST PUSH1 0x4 PUSH0 SWAP1 SLOAD SWAP1 PUSH2 0x100 EXP SWAP1 DIV PUSH20 0xFFFFFFFFFFFFFFFFFFFFFFFFFFFFFFFFFFFFFFFF AND PUSH20 0xFFFFFFFFFFFFFFFFFFFFFFFFFFFFFFFFFFFFFFFF AND CALLER PUSH20 0xFFFFFFFFFFFFFFFFFFFFFFFFFFFFFFFFFFFFFFFF AND EQ PUSH2 0x16A JUMPI PUSH1 0x40 MLOAD PUSH32 0x8C379A000000000000000000000000000000000000000000000000000000000 DUP2 MSTORE PUSH1 0x4 ADD PUSH2 0x161 SWAP1 PUSH2 0x1048 JUMP JUMPDEST PUSH1 0x40 MLOAD DUP1 SWAP2 SUB SWAP1 REVERT JUMPDEST DUP1 PUSH1 0x3 PUSH0 PUSH2 0x100 EXP DUP2 SLOAD DUP2 PUSH20 0xFFFFFFFFFFFFFFFFFFFFFFFFFFFFFFFFFFFFFFFF MUL NOT AND SWAP1 DUP4 PUSH20 0xFFFFFFFFFFFFFFFFFFFFFFFFFFFFFFFFFFFFFFFF AND MUL OR SWAP1 SSTORE POP POP JUMP JUMPDEST PUSH0 DUP1 PUSH0 SWAP1 SLOAD SWAP1 PUSH2 0x100 EXP SWAP1 DIV PUSH20 0xFFFFFFFFFFFFFFFFFFFFFFFFFFFFFFFFFFFFFFFF AND PUSH20 0xFFFFFFFFFFFFFFFFFFFFFFFFFFFFFFFFFFFFFFFF AND PUSH4 0x9B6C56EC ADDRESS PUSH1 0x40 MLOAD DUP3 PUSH4 0xFFFFFFFF AND PUSH1 0xE0 SHL DUP2 MSTORE PUSH1 0x4 ADD PUSH2 0x207 SWAP2 SWAP1 PUSH2 0x1075 JUMP JUMPDEST PUSH1 0x20 PUSH1 0x40 MLOAD DUP1 DUP4 SUB DUP2 DUP7 GAS STATICCALL ISZERO DUP1 ISZERO PUSH2 0x222 JUMPI RETURNDATASIZE PUSH0 DUP1 RETURNDATACOPY RETURNDATASIZE PUSH0 REVERT JUMPDEST POP POP POP POP PUSH1 0x40 MLOAD RETURNDATASIZE PUSH1 0x1F NOT PUSH1 0x1F DUP3 ADD AND DUP3 ADD DUP1 PUSH1 0x40 MSTORE POP DUP2 ADD SWAP1 PUSH2 0x246 SWAP2 SWAP1 PUSH2 0x10A2 JUMP JUMPDEST SWAP1 POP PUSH2 0x271 PUSH0 DUP1 SLOAD SWAP1 PUSH2 0x100 EXP SWAP1 DIV PUSH20 0xFFFFFFFFFFFFFFFFFFFFFFFFFFFFFFFFFFFFFFFF AND DUP3 PUSH2 0x824 JUMP JUMPDEST POP JUMP JUMPDEST PUSH1 0x1 PUSH0 CALLER PUSH20 0xFFFFFFFFFFFFFFFFFFFFFFFFFFFFFFFFFFFFFFFF AND PUSH20 0xFFFFFFFFFFFFFFFFFFFFFFFFFFFFFFFFFFFFFFFF AND DUP2 MSTORE PUSH1 0x20 ADD SWAP1 DUP2 MSTORE PUSH1 0x20 ADD PUSH0 KECCAK256 PUSH0 SWAP1 SLOAD SWAP1 PUSH2 0x100 EXP SWAP1 DIV PUSH1 0xFF AND PUSH2 0x2FD JUMPI PUSH1 0x40 MLOAD PUSH32 0x8C379A000000000000000000000000000000000000000000000000000000000 DUP2 MSTORE PUSH1 0x4 ADD PUSH2 0x2F4 SWAP1 PUSH2 0x1117 JUMP JUMPDEST PUSH1 0x40 MLOAD DUP1 SWAP2 SUB SWAP1 REVERT JUMPDEST PUSH2 0x307 CALLER DUP3 PUSH2 0x824 JUMP JUMPDEST POP JUMP JUMPDEST PUSH1 0x1 PUSH0 CALLER PUSH20 0xFFFFFFFFFFFFFFFFFFFFFFFFFFFFFFFFFFFFFFFF AND PUSH20 0xFFFFFFFFFFFFFFFFFFFFFFFFFFFFFFFFFFFFFFFF AND DUP2 MSTORE PUSH1 0x20 ADD SWAP1 DUP2 MSTORE PUSH1 0x20 ADD PUSH0 KECCAK256 PUSH0 SWAP1 SLOAD SWAP1 PUSH2 0x100 EXP SWAP1 DIV PUSH1 0xFF AND PUSH2 0x393 JUMPI PUSH1 0x40 MLOAD PUSH32 0x8C379A000000000000000000000000000000000000000000000000000000000 DUP2 MSTORE PUSH1 0x4 ADD PUSH2 0x38A SWAP1 PUSH2 0x1117 JUMP JUMPDEST PUSH1 0x40 MLOAD DUP1 SWAP2 SUB SWAP1 REVERT JUMPDEST PUSH0 PUSH2 0x39F DUP5 DUP5 DUP5 PUSH2 0x96B JUMP JUMPDEST SWAP1 POP PUSH0 DUP2 GT ISZERO PUSH2 0x735 JUMPI PUSH0 PUSH1 0x3 PUSH0 SWAP1 SLOAD SWAP1 PUSH2 0x100 EXP SWAP1 DIV PUSH20 0xFFFFFFFFFFFFFFFFFFFFFFFFFFFFFFFFFFFFFFFF AND PUSH20 0xFFFFFFFFFFFFFFFFFFFFFFFFFFFFFFFFFFFFFFFF AND PUSH4 0xDD62ED3E DUP7 ADDRESS PUSH1 0x40 MLOAD DUP4 PUSH4 0xFFFFFFFF AND PUSH1 0xE0 SHL DUP2 MSTORE PUSH1 0x4 ADD PUSH2 0x406 SWAP3 SWAP2 SWAP1 PUSH2 0x1135 JUMP JUMPDEST PUSH1 0x20 PUSH1 0x40 MLOAD DUP1 DUP4 SUB DUP2 DUP7 GAS STATICCALL ISZERO DUP1 ISZERO PUSH2 0x421 JUMPI RETURNDATASIZE PUSH0 DUP1 RETURNDATACOPY RETURNDATASIZE PUSH0 REVERT JUMPDEST POP POP POP POP PUSH1 0x40 MLOAD RETURNDATASIZE PUSH1 0x1F NOT PUSH1 0x1F DUP3 ADD AND DUP3 ADD DUP1 PUSH1 0x40 MSTORE POP DUP2 ADD SWAP1 PUSH2 0x445 SWAP2 SWAP1 PUSH2 0x10A2 JUMP JUMPDEST SWAP1 POP DUP2 DUP2 LT ISZERO PUSH2 0x48A JUMPI PUSH1 0x40 MLOAD PUSH32 0x8C379A000000000000000000000000000000000000000000000000000000000 DUP2 MSTORE PUSH1 0x4 ADD PUSH2 0x481 SWAP1 PUSH2 0x11A6 JUMP JUMPDEST PUSH1 0x40 MLOAD DUP1 SWAP2 SUB SWAP1 REVERT JUMPDEST PUSH0 PUSH1 0x3 PUSH0 SWAP1 SLOAD SWAP1 PUSH2 0x100 EXP SWAP1 DIV PUSH20 0xFFFFFFFFFFFFFFFFFFFFFFFFFFFFFFFFFFFFFFFF AND PUSH20 0xFFFFFFFFFFFFFFFFFFFFFFFFFFFFFFFFFFFFFFFF AND PUSH4 0x70A08231 ADDRESS PUSH1 0x40 MLOAD DUP3 PUSH4 0xFFFFFFFF AND PUSH1 0xE0 SHL DUP2 MSTORE PUSH1 0x4 ADD PUSH2 0x4E5 SWAP2 SWAP1 PUSH2 0x1075 JUMP JUMPDEST PUSH1 0x20 PUSH1 0x40 MLOAD DUP1 DUP4 SUB DUP2 DUP7 GAS STATICCALL ISZERO DUP1 ISZERO PUSH2 0x500 JUMPI RETURNDATASIZE PUSH0 DUP1 RETURNDATACOPY RETURNDATASIZE PUSH0 REVERT JUMPDEST POP POP POP POP PUSH1 0x40 MLOAD RETURNDATASIZE PUSH1 0x1F NOT PUSH1 0x1F DUP3 ADD AND DUP3 ADD DUP1 PUSH1 0x40 MSTORE POP DUP2 ADD SWAP1 PUSH2 0x524 SWAP2 SWAP1 PUSH2 0x10A2 JUMP JUMPDEST SWAP1 POP DUP3 DUP2 LT ISZERO PUSH2 0x569 JUMPI PUSH1 0x40 MLOAD PUSH32 0x8C379A000000000000000000000000000000000000000000000000000000000 DUP2 MSTORE PUSH1 0x4 ADD PUSH2 0x560 SWAP1 PUSH2 0x1234 JUMP JUMPDEST PUSH1 0x40 MLOAD DUP1 SWAP2 SUB SWAP1 REVERT JUMPDEST PUSH1 0x3 PUSH0 SWAP1 SLOAD SWAP1 PUSH2 0x100 EXP SWAP1 DIV PUSH20 0xFFFFFFFFFFFFFFFFFFFFFFFFFFFFFFFFFFFFFFFF AND PUSH20 0xFFFFFFFFFFFFFFFFFFFFFFFFFFFFFFFFFFFFFFFF AND PUSH4 0x23B872DD DUP8 ADDRESS DUP7 PUSH1 0x40 MLOAD DUP5 PUSH4 0xFFFFFFFF AND PUSH1 0xE0 SHL DUP2 MSTORE PUSH1 0x4 ADD PUSH2 0x5C7 SWAP4 SWAP3 SWAP2 SWAP1 PUSH2 0x1261 JUMP JUMPDEST PUSH1 0x20 PUSH1 0x40 MLOAD DUP1 DUP4 SUB DUP2 PUSH0 DUP8 GAS CALL ISZERO DUP1 ISZERO PUSH2 0x5E3 JUMPI RETURNDATASIZE PUSH0 DUP1 RETURNDATACOPY RETURNDATASIZE PUSH0 REVERT JUMPDEST POP POP POP POP PUSH1 0x40 MLOAD RETURNDATASIZE PUSH1 0x1F NOT PUSH1 0x1F DUP3 ADD AND DUP3 ADD DUP1 PUSH1 0x40 MSTORE POP DUP2 ADD SWAP1 PUSH2 0x607 SWAP2 SWAP1 PUSH2 0x12CB JUMP JUMPDEST POP PUSH1 0x3 PUSH0 SWAP1 SLOAD SWAP1 PUSH2 0x100 EXP SWAP1 DIV PUSH20 0xFFFFFFFFFFFFFFFFFFFFFFFFFFFFFFFFFFFFFFFF AND PUSH20 0xFFFFFFFFFFFFFFFFFFFFFFFFFFFFFFFFFFFFFFFF AND PUSH4 0x95EA7B3 DUP7 DUP6 PUSH1 0x40 MLOAD DUP4 PUSH4 0xFFFFFFFF AND PUSH1 0xE0 SHL DUP2 MSTORE PUSH1 0x4 ADD PUSH2 0x664 SWAP3 SWAP2 SWAP1 PUSH2 0x12F6 JUMP JUMPDEST PUSH1 0x20 PUSH1 0x40 MLOAD DUP1 DUP4 SUB DUP2 PUSH0 DUP8 GAS CALL ISZERO DUP1 ISZERO PUSH2 0x680 JUMPI RETURNDATASIZE PUSH0 DUP1 RETURNDATACOPY RETURNDATASIZE PUSH0 REVERT JUMPDEST POP POP POP POP PUSH1 0x40 MLOAD RETURNDATASIZE PUSH1 0x1F NOT PUSH1 0x1F DUP3 ADD AND DUP3 ADD DUP1 PUSH1 0x40 MSTORE POP DUP2 ADD SWAP1 PUSH2 0x6A4 SWAP2 SWAP1 PUSH2 0x12CB JUMP JUMPDEST POP DUP5 PUSH20 0xFFFFFFFFFFFFFFFFFFFFFFFFFFFFFFFFFFFFFFFF AND PUSH4 0x617BA037 PUSH1 0x3 PUSH0 SWAP1 SLOAD SWAP1 PUSH2 0x100 EXP SWAP1 DIV PUSH20 0xFFFFFFFFFFFFFFFFFFFFFFFFFFFFFFFFFFFFFFFF AND DUP6 DUP10 PUSH0 PUSH1 0x40 MLOAD DUP6 PUSH4 0xFFFFFFFF AND PUSH1 0xE0 SHL DUP2 MSTORE PUSH1 0x4 ADD PUSH2 0x705 SWAP5 SWAP4 SWAP3 SWAP2 SWAP1 PUSH2 0x136C JUMP JUMPDEST PUSH0 PUSH1 0x40 MLOAD DUP1 DUP4 SUB DUP2 PUSH0 DUP8 DUP1 EXTCODESIZE ISZERO DUP1 ISZERO PUSH2 0x71C JUMPI PUSH0 DUP1 REVERT JUMPDEST POP GAS CALL ISZERO DUP1 ISZERO PUSH2 0x72E JUMPI RETURNDATASIZE PUSH0 DUP1 RETURNDATACOPY RETURNDATASIZE PUSH0 REVERT JUMPDEST POP POP POP POP POP POP JUMPDEST PUSH0 DUP4 PUSH20 0xFFFFFFFFFFFFFFFFFFFFFFFFFFFFFFFFFFFFFFFF AND PUSH4 0xBF92857C DUP7 PUSH1 0x40 MLOAD DUP3 PUSH4 0xFFFFFFFF AND PUSH1 0xE0 SHL DUP2 MSTORE PUSH1 0x4 ADD PUSH2 0x76F SWAP2 SWAP1 PUSH2 0x1075 JUMP JUMPDEST PUSH1 0xC0 PUSH1 0x40 MLOAD DUP1 DUP4 SUB DUP2 DUP7 GAS STATICCALL ISZERO DUP1 ISZERO PUSH2 0x78A JUMPI RETURNDATASIZE PUSH0 DUP1 RETURNDATACOPY RETURNDATASIZE PUSH0 REVERT JUMPDEST POP POP POP POP PUSH1 0x40 MLOAD RETURNDATASIZE PUSH1 0x1F NOT PUSH1 0x1F DUP3 ADD AND DUP3 ADD DUP1 PUSH1 0x40 MSTORE POP DUP2 ADD SWAP1 PUSH2 0x7AE SWAP2 SWAP1 PUSH2 0x13AF JUMP JUMPDEST SWAP6 POP POP POP POP POP POP DUP4 PUSH20 0xFFFFFFFFFFFFFFFFFFFFFFFFFFFFFFFFFFFFFFFF AND DUP6 PUSH20 0xFFFFFFFFFFFFFFFFFFFFFFFFFFFFFFFFFFFFFFFF AND PUSH32 0xC36075E656A1AE37433E843BE9F03B48AA277AA3174CADF877D8D58FE686215D DUP4 DUP6 PUSH1 0x40 MLOAD PUSH2 0x814 SWAP3 SWAP2 SWAP1 PUSH2 0x1438 JUMP JUMPDEST PUSH1 0x40 MLOAD DUP1 SWAP2 SUB SWAP1 LOG3 POP POP POP POP POP POP JUMP JUMPDEST DUP1 SELFBALANCE LT ISZERO PUSH2 0x867 JUMPI PUSH1 0x40 MLOAD PUSH32 0x8C379A000000000000000000000000000000000000000000000000000000000 DUP2 MSTORE PUSH1 0x4 ADD PUSH2 0x85E SWAP1 PUSH2 0x14A9 JUMP JUMPDEST PUSH1 0x40 MLOAD DUP1 SWAP2 SUB SWAP1 REVERT JUMPDEST PUSH0 DUP2 GT ISZERO PUSH2 0x967 JUMPI PUSH0 DUP3 PUSH20 0xFFFFFFFFFFFFFFFFFFFFFFFFFFFFFFFFFFFFFFFF AND DUP3 PUSH0 PUSH8 0xFFFFFFFFFFFFFFFF DUP2 GT ISZERO PUSH2 0x8A2 JUMPI PUSH2 0x8A1 PUSH2 0x14C7 JUMP JUMPDEST JUMPDEST PUSH1 0x40 MLOAD SWAP1 DUP1 DUP3 MSTORE DUP1 PUSH1 0x1F ADD PUSH1 0x1F NOT AND PUSH1 0x20 ADD DUP3 ADD PUSH1 0x40 MSTORE DUP1 ISZERO PUSH2 0x8D4 JUMPI DUP2 PUSH1 0x20 ADD PUSH1 0x1 DUP3 MUL DUP1 CALLDATASIZE DUP4 CALLDATACOPY DUP1 DUP3 ADD SWAP2 POP POP SWAP1 POP JUMPDEST POP PUSH1 0x40 MLOAD PUSH2 0x8E2 SWAP2 SWAP1 PUSH2 0x1546 JUMP JUMPDEST PUSH0 PUSH1 0x40 MLOAD DUP1 DUP4 SUB DUP2 DUP6 DUP8 GAS CALL SWAP3 POP POP POP RETURNDATASIZE DUP1 PUSH0 DUP2 EQ PUSH2 0x91C JUMPI PUSH1 0x40 MLOAD SWAP2 POP PUSH1 0x1F NOT PUSH1 0x3F RETURNDATASIZE ADD AND DUP3 ADD PUSH1 0x40 MSTORE RETURNDATASIZE DUP3 MSTORE RETURNDATASIZE PUSH0 PUSH1 0x20 DUP5 ADD RETURNDATACOPY PUSH2 0x921 JUMP JUMPDEST PUSH1 0x60 SWAP2 POP JUMPDEST POP POP SWAP1 POP DUP1 PUSH2 0x965 JUMPI PUSH1 0x40 MLOAD PUSH32 0x8C379A000000000000000000000000000000000000000000000000000000000 DUP2 MSTORE PUSH1 0x4 ADD PUSH2 0x95C SWAP1 PUSH2 0x15A6 JUMP JUMPDEST PUSH1 0x40 MLOAD DUP1 SWAP2 SUB SWAP1 REVERT JUMPDEST POP JUMPDEST POP POP JUMP JUMPDEST PUSH0 DUP1 PUSH0 DUP1 DUP6 PUSH20 0xFFFFFFFFFFFFFFFFFFFFFFFFFFFFFFFFFFFFFFFF AND PUSH4 0xBF92857C DUP9 PUSH1 0x40 MLOAD DUP3 PUSH4 0xFFFFFFFF AND PUSH1 0xE0 SHL DUP2 MSTORE PUSH1 0x4 ADD PUSH2 0x9A8 SWAP2 SWAP1 PUSH2 0x1075 JUMP JUMPDEST PUSH1 0xC0 PUSH1 0x40 MLOAD DUP1 DUP4 SUB DUP2 DUP7 GAS STATICCALL ISZERO DUP1 ISZERO PUSH2 0x9C3 JUMPI RETURNDATASIZE PUSH0 DUP1 RETURNDATACOPY RETURNDATASIZE PUSH0 REVERT JUMPDEST POP POP POP POP PUSH1 0x40 MLOAD RETURNDATASIZE PUSH1 0x1F NOT PUSH1 0x1F DUP3 ADD AND DUP3 ADD DUP1 PUSH1 0x40 MSTORE POP DUP2 ADD SWAP1 PUSH2 0x9E7 SWAP2 SWAP1 PUSH2 0x13AF JUMP JUMPDEST POP POP SWAP4 POP POP SWAP3 POP SWAP3 POP PUSH0 PUSH2 0x2710 DUP3 PUSH2 0x9FF SWAP2 SWAP1 PUSH2 0x161E JUMP JUMPDEST DUP4 DUP8 PUSH2 0xA0B SWAP2 SWAP1 PUSH2 0x164E JUMP JUMPDEST PUSH2 0xA15 SWAP2 SWAP1 PUSH2 0x161E JUMP JUMPDEST SWAP1 POP PUSH0 DUP5 DUP3 GT ISZERO PUSH2 0xA4A JUMPI DUP5 DUP3 PUSH2 0xA2C SWAP2 SWAP1 PUSH2 0x168F JUMP JUMPDEST SWAP1 POP PUSH1 0x64 PUSH1 0x69 DUP3 PUSH2 0xA3D SWAP2 SWAP1 PUSH2 0x164E JUMP JUMPDEST PUSH2 0xA47 SWAP2 SWAP1 PUSH2 0x161E JUMP JUMPDEST SWAP1 POP JUMPDEST PUSH0 PUSH1 0x5 PUSH0 SWAP1 SLOAD SWAP1 PUSH2 0x100 EXP SWAP1 DIV PUSH20 0xFFFFFFFFFFFFFFFFFFFFFFFFFFFFFFFFFFFFFFFF AND PUSH20 0xFFFFFFFFFFFFFFFFFFFFFFFFFFFFFFFFFFFFFFFF AND PUSH4 0xFEAF968C PUSH1 0x40 MLOAD DUP2 PUSH4 0xFFFFFFFF AND PUSH1 0xE0 SHL DUP2 MSTORE PUSH1 0x4 ADD PUSH1 0xA0 PUSH1 0x40 MLOAD DUP1 DUP4 SUB DUP2 DUP7 GAS STATICCALL ISZERO DUP1 ISZERO PUSH2 0xAB5 JUMPI RETURNDATASIZE PUSH0 DUP1 RETURNDATACOPY RETURNDATASIZE PUSH0 REVERT JUMPDEST POP POP POP POP PUSH1 0x40 MLOAD RETURNDATASIZE PUSH1 0x1F NOT PUSH1 0x1F DUP3 ADD AND DUP3 ADD DUP1 PUSH1 0x40 MSTORE POP DUP2 ADD SWAP1 PUSH2 0xAD9 SWAP2 SWAP1 PUSH2 0x1734 JUMP JUMPDEST POP POP POP SWAP2 POP POP PUSH0 PUSH1 0x6 PUSH0 SWAP1 SLOAD SWAP1 PUSH2 0x100 EXP SWAP1 DIV PUSH20 0xFFFFFFFFFFFFFFFFFFFFFFFFFFFFFFFFFFFFFFFF AND PUSH20 0xFFFFFFFFFFFFFFFFFFFFFFFFFFFFFFFFFFFFFFFF AND PUSH4 0xFEAF968C PUSH1 0x40 MLOAD DUP2 PUSH4 0xFFFFFFFF AND PUSH1 0xE0 SHL DUP2 MSTORE PUSH1 0x4 ADD PUSH1 0xA0 PUSH1 0x40 MLOAD DUP1 DUP4 SUB DUP2 DUP7 GAS STATICCALL ISZERO DUP1 ISZERO PUSH2 0xB4A JUMPI RETURNDATASIZE PUSH0 DUP1 RETURNDATACOPY RETURNDATASIZE PUSH0 REVERT JUMPDEST POP POP POP POP PUSH1 0x40 MLOAD RETURNDATASIZE PUSH1 0x1F NOT PUSH1 0x1F DUP3 ADD AND DUP3 ADD DUP1 PUSH1 0x40 MSTORE POP DUP2 ADD SWAP1 PUSH2 0xB6E SWAP2 SWAP1 PUSH2 0x1734 JUMP JUMPDEST POP POP POP SWAP2 POP POP PUSH0 DUP3 SGT PUSH2 0xBB6 JUMPI PUSH1 0x40 MLOAD PUSH32 0x8C379A000000000000000000000000000000000000000000000000000000000 DUP2 MSTORE PUSH1 0x4 ADD PUSH2 0xBAD SWAP1 PUSH2 0x17F5 JUMP JUMPDEST PUSH1 0x40 MLOAD DUP1 SWAP2 SUB SWAP1 REVERT JUMPDEST PUSH0 DUP2 SGT PUSH2 0xBF8 JUMPI PUSH1 0x40 MLOAD PUSH32 0x8C379A000000000000000000000000000000000000000000000000000000000 DUP2 MSTORE PUSH1 0x4 ADD PUSH2 0xBEF SWAP1 PUSH2 0x185D JUMP JUMPDEST PUSH1 0x40 MLOAD DUP1 SWAP2 SUB SWAP1 REVERT JUMPDEST PUSH0 PUSH1 0x5 PUSH0 SWAP1 SLOAD SWAP1 PUSH2 0x100 EXP SWAP1 DIV PUSH20 0xFFFFFFFFFFFFFFFFFFFFFFFFFFFFFFFFFFFFFFFF AND PUSH20 0xFFFFFFFFFFFFFFFFFFFFFFFFFFFFFFFFFFFFFFFF AND PUSH4 0x313CE567 PUSH1 0x40 MLOAD DUP2 PUSH4 0xFFFFFFFF AND PUSH1 0xE0 SHL DUP2 MSTORE PUSH1 0x4 ADD PUSH1 0x20 PUSH1 0x40 MLOAD DUP1 DUP4 SUB DUP2 DUP7 GAS STATICCALL ISZERO DUP1 ISZERO PUSH2 0xC63 JUMPI RETURNDATASIZE PUSH0 DUP1 RETURNDATACOPY RETURNDATASIZE PUSH0 REVERT JUMPDEST POP POP POP POP PUSH1 0x40 MLOAD RETURNDATASIZE PUSH1 0x1F NOT PUSH1 0x1F DUP3 ADD AND DUP3 ADD DUP1 PUSH1 0x40 MSTORE POP DUP2 ADD SWAP1 PUSH2 0xC87 SWAP2 SWAP1 PUSH2 0x18B1 JUMP JUMPDEST SWAP1 POP PUSH0 PUSH1 0x6 PUSH0 SWAP1 SLOAD SWAP1 PUSH2 0x100 EXP SWAP1 DIV PUSH20 0xFFFFFFFFFFFFFFFFFFFFFFFFFFFFFFFFFFFFFFFF AND PUSH20 0xFFFFFFFFFFFFFFFFFFFFFFFFFFFFFFFFFFFFFFFF AND PUSH4 0x313CE567 PUSH1 0x40 MLOAD DUP2 PUSH4 0xFFFFFFFF AND PUSH1 0xE0 SHL DUP2 MSTORE PUSH1 0x4 ADD PUSH1 0x20 PUSH1 0x40 MLOAD DUP1 DUP4 SUB DUP2 DUP7 GAS STATICCALL ISZERO DUP1 ISZERO PUSH2 0xCF4 JUMPI RETURNDATASIZE PUSH0 DUP1 RETURNDATACOPY RETURNDATASIZE PUSH0 REVERT JUMPDEST POP POP POP POP PUSH1 0x40 MLOAD RETURNDATASIZE PUSH1 0x1F NOT PUSH1 0x1F DUP3 ADD AND DUP3 ADD DUP1 PUSH1 0x40 MSTORE POP DUP2 ADD SWAP1 PUSH2 0xD18 SWAP2 SWAP1 PUSH2 0x18B1 JUMP JUMPDEST SWAP1 POP PUSH0 PUSH1 0x3 PUSH0 SWAP1 SLOAD SWAP1 PUSH2 0x100 EXP SWAP1 DIV PUSH20 0xFFFFFFFFFFFFFFFFFFFFFFFFFFFFFFFFFFFFFFFF AND PUSH20 0xFFFFFFFFFFFFFFFFFFFFFFFFFFFFFFFFFFFFFFFF AND PUSH4 0x313CE567 PUSH1 0x40 MLOAD DUP2 PUSH4 0xFFFFFFFF AND PUSH1 0xE0 SHL DUP2 MSTORE PUSH1 0x4 ADD PUSH1 0x20 PUSH1 0x40 MLOAD DUP1 DUP4 SUB DUP2 DUP7 GAS STATICCALL ISZERO DUP1 ISZERO PUSH2 0xD85 JUMPI RETURNDATASIZE PUSH0 DUP1 RETURNDATACOPY RETURNDATASIZE PUSH0 REVERT JUMPDEST POP POP POP POP PUSH1 0x40 MLOAD RETURNDATASIZE PUSH1 0x1F NOT PUSH1 0x1F DUP3 ADD AND DUP3 ADD DUP1 PUSH1 0x40 MSTORE POP DUP2 ADD SWAP1 PUSH2 0xDA9 SWAP2 SWAP1 PUSH2 0x18B1 JUMP JUMPDEST PUSH1 0xFF AND SWAP1 POP PUSH0 DUP3 PUSH1 0xA PUSH2 0xDBC SWAP2 SWAP1 PUSH2 0x1A0B JUMP JUMPDEST DUP6 DUP9 PUSH2 0xDC8 SWAP2 SWAP1 PUSH2 0x164E JUMP JUMPDEST PUSH2 0xDD2 SWAP2 SWAP1 PUSH2 0x161E JUMP JUMPDEST SWAP1 POP PUSH0 DUP7 DUP4 PUSH1 0xA PUSH2 0xDE3 SWAP2 SWAP1 PUSH2 0x1A55 JUMP JUMPDEST DUP4 PUSH2 0xDEE SWAP2 SWAP1 PUSH2 0x164E JUMP JUMPDEST PUSH2 0xDF8 SWAP2 SWAP1 PUSH2 0x161E JUMP JUMPDEST SWAP1 POP DUP4 PUSH1 0xFF AND DUP6 PUSH1 0xFF AND GT ISZERO PUSH2 0xE32 JUMPI DUP4 DUP6 PUSH2 0xE14 SWAP2 SWAP1 PUSH2 0x1A9F JUMP JUMPDEST PUSH1 0xA PUSH2 0xE20 SWAP2 SWAP1 PUSH2 0x1A0B JUMP JUMPDEST DUP2 PUSH2 0xE2B SWAP2 SWAP1 PUSH2 0x161E JUMP JUMPDEST SWAP1 POP PUSH2 0xE67 JUMP JUMPDEST DUP5 PUSH1 0xFF AND DUP5 PUSH1 0xFF AND GT ISZERO PUSH2 0xE66 JUMPI DUP5 DUP5 PUSH2 0xE4C SWAP2 SWAP1 PUSH2 0x1A9F JUMP JUMPDEST PUSH1 0xA PUSH2 0xE58 SWAP2 SWAP1 PUSH2 0x1A0B JUMP JUMPDEST DUP2 PUSH2 0xE63 SWAP2 SWAP1 PUSH2 0x164E JUMP JUMPDEST SWAP1 POP JUMPDEST JUMPDEST DUP1 SWAP13 POP POP POP POP POP POP POP POP POP POP POP POP POP SWAP4 SWAP3 POP POP POP JUMP JUMPDEST PUSH0 DUP1 REVERT JUMPDEST PUSH0 PUSH20 0xFFFFFFFFFFFFFFFFFFFFFFFFFFFFFFFFFFFFFFFF DUP3 AND SWAP1 POP SWAP2 SWAP1 POP JUMP JUMPDEST PUSH0 PUSH2 0xEAA DUP3 PUSH2 0xE81 JUMP JUMPDEST SWAP1 POP SWAP2 SWAP1 POP JUMP JUMPDEST PUSH2 0xEBA DUP2 PUSH2 0xEA0 JUMP JUMPDEST DUP2 EQ PUSH2 0xEC4 JUMPI PUSH0 DUP1 REVERT JUMPDEST POP JUMP JUMPDEST PUSH0 DUP2 CALLDATALOAD SWAP1 POP PUSH2 0xED5 DUP2 PUSH2 0xEB1 JUMP JUMPDEST SWAP3 SWAP2 POP POP JUMP JUMPDEST PUSH0 PUSH1 0x20 DUP3 DUP5 SUB SLT ISZERO PUSH2 0xEF0 JUMPI PUSH2 0xEEF PUSH2 0xE7D JUMP JUMPDEST JUMPDEST PUSH0 PUSH2 0xEFD DUP5 DUP3 DUP6 ADD PUSH2 0xEC7 JUMP JUMPDEST SWAP2 POP POP SWAP3 SWAP2 POP POP JUMP JUMPDEST PUSH0 DUP2 SWAP1 POP SWAP2 SWAP1 POP JUMP JUMPDEST PUSH2 0xF18 DUP2 PUSH2 0xF06 JUMP JUMPDEST DUP2 EQ PUSH2 0xF22 JUMPI PUSH0 DUP1 REVERT JUMPDEST POP JUMP JUMPDEST PUSH0 DUP2 CALLDATALOAD SWAP1 POP PUSH2 0xF33 DUP2 PUSH2 0xF0F JUMP JUMPDEST SWAP3 SWAP2 POP POP JUMP JUMPDEST PUSH0 PUSH1 0x20 DUP3 DUP5 SUB SLT ISZERO PUSH2 0xF4E JUMPI PUSH2 0xF4D PUSH2 0xE7D JUMP JUMPDEST JUMPDEST PUSH0 PUSH2 0xF5B DUP5 DUP3 DUP6 ADD PUSH2 0xF25 JUMP JUMPDEST SWAP2 POP POP SWAP3 SWAP2 POP POP JUMP JUMPDEST PUSH0 DUP1 PUSH0 DUP1 PUSH1 0x80 DUP6 DUP8 SUB SLT ISZERO PUSH2 0xF7C JUMPI PUSH2 0xF7B PUSH2 0xE7D JUMP JUMPDEST JUMPDEST PUSH0 PUSH2 0xF89 DUP8 DUP3 DUP9 ADD PUSH2 0xEC7 JUMP JUMPDEST SWAP5 POP POP PUSH1 0x20 PUSH2 0xF9A DUP8 DUP3 DUP9 ADD PUSH2 0xEC7 JUMP JUMPDEST SWAP4 POP POP PUSH1 0x40 PUSH2 0xFAB DUP8 DUP3 DUP9 ADD PUSH2 0xEC7 JUMP JUMPDEST SWAP3 POP POP PUSH1 0x60 PUSH2 0xFBC DUP8 DUP3 DUP9 ADD PUSH2 0xF25 JUMP JUMPDEST SWAP2 POP POP SWAP3 SWAP6 SWAP2 SWAP5 POP SWAP3 POP JUMP JUMPDEST PUSH0 DUP3 DUP3 MSTORE PUSH1 0x20 DUP3 ADD SWAP1 POP SWAP3 SWAP2 POP POP JUMP JUMPDEST PUSH32 0x4F6E6C79206F776E65722063616E2063616C6C20746869732066756E6374696F PUSH0 DUP3 ADD MSTORE PUSH32 0x6E00000000000000000000000000000000000000000000000000000000000000 PUSH1 0x20 DUP3 ADD MSTORE POP JUMP JUMPDEST PUSH0 PUSH2 0x1032 PUSH1 0x21 DUP4 PUSH2 0xFC8 JUMP JUMPDEST SWAP2 POP PUSH2 0x103D DUP3 PUSH2 0xFD8 JUMP JUMPDEST PUSH1 0x40 DUP3 ADD SWAP1 POP SWAP2 SWAP1 POP JUMP JUMPDEST PUSH0 PUSH1 0x20 DUP3 ADD SWAP1 POP DUP2 DUP2 SUB PUSH0 DUP4 ADD MSTORE PUSH2 0x105F DUP2 PUSH2 0x1026 JUMP JUMPDEST SWAP1 POP SWAP2 SWAP1 POP JUMP JUMPDEST PUSH2 0x106F DUP2 PUSH2 0xEA0 JUMP JUMPDEST DUP3 MSTORE POP POP JUMP JUMPDEST PUSH0 PUSH1 0x20 DUP3 ADD SWAP1 POP PUSH2 0x1088 PUSH0 DUP4 ADD DUP5 PUSH2 0x1066 JUMP JUMPDEST SWAP3 SWAP2 POP POP JUMP JUMPDEST PUSH0 DUP2 MLOAD SWAP1 POP PUSH2 0x109C DUP2 PUSH2 0xF0F JUMP JUMPDEST SWAP3 SWAP2 POP POP JUMP JUMPDEST PUSH0 PUSH1 0x20 DUP3 DUP5 SUB SLT ISZERO PUSH2 0x10B7 JUMPI PUSH2 0x10B6 PUSH2 0xE7D JUMP JUMPDEST JUMPDEST PUSH0 PUSH2 0x10C4 DUP5 DUP3 DUP6 ADD PUSH2 0x108E JUMP JUMPDEST SWAP2 POP POP SWAP3 SWAP2 POP POP JUMP JUMPDEST PUSH32 0x417574686F72697A65642073656E646572206F6E6C7900000000000000000000 PUSH0 DUP3 ADD MSTORE POP JUMP JUMPDEST PUSH0 PUSH2 0x1101 PUSH1 0x16 DUP4 PUSH2 0xFC8 JUMP JUMPDEST SWAP2 POP PUSH2 0x110C DUP3 PUSH2 0x10CD JUMP JUMPDEST PUSH1 0x20 DUP3 ADD SWAP1 POP SWAP2 SWAP1 POP JUMP JUMPDEST PUSH0 PUSH1 0x20 DUP3 ADD SWAP1 POP DUP2 DUP2 SUB PUSH0 DUP4 ADD MSTORE PUSH2 0x112E DUP2 PUSH2 0x10F5 JUMP JUMPDEST SWAP1 POP SWAP2 SWAP1 POP JUMP JUMPDEST PUSH0 PUSH1 0x40 DUP3 ADD SWAP1 POP PUSH2 0x1148 PUSH0 DUP4 ADD DUP6 PUSH2 0x1066 JUMP JUMPDEST PUSH2 0x1155 PUSH1 0x20 DUP4 ADD DUP5 PUSH2 0x1066 JUMP JUMPDEST SWAP4 SWAP3 POP POP POP JUMP JUMPDEST PUSH32 0x496E73756666696369656E7420617070726F76656420636F6C6C61746572616C PUSH0 DUP3 ADD MSTORE POP JUMP JUMPDEST PUSH0 PUSH2 0x1190 PUSH1 0x20 DUP4 PUSH2 0xFC8 JUMP JUMPDEST SWAP2 POP PUSH2 0x119B DUP3 PUSH2 0x115C JUMP JUMPDEST PUSH1 0x20 DUP3 ADD SWAP1 POP SWAP2 SWAP1 POP JUMP JUMPDEST PUSH0 PUSH1 0x20 DUP3 ADD SWAP1 POP DUP2 DUP2 SUB PUSH0 DUP4 ADD MSTORE PUSH2 0x11BD DUP2 PUSH2 0x1184 JUMP JUMPDEST SWAP1 POP SWAP2 SWAP1 POP JUMP JUMPDEST PUSH32 0x496E73756666696369656E7420636F6C6C61746572616C20617661696C61626C PUSH0 DUP3 ADD MSTORE PUSH32 0x6500000000000000000000000000000000000000000000000000000000000000 PUSH1 0x20 DUP3 ADD MSTORE POP JUMP JUMPDEST PUSH0 PUSH2 0x121E PUSH1 0x21 DUP4 PUSH2 0xFC8 JUMP JUMPDEST SWAP2 POP PUSH2 0x1229 DUP3 PUSH2 0x11C4 JUMP JUMPDEST PUSH1 0x40 DUP3 ADD SWAP1 POP SWAP2 SWAP1 POP JUMP JUMPDEST PUSH0 PUSH1 0x20 DUP3 ADD SWAP1 POP DUP2 DUP2 SUB PUSH0 DUP4 ADD MSTORE PUSH2 0x124B DUP2 PUSH2 0x1212 JUMP JUMPDEST SWAP1 POP SWAP2 SWAP1 POP JUMP JUMPDEST PUSH2 0x125B DUP2 PUSH2 0xF06 JUMP JUMPDEST DUP3 MSTORE POP POP JUMP JUMPDEST PUSH0 PUSH1 0x60 DUP3 ADD SWAP1 POP PUSH2 0x1274 PUSH0 DUP4 ADD DUP7 PUSH2 0x1066 JUMP JUMPDEST PUSH2 0x1281 PUSH1 0x20 DUP4 ADD DUP6 PUSH2 0x1066 JUMP JUMPDEST PUSH2 0x128E PUSH1 0x40 DUP4 ADD DUP5 PUSH2 0x1252 JUMP JUMPDEST SWAP5 SWAP4 POP POP POP POP JUMP JUMPDEST PUSH0 DUP2 ISZERO ISZERO SWAP1 POP SWAP2 SWAP1 POP JUMP JUMPDEST PUSH2 0x12AA DUP2 PUSH2 0x1296 JUMP JUMPDEST DUP2 EQ PUSH2 0x12B4 JUMPI PUSH0 DUP1 REVERT JUMPDEST POP JUMP JUMPDEST PUSH0 DUP2 MLOAD SWAP1 POP PUSH2 0x12C5 DUP2 PUSH2 0x12A1 JUMP JUMPDEST SWAP3 SWAP2 POP POP JUMP JUMPDEST PUSH0 PUSH1 0x20 DUP3 DUP5 SUB SLT ISZERO PUSH2 0x12E0 JUMPI PUSH2 0x12DF PUSH2 0xE7D JUMP JUMPDEST JUMPDEST PUSH0 PUSH2 0x12ED DUP5 DUP3 DUP6 ADD PUSH2 0x12B7 JUMP JUMPDEST SWAP2 POP POP SWAP3 SWAP2 POP POP JUMP JUMPDEST PUSH0 PUSH1 0x40 DUP3 ADD SWAP1 POP PUSH2 0x1309 PUSH0 DUP4 ADD DUP6 PUSH2 0x1066 JUMP JUMPDEST PUSH2 0x1316 PUSH1 0x20 DUP4 ADD DUP5 PUSH2 0x1252 JUMP JUMPDEST SWAP4 SWAP3 POP POP POP JUMP JUMPDEST PUSH0 DUP2 SWAP1 POP SWAP2 SWAP1 POP JUMP JUMPDEST PUSH0 PUSH2 0xFFFF DUP3 AND SWAP1 POP SWAP2 SWAP1 POP JUMP JUMPDEST PUSH0 DUP2 SWAP1 POP SWAP2 SWAP1 POP JUMP JUMPDEST PUSH0 PUSH2 0x1356 PUSH2 0x1351 PUSH2 0x134C DUP5 PUSH2 0x131D JUMP JUMPDEST PUSH2 0x1333 JUMP JUMPDEST PUSH2 0x1326 JUMP JUMPDEST SWAP1 POP SWAP2 SWAP1 POP JUMP JUMPDEST PUSH2 0x1366 DUP2 PUSH2 0x133C JUMP JUMPDEST DUP3 MSTORE POP POP JUMP JUMPDEST PUSH0 PUSH1 0x80 DUP3 ADD SWAP1 POP PUSH2 0x137F PUSH0 DUP4 ADD DUP8 PUSH2 0x1066 JUMP JUMPDEST PUSH2 0x138C PUSH1 0x20 DUP4 ADD DUP7 PUSH2 0x1252 JUMP JUMPDEST PUSH2 0x1399 PUSH1 0x40 DUP4 ADD DUP6 PUSH2 0x1066 JUMP JUMPDEST PUSH2 0x13A6 PUSH1 0x60 DUP4 ADD DUP5 PUSH2 0x135D JUMP JUMPDEST SWAP6 SWAP5 POP POP POP POP POP JUMP JUMPDEST PUSH0 DUP1 PUSH0 DUP1 PUSH0 DUP1 PUSH1 0xC0 DUP8 DUP10 SUB SLT ISZERO PUSH2 0x13C9 JUMPI PUSH2 0x13C8 PUSH2 0xE7D JUMP JUMPDEST JUMPDEST PUSH0 PUSH2 0x13D6 DUP10 DUP3 DUP11 ADD PUSH2 0x108E JUMP JUMPDEST SWAP7 POP POP PUSH1 0x20 PUSH2 0x13E7 DUP10 DUP3 DUP11 ADD PUSH2 0x108E JUMP JUMPDEST SWAP6 POP POP PUSH1 0x40 PUSH2 0x13F8 DUP10 DUP3 DUP11 ADD PUSH2 0x108E JUMP JUMPDEST SWAP5 POP POP PUSH1 0x60 PUSH2 0x1409 DUP10 DUP3 DUP11 ADD PUSH2 0x108E JUMP JUMPDEST SWAP4 POP POP PUSH1 0x80 PUSH2 0x141A DUP10 DUP3 DUP11 ADD PUSH2 0x108E JUMP JUMPDEST SWAP3 POP POP PUSH1 0xA0 PUSH2 0x142B DUP10 DUP3 DUP11 ADD PUSH2 0x108E JUMP JUMPDEST SWAP2 POP POP SWAP3 SWAP6 POP SWAP3 SWAP6 POP SWAP3 SWAP6 JUMP JUMPDEST PUSH0 PUSH1 0x40 DUP3 ADD SWAP1 POP PUSH2 0x144B PUSH0 DUP4 ADD DUP6 PUSH2 0x1252 JUMP JUMPDEST PUSH2 0x1458 PUSH1 0x20 DUP4 ADD DUP5 PUSH2 0x1252 JUMP JUMPDEST SWAP4 SWAP3 POP POP POP JUMP JUMPDEST PUSH32 0x496E73756666696369656E742066756E64730000000000000000000000000000 PUSH0 DUP3 ADD MSTORE POP JUMP JUMPDEST PUSH0 PUSH2 0x1493 PUSH1 0x12 DUP4 PUSH2 0xFC8 JUMP JUMPDEST SWAP2 POP PUSH2 0x149E DUP3 PUSH2 0x145F JUMP JUMPDEST PUSH1 0x20 DUP3 ADD SWAP1 POP SWAP2 SWAP1 POP JUMP JUMPDEST PUSH0 PUSH1 0x20 DUP3 ADD SWAP1 POP DUP2 DUP2 SUB PUSH0 DUP4 ADD MSTORE PUSH2 0x14C0 DUP2 PUSH2 0x1487 JUMP JUMPDEST SWAP1 POP SWAP2 SWAP1 POP JUMP JUMPDEST PUSH32 0x4E487B7100000000000000000000000000000000000000000000000000000000 PUSH0 MSTORE PUSH1 0x41 PUSH1 0x4 MSTORE PUSH1 0x24 PUSH0 REVERT JUMPDEST PUSH0 DUP2 MLOAD SWAP1 POP SWAP2 SWAP1 POP JUMP JUMPDEST PUSH0 DUP2 SWAP1 POP SWAP3 SWAP2 POP POP JUMP JUMPDEST DUP3 DUP2 DUP4 MCOPY PUSH0 DUP4 DUP4 ADD MSTORE POP POP POP JUMP JUMPDEST PUSH0 PUSH2 0x1520 DUP3 PUSH2 0x14F4 JUMP JUMPDEST PUSH2 0x152A DUP2 DUP6 PUSH2 0x14FE JUMP JUMPDEST SWAP4 POP PUSH2 0x153A DUP2 DUP6 PUSH1 0x20 DUP7 ADD PUSH2 0x1508 JUMP JUMPDEST DUP1 DUP5 ADD SWAP2 POP POP SWAP3 SWAP2 POP POP JUMP JUMPDEST PUSH0 PUSH2 0x1551 DUP3 DUP5 PUSH2 0x1516 JUMP JUMPDEST SWAP2 POP DUP2 SWAP1 POP SWAP3 SWAP2 POP POP JUMP JUMPDEST PUSH32 0x5472616E73666572206661696C65640000000000000000000000000000000000 PUSH0 DUP3 ADD MSTORE POP JUMP JUMPDEST PUSH0 PUSH2 0x1590 PUSH1 0xF DUP4 PUSH2 0xFC8 JUMP JUMPDEST SWAP2 POP PUSH2 0x159B DUP3 PUSH2 0x155C JUMP JUMPDEST PUSH1 0x20 DUP3 ADD SWAP1 POP SWAP2 SWAP1 POP JUMP JUMPDEST PUSH0 PUSH1 0x20 DUP3 ADD SWAP1 POP DUP2 DUP2 SUB PUSH0 DUP4 ADD MSTORE PUSH2 0x15BD DUP2 PUSH2 0x1584 JUMP JUMPDEST SWAP1 POP SWAP2 SWAP1 POP JUMP JUMPDEST PUSH32 0x4E487B7100000000000000000000000000000000000000000000000000000000 PUSH0 MSTORE PUSH1 0x12 PUSH1 0x4 MSTORE PUSH1 0x24 PUSH0 REVERT JUMPDEST PUSH32 0x4E487B7100000000000000000000000000000000000000000000000000000000 PUSH0 MSTORE PUSH1 0x11 PUSH1 0x4 MSTORE PUSH1 0x24 PUSH0 REVERT JUMPDEST PUSH0 PUSH2 0x1628 DUP3 PUSH2 0xF06 JUMP JUMPDEST SWAP2 POP PUSH2 0x1633 DUP4 PUSH2 0xF06 JUMP JUMPDEST SWAP3 POP DUP3 PUSH2 0x1643 JUMPI PUSH2 0x1642 PUSH2 0x15C4 JUMP JUMPDEST JUMPDEST DUP3 DUP3 DIV SWAP1 POP SWAP3 SWAP2 POP POP JUMP JUMPDEST PUSH0 PUSH2 0x1658 DUP3 PUSH2 0xF06 JUMP JUMPDEST SWAP2 POP PUSH2 0x1663 DUP4 PUSH2 0xF06 JUMP JUMPDEST SWAP3 POP DUP3 DUP3 MUL PUSH2 0x1671 DUP2 PUSH2 0xF06 JUMP JUMPDEST SWAP2 POP DUP3 DUP3 DIV DUP5 EQ DUP4 ISZERO OR PUSH2 0x1688 JUMPI PUSH2 0x1687 PUSH2 0x15F1 JUMP JUMPDEST JUMPDEST POP SWAP3 SWAP2 POP POP JUMP JUMPDEST PUSH0 PUSH2 0x1699 DUP3 PUSH2 0xF06 JUMP JUMPDEST SWAP2 POP PUSH2 0x16A4 DUP4 PUSH2 0xF06 JUMP JUMPDEST SWAP3 POP DUP3 DUP3 SUB SWAP1 POP DUP2 DUP2 GT ISZERO PUSH2 0x16BC JUMPI PUSH2 0x16BB PUSH2 0x15F1 JUMP JUMPDEST JUMPDEST SWAP3 SWAP2 POP POP JUMP JUMPDEST PUSH0 PUSH10 0xFFFFFFFFFFFFFFFFFFFF DUP3 AND SWAP1 POP SWAP2 SWAP1 POP JUMP JUMPDEST PUSH2 0x16E0 DUP2 PUSH2 0x16C2 JUMP JUMPDEST DUP2 EQ PUSH2 0x16EA JUMPI PUSH0 DUP1 REVERT JUMPDEST POP JUMP JUMPDEST PUSH0 DUP2 MLOAD SWAP1 POP PUSH2 0x16FB DUP2 PUSH2 0x16D7 JUMP JUMPDEST SWAP3 SWAP2 POP POP JUMP JUMPDEST PUSH0 DUP2 SWAP1 POP SWAP2 SWAP1 POP JUMP JUMPDEST PUSH2 0x1713 DUP2 PUSH2 0x1701 JUMP JUMPDEST DUP2 EQ PUSH2 0x171D JUMPI PUSH0 DUP1 REVERT JUMPDEST POP JUMP JUMPDEST PUSH0 DUP2 MLOAD SWAP1 POP PUSH2 0x172E DUP2 PUSH2 0x170A JUMP JUMPDEST SWAP3 SWAP2 POP POP JUMP JUMPDEST PUSH0 DUP1 PUSH0 DUP1 PUSH0 PUSH1 0xA0 DUP7 DUP9 SUB SLT ISZERO PUSH2 0x174D JUMPI PUSH2 0x174C PUSH2 0xE7D JUMP JUMPDEST JUMPDEST PUSH0 PUSH2 0x175A DUP9 DUP3 DUP10 ADD PUSH2 0x16ED JUMP JUMPDEST SWAP6 POP POP PUSH1 0x20 PUSH2 0x176B DUP9 DUP3 DUP10 ADD PUSH2 0x1720 JUMP JUMPDEST SWAP5 POP POP PUSH1 0x40 PUSH2 0x177C DUP9 DUP3 DUP10 ADD PUSH2 0x108E JUMP JUMPDEST SWAP4 POP POP PUSH1 0x60 PUSH2 0x178D DUP9 DUP3 DUP10 ADD PUSH2 0x108E JUMP JUMPDEST SWAP3 POP POP PUSH1 0x80 PUSH2 0x179E DUP9 DUP3 DUP10 ADD PUSH2 0x16ED JUMP JUMPDEST SWAP2 POP POP SWAP3 SWAP6 POP SWAP3 SWAP6 SWAP1 SWAP4 POP JUMP JUMPDEST PUSH32 0x496E76616C696420636F6C6C61746572616C2070726963650000000000000000 PUSH0 DUP3 ADD MSTORE POP JUMP JUMPDEST PUSH0 PUSH2 0x17DF PUSH1 0x18 DUP4 PUSH2 0xFC8 JUMP JUMPDEST SWAP2 POP PUSH2 0x17EA DUP3 PUSH2 0x17AB JUMP JUMPDEST PUSH1 0x20 DUP3 ADD SWAP1 POP SWAP2 SWAP1 POP JUMP JUMPDEST PUSH0 PUSH1 0x20 DUP3 ADD SWAP1 POP DUP2 DUP2 SUB PUSH0 DUP4 ADD MSTORE PUSH2 0x180C DUP2 PUSH2 0x17D3 JUMP JUMPDEST SWAP1 POP SWAP2 SWAP1 POP JUMP JUMPDEST PUSH32 0x496E76616C696420455448207072696365000000000000000000000000000000 PUSH0 DUP3 ADD MSTORE POP JUMP JUMPDEST PUSH0 PUSH2 0x1847 PUSH1 0x11 DUP4 PUSH2 0xFC8 JUMP JUMPDEST SWAP2 POP PUSH2 0x1852 DUP3 PUSH2 0x1813 JUMP JUMPDEST PUSH1 0x20 DUP3 ADD SWAP1 POP SWAP2 SWAP1 POP JUMP JUMPDEST PUSH0 PUSH1 0x20 DUP3 ADD SWAP1 POP DUP2 DUP2 SUB PUSH0 DUP4 ADD MSTORE PUSH2 0x1874 DUP2 PUSH2 0x183B JUMP JUMPDEST SWAP1 POP SWAP2 SWAP1 POP JUMP JUMPDEST PUSH0 PUSH1 0xFF DUP3 AND SWAP1 POP SWAP2 SWAP1 POP JUMP JUMPDEST PUSH2 0x1890 DUP2 PUSH2 0x187B JUMP JUMPDEST DUP2 EQ PUSH2 0x189A JUMPI PUSH0 DUP1 REVERT JUMPDEST POP JUMP JUMPDEST PUSH0 DUP2 MLOAD SWAP1 POP PUSH2 0x18AB DUP2 PUSH2 0x1887 JUMP JUMPDEST SWAP3 SWAP2 POP POP JUMP JUMPDEST PUSH0 PUSH1 0x20 DUP3 DUP5 SUB SLT ISZERO PUSH2 0x18C6 JUMPI PUSH2 0x18C5 PUSH2 0xE7D JUMP JUMPDEST JUMPDEST PUSH0 PUSH2 0x18D3 DUP5 DUP3 DUP6 ADD PUSH2 0x189D JUMP JUMPDEST SWAP2 POP POP SWAP3 SWAP2 POP POP JUMP JUMPDEST PUSH0 DUP2 PUSH1 0x1 SHR SWAP1 POP SWAP2 SWAP1 POP JUMP JUMPDEST PUSH0 DUP1 DUP3 SWAP2 POP DUP4 SWAP1 POP JUMPDEST PUSH1 0x1 DUP6 GT ISZERO PUSH2 0x1931 JUMPI DUP1 DUP7 DIV DUP2 GT ISZERO PUSH2 0x190D JUMPI PUSH2 0x190C PUSH2 0x15F1 JUMP JUMPDEST JUMPDEST PUSH1 0x1 DUP6 AND ISZERO PUSH2 0x191C JUMPI DUP1 DUP3 MUL SWAP2 POP JUMPDEST DUP1 DUP2 MUL SWAP1 POP PUSH2 0x192A DUP6 PUSH2 0x18DC JUMP JUMPDEST SWAP5 POP PUSH2 0x18F1 JUMP JUMPDEST SWAP5 POP SWAP5 SWAP3 POP POP POP JUMP JUMPDEST PUSH0 DUP3 PUSH2 0x1949 JUMPI PUSH1 0x1 SWAP1 POP PUSH2 0x1A04 JUMP JUMPDEST DUP2 PUSH2 0x1956 JUMPI PUSH0 SWAP1 POP PUSH2 0x1A04 JUMP JUMPDEST DUP2 PUSH1 0x1 DUP2 EQ PUSH2 0x196C JUMPI PUSH1 0x2 DUP2 EQ PUSH2 0x1976 JUMPI PUSH2 0x19A5 JUMP JUMPDEST PUSH1 0x1 SWAP2 POP POP PUSH2 0x1A04 JUMP JUMPDEST PUSH1 0xFF DUP5 GT ISZERO PUSH2 0x1988 JUMPI PUSH2 0x1987 PUSH2 0x15F1 JUMP JUMPDEST JUMPDEST DUP4 PUSH1 0x2 EXP SWAP2 POP DUP5 DUP3 GT ISZERO PUSH2 0x199F JUMPI PUSH2 0x199E PUSH2 0x15F1 JUMP JUMPDEST JUMPDEST POP PUSH2 0x1A04 JUMP JUMPDEST POP PUSH1 0x20 DUP4 LT PUSH2 0x133 DUP4 LT AND PUSH1 0x4E DUP5 LT PUSH1 0xB DUP5 LT AND OR ISZERO PUSH2 0x19DA JUMPI DUP3 DUP3 EXP SWAP1 POP DUP4 DUP2 GT ISZERO PUSH2 0x19D5 JUMPI PUSH2 0x19D4 PUSH2 0x15F1 JUMP JUMPDEST JUMPDEST PUSH2 0x1A04 JUMP JUMPDEST PUSH2 0x19E7 DUP5 DUP5 DUP5 PUSH1 0x1 PUSH2 0x18E8 JUMP JUMPDEST SWAP3 POP SWAP1 POP DUP2 DUP5 DIV DUP2 GT ISZERO PUSH2 0x19FE JUMPI PUSH2 0x19FD PUSH2 0x15F1 JUMP JUMPDEST JUMPDEST DUP2 DUP2 MUL SWAP1 POP JUMPDEST SWAP4 SWAP3 POP POP POP JUMP JUMPDEST PUSH0 PUSH2 0x1A15 DUP3 PUSH2 0xF06 JUMP JUMPDEST SWAP2 POP PUSH2 0x1A20 DUP4 PUSH2 0x187B JUMP JUMPDEST SWAP3 POP PUSH2 0x1A4D PUSH32 0xFFFFFFFFFFFFFFFFFFFFFFFFFFFFFFFFFFFFFFFFFFFFFFFFFFFFFFFFFFFFFFFF DUP5 DUP5 PUSH2 0x193A JUMP JUMPDEST SWAP1 POP SWAP3 SWAP2 POP POP JUMP JUMPDEST PUSH0 PUSH2 0x1A5F DUP3 PUSH2 0xF06 JUMP JUMPDEST SWAP2 POP PUSH2 0x1A6A DUP4 PUSH2 0xF06 JUMP JUMPDEST SWAP3 POP PUSH2 0x1A97 PUSH32 0xFFFFFFFFFFFFFFFFFFFFFFFFFFFFFFFFFFFFFFFFFFFFFFFFFFFFFFFFFFFFFFFF DUP5 DUP5 PUSH2 0x193A JUMP JUMPDEST SWAP1 POP SWAP3 SWAP2 POP POP JUMP JUMPDEST PUSH0 PUSH2 0x1AA9 DUP3 PUSH2 0x187B JUMP JUMPDEST SWAP2 POP PUSH2 0x1AB4 DUP4 PUSH2 0x187B JUMP JUMPDEST SWAP3 POP DUP3 DUP3 SUB SWAP1 POP PUSH1 0xFF DUP2 GT ISZERO PUSH2 0x1ACD JUMPI PUSH2 0x1ACC PUSH2 0x15F1 JUMP JUMPDEST JUMPDEST SWAP3 SWAP2 POP POP JUMP INVALID LOG2 PUSH5 0x6970667358 0x22 SLT KECCAK256 0xE8 CODESIZE 0x25 0x4E DUP16 0xD6 PUSH15 0x13CE6ECEF90496034BFEA7E48631D MSIZE SWAP6 CREATE 0xD0 CALLCODE 0xEE SLT 0xBF PUSH16 0xED64736F6C634300081A003300000000 "
				},
				"gasEstimates": {
					"creation": {
						"codeDepositCost": "1384200",
						"executionCost": "infinite",
						"totalCost": "infinite"
					},
					"external": {
						"coverDebt()": "infinite",
						"pay(uint256)": "infinite",
						"protectPosition(address,address,address,uint256)": "infinite",
						"setCollateralToken(address)": "26862"
					},
					"internal": {
						"calculateCollateralNeeded(address,address,uint256)": "infinite"
					}
				},
				"methodIdentifiers": {
					"coverDebt()": "7a90b990",
					"pay(uint256)": "c290d691",
					"protectPosition(address,address,address,uint256)": "f3e12267",
					"setCollateralToken(address)": "666181a9"
				}
			},
			"storageLayout": {
				"storage": [
					{
						"astId": 185,
						"contract": "src/AaveLiquidationProtectionCallback.sol:AaveLiquidationProtectionCallback",
						"label": "vendor",
						"offset": 0,
						"slot": "0",
						"type": "t_contract(IPayable)330"
					},
					{
						"astId": 189,
						"contract": "src/AaveLiquidationProtectionCallback.sol:AaveLiquidationProtectionCallback",
						"label": "senders",
						"offset": 0,
						"slot": "1",
						"type": "t_mapping(t_address,t_bool)"
					},
					{
						"astId": 131,
						"contract": "src/AaveLiquidationProtectionCallback.sol:AaveLiquidationProtectionCallback",
						"label": "rvm_id",
						"offset": 0,
						"slot": "2",
						"type": "t_address"
					},
					{
						"astId": 398,
						"contract": "src/AaveLiquidationProtectionCallback.sol:AaveLiquidationProtectionCallback",
						"label": "collateralToken",
						"offset": 0,
						"slot": "3",
						"type": "t_address"
					},
					{
						"astId": 400,
						"contract": "src/AaveLiquidationProtectionCallback.sol:AaveLiquidationProtectionCallback",
						"label": "owner",
						"offset": 0,
						"slot": "4",
						"type": "t_address"
					},
					{
						"astId": 403,
						"contract": "src/AaveLiquidationProtectionCallback.sol:AaveLiquidationProtectionCallback",
						"label": "collateralTokenPriceFeed",
						"offset": 0,
						"slot": "5",
						"type": "t_contract(AggregatorV3Interface)45"
					},
					{
						"astId": 409,
						"contract": "src/AaveLiquidationProtectionCallback.sol:AaveLiquidationProtectionCallback",
						"label": "ETHPriceFeed",
						"offset": 0,
						"slot": "6",
						"type": "t_contract(AggregatorV3Interface)45"
					}
				],
				"types": {
					"t_address": {
						"encoding": "inplace",
						"label": "address",
						"numberOfBytes": "20"
					},
					"t_bool": {
						"encoding": "inplace",
						"label": "bool",
						"numberOfBytes": "1"
					},
					"t_contract(AggregatorV3Interface)45": {
						"encoding": "inplace",
						"label": "contract AggregatorV3Interface",
						"numberOfBytes": "20"
					},
					"t_contract(IPayable)330": {
						"encoding": "inplace",
						"label": "contract IPayable",
						"numberOfBytes": "20"
					},
					"t_mapping(t_address,t_bool)": {
						"encoding": "mapping",
						"key": "t_address",
						"label": "mapping(address => bool)",
						"numberOfBytes": "32",
						"value": "t_bool"
					}
				}
			},
			"userdoc": {
				"kind": "user",
				"methods": {},
				"version": 1
			}
		}
	}
}